:020000040800F2
:10200000A00B0020F9220008012300080323000888
:10201000052300080723000809230008000000002A
:102020000000000000000000000000000D23000878
:102030000F230008000000001123000813230008EC
:1020400015230008152300081523000800000000D0
:1020500015230008152300081523000800000000C0
:1020600015230008152300080000000015230008B0
:102070001523000815230008152300081523000860
:102080001523000815230008152300081523000850
:102090001523000815230008152300081523000840
:1020A0001523000815230008152300081523000830
:1020B0001523000815230008152300081523000820
:1020C0001523000815230008152300081523000810
:1020D0000000000015230008152300081523000840
:1020E00015230008152300081523000815230008F0
:1020F0001523000815230008152300080000000020
:10210000000000001523000815230008152300080F
:1021100015230008152300081523000815230008BF
:1021200015230008152300081523000815230008AF
:102130006D5000080000000000000000152300089A
:10214000152300080000000000000000000000004F
:10215000000000000000000015230008000000003F
:1021600000000000000000001523000815230008EF
:10217000000000000000000000000000000000005F
:10218000000000000000000000000000000000004F
:10219000000000000000000000000000000000003F
:1021A00000000000000000001523000815230008AF
:1021B000152300081523000815230008152300081F
:1021C000152300081523000800000000000000008F
:1021D00000000000000000000000000015230008BF
:1021E00015230008000000000000000000000000AF
:1021F00000000000000000000000000000000000DF
:10220000000000001523000815230008000000004E
:10221000000000001523000800000000000000007E
:10222000000000000000000000000000152300086E
:10223000152300080000000000000000000000005E
:10224000000000000000000000000000152300084E
:10225000152300081523000800F002F800F03CF8F0
:102260000AA090E8000C82448344AAF10107DA45F1
:1022700001D100F031F8AFF2090EBAE80F0013F007
:10228000010F18BFFB1A43F0010318472C3200005E
:102290004C320000103A24BF78C878C1FAD85207EF
:1022A00024BF30C830C144BF04680C6070470000D0
:1022B0000023002400250026103A28BF78C1FBD84F
:1022C000520728BF30C148BF0B6070471FB503F0ED
:1022D000DEF81FBD10B510BD00F033F81146FFF752
:1022E000F5FF03F097F800F051F803B4FFF7F2FFA1
:1022F00003BC00F059F800000A4880470A4800472C
:10230000FEE7FEE7FEE7FEE7FEE7FEE7FEE7FEE7A5
:10231000FEE7FEE7FEE7000004480549054A064BD4
:1023200070470000514F000859220008A005002006
:10233000A00B0020A0070020A007002070477047D6
:102340007047754600F02CF8AE46050069465346C6
:1023500020F00700854618B020B5FFF7DDFFBDE887
:1023600020404FF000064FF000074FF000084FF0FC
:10237000000BAC46ACE8C009ACE8C009ACE8C00949
:10238000ACE8C00921F007018D46704710B504463E
:10239000AFF300802046BDE81040FFF7A6BF000065
:1023A00000487047F800002001491820ABBEFEE746
:1023B000260002007047000080B584B00390002022
:1023C00002900190FFE703980068013058B1FFE7E1
:1023D000039801F07DFF014601980844019003989D
:1023E00004300390EFE70198404204B080BD000044
:1023F00080B582B001900091019945F2A840C0F6E5
:10240000000001F05DFE02B080BD000080B590B01C
:1024100040F25910C2F200000F9040F26F10C2F269
:1024200000000E9040F25E50C2F200000D900D9838
:1024300000788DF8330040F26E10C2F20000007890
:1024400001460391052800F2AE840399DFE811F0FC
:1024500006006F0012019001FF012A0440F267514B
:10246000C2F2000108780130087040F25810C2F240
:1024700000000078012808D0FFE740F25C50C2F26B
:1024800000000078012850D1FFE70F980078F52868
:102490000CD1FFE70E990020087040F26E11C2F2D5
:1024A00000010120087000F0ABFC32E00F980078CA
:1024B000FE280DD1FFE740F24C21C2F200010120BD
:1024C000087040F26E11C2F20001042008701FE093
:1024D0009DF83300E12814DBFFE79DF83300E52881
:1024E0000FDCFFE740F2B001C2F20001087A40F0D1
:1024F0000200087240F26E11C2F20001052008705D
:1025000005E00E990120087000F07AFCFFE7FFE774
:10251000FFE740F25811C2F200010020087040F2BB
:102520005C51C2F200010870FFE700F03CBC40F2D1
:102530005810C2F200000078012840F09A80FFE7AE
:102540000F980078FE280DD1FFE740F25351C2F2F8
:1025500000010120087040F26E11C2F20001042057
:1025600008707FE00F980078FA2849D1FFE740F221
:102570005550C2F20000007840BBFFE70020C0F6D3
:1025800001000068013038B9FFE70020C0F6010003
:1025900000680130C8B9FFE70020012101F0ACFF5D
:1025A00090B1FFE740F26E11C2F200010220087004
:1025B0000E990020087000F023FC40F24D21C2F279
:1025C000000101200870FFE7FFE718E040F26E11FC
:1025D000C2F20001022008700E99002002900870DB
:1025E00000F00EFC029840F24D22C2F200020121DE
:1025F000117040F25551C2F200010870FFE730E05F
:102600000F980078FB2825D1FFE740F25550C2F221
:102610000000007860B9FFE70E990020087040F2D2
:102620006E11C2F200010120087000F0E9FB10E019
:102630000E990020087040F26E12C2F200020221D0
:10264000117040F25551C2F20001087000F0D8FB41
:10265000FFE705E00E990120087000F0D1FBFFE7CD
:10266000FFE7FFE740F25811C2F2000100200870B6
:10267000FFE798E340F25810C2F20000007801280A
:1026800075D1FFE70F980078FD280DD1FFE740F2E4
:102690006E11C2F200010320087040F25451C2F2E0
:1026A0000001012008705BE00F980078FC2844D1FD
:1026B000FFE740F24D20C2F20000007860BBFFE768
:1026C00000200B900F98D0F8010000BA0B900B98E7
:1026D0004030FFF771FE01900B9800F00DFD0146B0
:1026E0000198884217D1FFE70B9802F081FD88B16D
:1026F000FFE70020C4F20220022102F0B1F80E9997
:102700000020087040F26E11C2F20001087000F063
:1027100077FBFFE7FFE70FE040F24D21C2F2000137
:10272000002008700E99087040F26E11C2F200018C
:10273000087000F065FBFFE711E00F980078FE28B5
:1027400006D1FFE70E990020087000F059FB05E064
:102750000E990120087000F053FBFFE7FFE7FFE749
:1027600040F25811C2F2000100200870FFE71AE39E
:1027700040F25450C2F200000078012866D1FFE711
:1027800000200A9009900890079006900F98D0F8C2
:10279000010000BA0A9040F24D20C2F20000007819
:1027A000012815D1FFE70F98D0F8050000BA069070
:1027B0000F98D0F8090000BA07900F98D0F80D00D4
:1027C00000BA08900F98D0F8110000BA099010E0F4
:1027D0000F98D0F8050006900F98D0F809000790E0
:1027E0000F98D0F80D0008900F98D0F811000990BC
:1027F000FFE70F980078FD281FD1FFE70A98E0B1A6
:10280000FFE70A9806A902F069F80A9988420FD0F2
:10281000FFE70E990020087040F25451C2F2000107
:10282000087040F26E11C2F200010220087003E04D
:102830000E9901200870FFE7FFE700F0E1FA40F28F
:102840005811C2F2000100200870FFE7ABE200203F
:1028500005908DF8130040F24C20C2F20000007881
:10286000012840F0BD81FFE70F984078002840D153
:10287000FFE70F988078E0BBFFE70F9948788978E9
:1028800001F03AFE40B3FFE74FF0006042F2000172
:10289000C0F6000102F008FD88B1FFE740F2555193
:1028A000C2F20001012008700E990020087040F269
:1028B0006E11C2F20001087000F0A2FA0BE00E994E
:1028C0000120087040F26E11C2F200010020087071
:1028D00000F096FAFFE70BE00E990120087040F235
:1028E0006E11C2F200010020087000F089FAFFE7C3
:1028F0006FE10F984078012843D1FFE70F98807867
:1029000000283ED1FFE70F994878897801F090FDC3
:1029100050B3FFE742F20000C0F6000046F20001AB
:10292000C0F6000102F0C0FC88B1FFE740F255514B
:10293000C2F20001012008700E990020087040F2D8
:102940006E11C2F20001087000F05AFA0BE00E9905
:102950000120087040F26E11C2F2000100200870E0
:1029600000F04EFAFFE70BE00E990120087040F2EC
:102970006E11C2F200010020087000F041FAFFE77A
:1029800026E10F984078032840D1FFE70F98807820
:10299000E0BBFFE70F98807801F0E8FB48B3FFE762
:1029A00046F20000C0F600000021C0F6010102F06E
:1029B0007BFC88B1FFE740F25551C2F200010120D3
:1029C00008700E990020087040F26E11C2F20001EA
:1029D000087000F015FA0BE00E990120087040F223
:1029E0006E11C2F200010020087000F009FAFFE742
:1029F0000BE00E990120087040F26E11C2F2000146
:102A00000020087000F0FCF9FFE7E0E00F98407844
:102A1000002842D1FFE70F98807801283DD1FFE7D9
:102A20000F994878897801F067FD48B3FFE70020E7
:102A3000C0F6010042F20001C0F6010102F034FCD0
:102A400088B1FFE740F25551C2F200010120087041
:102A50000E990020087040F26E11C2F20001087059
:102A600000F0CEF90BE00E990120087040F26E11D3
:102A7000C2F200010020087000F0C2F9FFE70BE08D
:102A80000E990120087040F26E11C2F20001002080
:102A9000087000F0B5F9FFE798E00F98407801283A
:102AA0004CD1FFE70F988078012847D1FFE70F99B5
:102AB0004878897801F0BCFC98B3FFE742F2000047
:102AC000C0F6010046F20001C0F6010102F0ECFB85
:102AD000D0B1FFE740F25551C2F200010120087069
:102AE0000E990020087040F26E11C2F200010870C9
:102AF00040F25851C2F2000141F6E070C0F6010008
:102B0000086000F07DF90BE00E990120087040F29A
:102B10006E11C2F200010020087000F071F9FFE7A9
:102B20000BE00E990120087040F26E11C2F2000114
:102B30000020087000F064F9FFE746E00F98407845
:102B4000032841D1FFE70F98807801283CD1FFE7A7
:102B50000F98807801F00AFB48B3FFE746F20000C7
:102B6000C0F601000021C0F6020102F09DFB88B111
:102B7000FFE740F25551C2F20001012008700E99A2
:102B80000020087040F26E11C2F20001087000F0DF
:102B900037F90BE00E990120087040F26E11C2F275
:102BA00000010020087000F02BF9FFE70BE00E9900
:102BB0000120087040F26E11C2F20001002008707E
:102BC00000F01EF9FFE7FFE7FFE7FFE7FFE7FFE79A
:102BD000FFE740F24C21C2F2000100200870FFE73D
:102BE00040F25350C2F200000078012859D1FFE7AB
:102BF0000F98D0F8010000BA0590059846F2000140
:102C0000C0F60001884204D1FFE700208DF81300D0
:102C10000CE0059846F20001C0F60101884204D19B
:102C2000FFE701208DF81300FFE7FFE7059846F264
:102C30000001C0F60001884203D1FFE7059858B9AA
:102C4000FFE7059846F20001C0F60101884221D154
:102C5000FFE70598F0B1FFE79DF8130001F086FA51
:102C600060B1FFE70E990020087040F26E11C2F2C9
:102C700000010220087000F0C3F80AE00E9901205C
:102C8000087040F26E11C2F20001087000F0B8F84E
:102C9000FFE7FFE740F25351C2F200010020087045
:102CA000FFE780E09DF83300E12809D1FFE740F21B
:102CB000B001C2F20001087A40F00400087271E02D
:102CC0009DF83300E22809D1FFE740F2B001C2F2DB
:102CD0000001087A40F02000087262E09DF833009D
:102CE000E32824D1FFE740F2B001C2F20001087AE4
:102CF00040F01000087201F023FE58B1FFE70E9972
:102D00000020087040F26E11C2F20001087000F05D
:102D100077F80BE040F26E11C2F20001002008705B
:102D20000E990120087000F06BF8FFE738E09DF87D
:102D30003300E42809D1FFE740F2B001C2F20001FC
:102D4000087A40F04000087229E09DF83300E52839
:102D500024D1FFE740F2B001C2F20001087A40F04E
:102D60000800087201F06AFF58B1FFE70E990020D1
:102D7000087040F26E11C2F20001087000F040F8D5
:102D80000BE040F26E11C2F20001002008700E99B3
:102D90000120087000F034F8FFE7FFE7FFE7FFE7E6
:102DA000FFE7FFE7FFE710B080BD000083B08DF8BC
:102DB0000B00019100208DF80300FFE79DF8030050
:102DC0009DF80B10884212DAFFE70198411C01912F
:102DD00000789DF8032040F25911C2F20001885496
:102DE000FFE79DF8030001308DF80300E6E740F2AD
:102DF0005811C2F200010120087003B070470000B2
:102E000080B582B040F25B42C2F20002019240F211
:102E10006F10C2F2000000900098007801990870CD
:102E200000210123084600F045FF02B080BD0000EC
:102E300080B584B0ADF80E00029114208DF8070023
:102E400040F26650C2F200000078012844D1FFE74A
:102E500040F26550C2F200000078C0BBFFE70020DE
:102E60008DF80600FFE79DF80600BDF80E108842B9
:102E70001DDAFFE70298411C0291007802F02CF95C
:102E800020B1FFE700208DF8070003E013208DF844
:102E900007000CE040F26551C2F200010120087009
:102EA000FFE79DF8060001308DF80600DBE79DF88E
:102EB000070058B9FFE70020009000F0A7FF009836
:102EC00040F26551C2F200010870FFE703E0012003
:102ED0008DF80700FFE7FFE79DF8070004B080BD0D
:102EE00080B584B08DF80F0002918DF80720002086
:102EF0008DF806009DF80F0000F0B2F800900098E1
:102F0000B8B1FFE70098006890B9FFE70298009910
:102F100008609DF8070000990871009900208871E9
:102F2000009948710099C87101208DF80600FFE7EB
:102F3000FFE79DF8060004B080BD000080B584B0B6
:102F40008DF80F00029100208DF807009DF80F000A
:102F500000F086F800900098C8B3FFE7009800687A
:102F6000A0B3FFE70098407978B3FFE700990868BD
:102F70008979405C02990870009801688279002084
:102F8000885400998879013088710099487901380E
:102F90004871009801798079884208D1FFE700984C
:102FA000407920B1FFE7009900208871FFE7009881
:102FB000407930B9FFE70099002088710099C87105
:102FC000FFE701208DF80700FFE7FFE7FFE79DF827
:102FD000070004B080BD000080B582B08DF8070006
:102FE0008DF8061000208DF805009DF8070000F010
:102FF00037F80090009870B3FFE70098006848B376
:10300000FFE7009801794079884222DAFFE79DF8CE
:103010000600009A1168D27988540099C879013065
:10302000C871009948790130487100980179C079D8
:1030300088420AD1FFE7009801794079884204DA92
:10304000FFE700990020C871FFE701208DF8050017
:10305000FFE7FFE7FFE79DF8050002B080BD000035
:1030600082B08DF803009DF8030001280ADCFFE719
:103070009DF8031040F23C20C2F2000000EBC100BA
:10308000019002E000200190FFE7019802B0704734
:1030900080B582B040F2D811C2F200010020642253
:1030A0000192FFF71DFF019A40F27411C2F2000174
:1030B0000120FFF715FF02B080BD000080B582B08F
:1030C0008DF8070000208DF806009DF80700FFF737
:1030D000C7FF0090009850B1FFE70098006828B142
:1030E000FFE7009840798DF80600FFE7FFE79DF8BD
:1030F000060002B080BD000080B584B00390039844
:1031000046F20001C0F6000188420ED3FFE70398A3
:103110004FF6FF71C0F60001884206D8FFE7002095
:103120008DF80B0001F0BEFE16E0039846F2000198
:10313000C0F6010188420ED3FFE703984FF6FF71F6
:10314000C0F60101884206D8FFE701208DF80B0088
:1031500001F0A8FEFFE7FFE79DF80B0000EBC001C0
:1031600040F20000C2F2000000EB810001900198E3
:10317000006904B080BD000082B0019040F2B00050
:10318000C2F2000000900098007A4008C007B8BB67
:10319000FFE7019846F20001C0F6000188420FD314
:1031A000FFE701984FF6FF71C0F60001884207D88B
:1031B000FFE7009941F21110CAF6AA20C86117E092
:1031C000019846F20001C0F6010188420FD3FFE7E3
:1031D00001984FF6FF71C0F60101884207D8FFE75A
:1031E000009942F22220CAF6AA20C861FFE7FFE751
:1031F0000099042048820099C869404288610DE026
:10320000009941F21110CAF6AA20C8610099042061
:1032100048820099C86940428861FFE702B0704760
:1032200081B042F20000C0F601000090FFE7009874
:1032300045F6FF71C0F60101884211D8FFE70098FA
:103240000068B0F1A13F07D1FFE7009840F2585164
:10325000C2F200010860FFE7009804300090E6E742
:1032600001B0704782B001908DF8031000208DF8F6
:1032700002009DF803007B280AD0FFE79DF80300B9
:103280007C2805D0FFE79DF803007D280BD1FFE7E0
:1032900001999DF802207C2088549DF8020001309D
:1032A0008DF80200FFE79DF8030001999DF80220C8
:1032B00088549DF802000130C0B202B0704700008F
:1032C00080B582B001908DF8031000208DF80200C7
:1032D0009DF803007B280AD0FFE79DF803007C28B7
:1032E00005D0FFE79DF803007D280AD1FFE701988C
:1032F0007C2100F057FE9DF8020002308DF802009C
:10330000FFE701989DF8021008449DF8031000F0B3
:1033100049FE9DF8020002308DF802009DF802007F
:1033200002B080BD84B003908DF80B100020019096
:103330008DF803008DF80300FFE79DF803009DF86A
:103340000B1088420EDAFFE703989DF80310415CEA
:10335000019808440190FFE79DF8030001308DF8C3
:103360000300EAE7019840420190019804B07047D9
:1033700080B58CB084460F98DDF838E08DF82FC00A
:103380008DF82E108DF82D200A93ADF82600002020
:103390008DF825000890ADF81E00ADF81C009DF8D2
:1033A0002F1040F29000C2F2000000EB4110069096
:1033B000069800699DF82E1001EB810100EB810059
:1033C00005909DF82D008DF813009DF82F009DF8B5
:1033D0002E109DF82D2008AB00F054F9ADF81C001C
:1033E0000698C07B012840F0A880FFE7BDF81C00CC
:1033F000BDF82610884280F28880FFE70E98BDF85D
:103400001E1008447B2100F0CDFDBDF81E000230E7
:10341000ADF81E000E98BDF81E10084405990978F5
:1034200000F0C0FDBDF81E000230ADF81E000E9881
:10343000BDF81E1008449DF8131000F0B3FDBDF850
:103440001E000230ADF81E0000208DF81200FFE7CC
:103450009DF812009DF82D10884218DAFFE70E98AB
:10346000BDF81E100844059989689DF81220895CF2
:10347000FFF726FF0146BDF81E000844ADF81E0008
:10348000FFE79DF8120001308DF81200E0E7059883
:10349000C07801380390FFE7039800281CD4FFE7A9
:1034A00008980399C900FF228A401040C8408DF84F
:1034B0000B000E98BDF81E1008449DF80B10FFF786
:1034C000FFFE0146BDF81E000844ADF81E00FFE7F0
:1034D000039801380390DFE70E98BDF81E100844EA
:1034E0007D2100F05FFDBDF81E000230ADF81E002A
:1034F0000E99BDF81E20501CADF81E000020885407
:10350000BDF81E000A99088016E012208DF82500EB
:1035100006989DF8251009049DF82F2041EA022104
:103520009DF82E201144BDF81C30BDF8262042EA3B
:10353000034200F095F8FFE78DE0BDF81C00BDF8F0
:10354000261088426FDAFFE70E99BDF81E20501C46
:10355000ADF81E007B208854059800780E99BDF8C0
:103560001E20531CADF81E3088549DF813000E9990
:10357000BDF81E20531CADF81E30885400208DF875
:103580000A00FFE79DF80A009DF82D10884218DA1E
:10359000FFE70E98BDF81E100844059989689DF84C
:1035A0000A20895CFFF75EFE0146BDF81E00084454
:1035B000ADF81E00FFE79DF80A0001308DF80A0003
:1035C000E0E70598C07801380190FFE701980028EE
:1035D0001CD4FFE708980199C900FF228A401040D7
:1035E000C8408DF803000E98BDF81E1008449DF8E1
:1035F0000310FFF737FE0146BDF81E000844ADF882
:103600001E00FFE7019801380190DFE70E99BDF831
:103610001E20501CADF81E007D208854BDF81E00F1
:103620000A99088016E012208DF8250006989DF86A
:10363000251009049DF82F2041EA02219DF82E2033
:103640001144BDF81C30BDF8262042EA034200F0C8
:1036500007F8FFE7FFE79DF825000CB080BD0000EC
:1036600080B584B00390029101920398406830B114
:10367000FFE703984268029801999047FFE704B07A
:1036800080BD000080B58AB08DF827008DF8261027
:103690008DF825200893002007900421ADF81A101A
:1036A0009DF8272040F29001C2F2000101EB421187
:1036B0000591059909699DF8262002EB820201EB2C
:1036C000820104918DF80F00FFE79DF80F009DF82F
:1036D0002510884225DAFFE7049880689DF80F10CE
:1036E000405C8DF80E009DF80E2008990868104483
:1036F0000860BDF81A000130ADF81A009DF80E0000
:1037000000F0A4F830B1FFE7BDF81A000130ADF8C1
:103710001A00FFE7FFE79DF80F0001308DF80F005A
:10372000D3E70498C07800F041F80790089908683A
:103730004042079A104008600498C078013802900F
:10374000FFE70298002820D4FFE708980068029954
:10375000C900FF228A401040C8408DF80700BDF81C
:103760001A000130ADF81A009DF8070000F06EF85D
:1037700030B1FFE7BDF81A000130ADF81A00FFE7DD
:10378000FFE7029801380290DBE70598C07B01282B
:1037900007D1FFE7BDF81A0040000130ADF81A006C
:1037A000FFE7BDF81A000AB080BD000082B08DF8B6
:1037B0000700FF2000909DF80700022804DBFFE7C8
:1037C00001208DF80700FFE7FFE79DF807000138AB
:1037D0008DF80700000640B1FFE700980002009056
:1037E000009840F0FF000090EFE7009802B07047AB
:1037F00082B001908DF803108DF80220FF208DF823
:10380000010000208DF80000FFE79DF800009DF802
:103810000310884216DAFFE79DF8020001999DF82F
:1038200000201201895C884205D1FFE79DF8000065
:103830008DF8010006E0FFE79DF8000001308DF8EB
:103840000000E2E79DF8010002B0704781B08DF8FA
:1038500002009DF802007B280AD0FFE79DF80200D5
:103860007C2805D0FFE79DF802007D2804D1FFE702
:1038700001208DF8030003E000208DF80300FFE72E
:103880009DF8030001B0704783B002908DF80710D7
:103890000299C87F00F0FE00C8770299C87F00F047
:1038A000FB00C8770298407FFF2826D0FFE70299E7
:1038B0008869497F00EB0110009000990020087191
:1038C0009DF807200099C87802F0010200F0FB0083
:1038D00040EA8200C8709DF80700B0FA80F0420903
:1038E0000099C87800F0FD0040EA4200C8700099D5
:1038F000C87800F0FE00C870FFE70299FF20487703
:1039000002990020887703B07047000080B58AB024
:103910008DF827008DF8261000208DF825009DF8E1
:103920002700002800F37B81FFE79DF8271040F275
:103930009000C2F2000000EB411008900898C07F90
:103940004008C007002840F05881FFE79DF8260096
:103950007B2820D1FFE70898C07FC00788B1FFE728
:103960000898407FFF280CD0FFE70898417F01F5B9
:10397000F6021021FFF774FE08980121FFF784FF7B
:1039800005E00899C87F40F00100C877FFE7089973
:10399000FF20487730E10898C07FC007002800F07A
:1039A0002981FFE79DF826007C280CD1FFE70898C5
:1039B000C07F8008C00730B1FFE70899C87F40F09A
:1039C0000200C87715E19DF826007D2840F08C8024
:1039D000FFE708998869497F00EB01100790089874
:1039E000807F8DF81B00079880788DF81A00079863
:1039F00000799DF81B109DF81A20114488425DD172
:103A0000FFE70020059004909DF81A00012833DBA1
:103A1000FFE79DF81A00FFF7C9FE0390079880683A
:103A20009DF81B10FFF77EFC0399084004900020CE
:103A30008DF80B00FFE79DF80B009DF81A108842E7
:103A400015DAFFE7059800020590079880689DF851
:103A50001B109DF80B201144415C0598084305900C
:103A6000FFE79DF80B0001308DF80B00E3E70399A9
:103A7000059808400590FFE705980499884210D101
:103A8000FFE70798C06838B1FFE707988168C26808
:103A90009DF81B009047FFE708980021FFF7F4FE10
:103AA0000BE008980121FFF7EFFE0898417F01F530
:103AB0007021049AFFF7D4FDFFE714E008980799F6
:103AC000097909049DF81B2041EA02219DF81A207A
:103AD000114401F1FA421021FFF7C2FD08980121BB
:103AE000FFF7D2FEFFE783E00898407FFF281ED152
:103AF000FFE708998869097F9DF82620FFF778FE7F
:103B0000089948770898407FFF280FD1FFE7089869
:103B10000121FFF7B9FE08989DF827209DF826108F
:103B200041EA02420D21FFF79BFDFFE75FE00898A5
:103B3000C07F8008C007002852D1FFE79DF826000B
:103B40008DF80A0001208DF8090008998869497FDD
:103B500000EB01100190019840789DF80A1088420E
:103B60000BD0FFE701984078E0B9FFE79DF80A0025
:103B70000899897B884215DCFFE7019880789DF8D9
:103B80000910884204D0FFE70198807850B9FFE718
:103B90000899C87F40F00400C8779DF80A0008998A
:103BA00088771CE008980121FFF76EFE08989DF8C1
:103BB00027100906427F41EA02419DF8262041EA8A
:103BC0000221019B5A7893F802C06FF03F0303EB88
:103BD0008C131A430A430E21FFF742FDFFE705E06D
:103BE00008989DF8261000F02BF8FFE7FFE7FFE7A5
:103BF000FFE700E0FFE7FFE710E00898407FFF28BD
:103C000006D0FFE708989DF8261000F019F8FFE7A6
:103C10000899C87F00F0FD00C877FFE7FFE79DF82F
:103C200025000AB080BD000080B582B08DF8070085
:103C30009DF807100020FFF769FE02B080BD00006C
:103C400080B584B003908DF80B1000208DF80A0029
:103C500003998869497F00EB0110019001988278EF
:103C600000790399897F1144884213D1FFE710201E
:103C70008DF80A0003989DF80A10019A13799DF8AF
:103C80000B2042EA0342FFF7EBFC03980121FFF708
:103C9000FBFD0AE09DF80B00019A916812798854A7
:103CA0000199087901300871FFE79DF80A0004B016
:103CB00080BD000080B58CB08DF82E008DF82D10E1
:103CC0000A928DF827309DF82E009DF82D100A9A43
:103CD0009DF8273000F0E4F88DF826009DF82600C6
:103CE00000286ED1FFE79DF82E1040F29000C2F23E
:103CF000000000EB41100890089800699DF82D1015
:103D000001EB810100EB8100079008988089ADF8F4
:103D10001A000898806805900020ADF812000898F5
:103D2000C07F0009C00730B9FFE70899C87F40F09D
:103D30001000C87703E001208DF82F0061E09DF8A6
:103D40002E009DF82D109DF82720059BBDF81AE048
:103D5000EC46CCF804E0CCF800300DF11203FFF78C
:103D600007FB8DF826009DF8260098B9FFE7089814
:103D70000268BDF81200059990478DF826009DF85D
:103D8000260030B9FFE70799087940F01000087164
:103D9000FFE700E0FFE79DF8260088B1FFE70899FC
:103DA000C87F00F0EF00C87708989DF826109DF8AE
:103DB0002E309DF82D2042EA0342FFF751FCFFE729
:103DC0001AE09DF82E00002815DCFFE79DF82E1064
:103DD00040F29000C2F2000000EB41100390039803
:103DE0009DF826109DF82E309DF82D2042EA0342C2
:103DF000FFF736FCFFE7FFE79DF826008DF82F0060
:103E0000FFE79DF82F000CB080BD000080B584B0A6
:103E10008DF80F009DF80F0000283EDCFFE79DF8AD
:103E20000F1040F29000C2F2000000EB411002902F
:103E30000299C87F00F0EF00C87700208DF80700D6
:103E4000FFE79DF807000299097D884224DAFFE721
:103E5000029800699DF8071001EB810100EB8100D9
:103E60000090009800790009C00770B1FFE7009941
:103E7000087900F0EF0008710098C06820B1FFE7F2
:103E80000098C0688047FFE7FFE7FFE79DF807005D
:103E900001308DF80700D4E7FFE704B080BD0000D3
:103EA00080B586B08DF817008DF8161004928DF845
:103EB0000F3014208DF80E009DF81700002869DCE3
:103EC000FFE79DF8171040F29000C2F2000000EBEF
:103ED000411002909DF816000299097D884254DA3B
:103EE000FFE7029800699DF8161001EB810100EBD5
:103EF000810001909DF80F000199497888420FD008
:103F0000FFE701984078D8BBFFE79DF80F00B8B3F2
:103F1000FFE79DF80F000299897B884230DCFFE7BC
:103F2000002000900198006948B1FFE701980269FC
:103F300004980DF10F0190478DF80E0003E000206A
:103F40008DF80E00FFE79DF80E00C0B9FFE70020D6
:103F50000090FFE700989DF80F1088420BDAFFE70A
:103F60000498009A805C019989688854FFE700985A
:103F700001300090EEE700208DF80E00FFE703E02F
:103F80000E208DF80E00FFE703E010208DF80E00E4
:103F9000FFE703E011208DF80E00FFE79DF80E000B
:103FA00006B080BD82B001908DF803109DF803002B
:103FB00000093030019908709DF80300032161F376
:103FC0001F100199487002B07047000080B582B0A0
:103FD0000190019800F0A2F802B080BD81B08DF888
:103FE00003009DF8030040F29A51C2F200010B78E1
:103FF00040F26852C2F20002D054087801300870D2
:1040000001B0704780B582B00190FFE70198007859
:1040100040B1FFE701980078FFF7E0FF0198013019
:104020000190F3E702B080BD80B501F0C5F980BD15
:1040300080B586B005900020CDF80F000390029067
:104040000190FFE7059858B3FFE701980090FFE75C
:10405000009801280BDBFFE7009A02A9881810F8E6
:10406000010C8854FFE7009801380090F0E70598AC
:104070004CF6CD41CCF6CC41A0FB0132D20802EB8C
:104080008202A0EB420040F030008DF80800059855
:10409000A0FB0110C0080590019801300190D1E704
:1040A000019820B1FFE702A8FFF790FF06E045F274
:1040B000B440C0F60000FFF789FFFFE706B080BDFF
:1040C00080B582B00190009100F014F80198FFF7DC
:1040D00099FF3A20FFF782FF00F032F80098FFF7CF
:1040E000A7FF45F2B240C0F60000FFF76FFF02B035
:1040F00080BD000040F29A51C2F200010020087019
:104100007047000080B582B08DF807009DF8071059
:104110000120FEF761FF02B080BD000080B582B0D3
:104120000190FFE70198007838B1FFE70198411C42
:1041300001910078FFF7E6FFF4E702B080BD0000D0
:1041400080B582B040F29A50C2F20000009002782E
:1041500040F26850C2F20000002101918154FFF743
:1041600035FF00990198087002B080BD80B582B01B
:104170008DF8070000208DF8060000F003F900F02C
:104180005FF89DF8070030BBFFE703208DF80500BE
:10419000FFE79DF8050007280DDCFFE79DF8050007
:1041A0009DF8071000F09AF8FFE79DF80500013030
:1041B0008DF80500EDE746F20000C0F60000002192
:1041C000C0F6010101F070F820B1FFE701208DF881
:1041D0000600FFE72BE09DF80700012826D1FFE746
:1041E00003208DF80400FFE79DF8040007280DDC8C
:1041F000FFE79DF804009DF8071000F06FF8FFE757
:104200009DF8040001308DF80400EDE746F200004F
:10421000C0F601000021C0F6020101F045F820B10E
:10422000FFE701208DF80600FFE7FFE7FFE700F05A
:1042300007F800F03FF89DF8060002B080BD0000CE
:1042400081B000208DF80300FFE742F22000C4F2A5
:104250000200006810F00B0F01D0FFE7F5E742F213
:104260002000C4F20200006810F4F01F09D0FFE73C
:1042700042F23001C4F20201086840F4F010086014
:10428000FFE742F22000C4F202000068C0030028E9
:1042900008D5FFE742F23001C4F202014FF480304A
:1042A0000860FFE701208DF803009DF8030001B0CE
:1042B0007047000042F22800C4F20200016841F099
:1042C000010101600068C00708B9FFE7FFE7704718
:1042D00081B000900098006801B0704783B08DF8FD
:1042E0000B008DF80A1000208DF809009DF80A00D7
:1042F000F0B9FFE742F22801C4F202010191086817
:104300004EF23F02C7F6FF7210400860086840F0A6
:10431000040008609DF80B20086840EA82100860DD
:10432000086840F02000086001208DF809001FE0B7
:1043300042F22801C4F20201009108684EF23F02E5
:10434000C7F6FF721040086008680422C8F2000235
:10435000104308609DF80B20086840EA821008604E
:10436000086840F02000086001208DF80900FFE790
:1043700042F22801C4F20201002008609DF8090001
:1043800003B0704742F22800C4F202000068C00780
:10439000C0B1FFE742F20401C4F2020140F223106F
:1043A000C4F26750086048F6AB10CCF6EF500860D6
:1043B00042F22800C4F202000068C00708B1FFE71B
:1043C000FFE7FFE77047000082B00190009142F2E2
:1043D0002801C4F20201086840F002000860009859
:1043E000019A1060086820F00200086002B070476F
:1043F00040F61001C4F20241086820F03000086065
:10440000FFE740F61400C4F20240006800070028ED
:1044100001D4FFE7F5E742F20001C4F202010868A7
:1044200020F030000860086840F002000860704723
:1044300080B582B08DF807008DF8061000208DF849
:104440000500FFF79FFFFFF7FBFE9DF8060010BB7E
:10445000FFE79DF8070001308DF803009DF8070085
:104460008DF80400FFE79DF804009DF803108842D2
:104470000DDCFFE79DF807009DF80610FFF72EFF03
:10448000FFE79DF8040001308DF80400EBE7012000
:104490008DF8050027E09DF80600012822D1FFE7EE
:1044A0009DF8070001308DF801009DF807008DF898
:1044B0000200FFE79DF802009DF8011088420DDC24
:1044C000FFE79DF807009DF80610FFF707FFFFE7DD
:1044D0009DF8020001308DF80200EBE701208DF815
:1044E0000500FFE7FFE7FFF7ABFEFFF7E3FE9DF8F0
:1044F000050002B080BD000080B582B08DF80700D5
:104500008DF8061000208DF80500FFF73BFFFFF740
:1045100097FE9DF807009DF80610FFF7DFFE20B11B
:10452000FFE701208DF80500FFE7FFF789FEFFF7A1
:10453000C1FE9DF8050002B080BD000080B588B0C6
:1045400000220192079206920592049203920020A3
:10455000C4F2022002900221009100F095F9009A25
:10456000019902980392012204920591069103A9F0
:1045700000F00EF808B080BD80B540F68C41C4F262
:104580000241086840F00100086000F0D7FD80BDDE
:1045900085B00490039100200090FFE70398006825
:1045A0000099C840002800F05881FFE70398006890
:1045B000009A01219140084001900198002800F0E4
:1045C0004881FFE703984068022805D0FFE7039879
:1045D0004068122828D1FFE7049800996FF0030281
:1045E00002EA51010844006A0290009800F00700B6
:1045F00081000F2000FA01F102988843029003988D
:10460000006900F00F00009901F00701890000FA2D
:1046100001F102980843029002980499009B02EA73
:10462000530211440862FFE7049800680290009862
:104630004100032000FA01F1029888430290039898
:10464000406800F003000099490000FA01F1029867
:104650000843029002980499086003984068012872
:104660000FD0FFE70398406802280AD0FFE70398BD
:104670004068112805D0FFE70398406812282FD121
:10468000FFE704988068029000984100032000FA38
:1046900001F10298884302900398C068009949008C
:1046A00000FA01F102980843029002980499886088
:1046B0000498406802900099012000FA01F10298E4
:1046C0008843029003984068C0F30010009900FAF4
:1046D00001F1029808430290029804994860FFE7AC
:1046E00003984068032818D0FFE70498C068029038
:1046F00000984100032000FA01F1029888430290DB
:10470000039880680099490000FA01F10298084373
:10471000029002980499C860FFE70398C079C00628
:10472000002840F19580FFE7009820F0030042F256
:104730006002C4F2024280580290009800F0030028
:10474000C1000F2000FA01F10298884302900498FA
:104750004FF60041CBF6FD510840800A009901F068
:104760000301C90000FA01F102980843029002987F
:10477000009921F00301885042F20000C4F2024087
:10478000006802900199029888430290039880790A
:10479000C006002805D5FFE701990298084302905A
:1047A000FFE7029842F20001C4F20241086042F2BF
:1047B0000400C4F202400068029001990298884304
:1047C0000290039880798006002805D5FFE70199BB
:1047D000029808430290FFE7029842F20401C4F2F3
:1047E0000241086042F28400C4F202400068029074
:1047F00001990298884302900398807980070028E5
:1048000005D5FFE70199029808430290FFE7029857
:1048100042F28401C4F20241086042F28000C4F214
:104820000240006802900199029888430290039820
:104830008079C00728B1FFE70199029808430290E8
:10484000FFE7029842F28001C4F202410860FFE7EC
:10485000FFE7009801300090A0E605B07047000027
:1048600083B00290ADF80610029840690090009A5B
:10487000BDF8060002EA0001904340EA01400299B7
:10488000886103B07047000082B00190ADF802105B
:104890008DF801209DF8010028B1FFE7BDF8020066
:1048A0000199886104E0BDF8020001998862FFE780
:1048B00002B0704780B5FFF79BFDFEF7B1FCFEF735
:1048C000E7FB00F029FDFFF757FE00F057FC00F072
:1048D0009BFA00F089F900F0E5FA80BD80B586B05A
:1048E0000490039100200290019072B6FFF74AFDF8
:1048F000FFF7A6FCFFE70198032810D8FFE704980C
:1049000003990A1D03920968FFF75EFD04980430BD
:10491000049004980290019801300190EBE7FFF7B2
:104920008FFCFFF7C7FC62B6029818B1FFE7029848
:10493000059002E000200590FFE7059806B080BDD5
:1049400080B582B040F2B000C2F2000001900020B9
:104950008DF803000198007A4008C007002848D06D
:10496000FFE700F06BF9002842D0FFE70198007ADA
:104970000009C007D8B3FFE700F0F4F90020FEF704
:10498000FBFB00F011F988B3FFE740F25D50C2F283
:1049900000000078012828D1FFE702200121FFF75D
:1049A000ABFD88B1FFE744F20000C0F6010046F21B
:1049B0000001C0F6010100F077FC20B1FFE7012003
:1049C0008DF80300FFE7FFE740F25D51C2F20001FE
:1049D000002008700199087A00F0EF000872019930
:1049E000087A00F0FD000872FFE7FFE7FFE7FFE746
:1049F000FFE79DF8030002B080BD000080B582B0E3
:104A0000019040F2B000C2F200000090019842F222
:104A10000001C0F6010188420FD3FFE7019843F679
:104A2000CF71C0F60101884207D8FFE740F2585025
:104A3000C2F200000068019053E0019843F6D17182
:104A4000C0F60101884212D3FFE7019844F2000149
:104A5000C0F6010188420AD8FFE740F25851C2F27D
:104A6000000143F6E070C0F60100086038E00198EC
:104A700044F20001C0F6010188420FD3FFE701981C
:104A800045F68F71C0F60101884207D8FFE740F272
:104A90005850C2F200000068019020E0019845F6ED
:104AA0009071C0F60101884218D3FFE7019846F2E1
:104AB0000001C0F60101884210D8FFE700F0BEF8FF
:104AC00058B1FFE740F25851C2F2000141F6E070E0
:104AD000C0F6010008600190FFE7FFE7FFE7FFE78E
:104AE000FFE7019802B080BD83B08DF80B00019103
:104AF00000200090FFE700989DF80B1088420FDA25
:104B0000FFE70198411C01910078009A40F25E5144
:104B1000C2F200018854FFE7009801300090EAE7F4
:104B200040F25C51C2F200010120087003B07047EE
:104B300080B582B0019000910098FFF7C9FB019900
:104B4000C86000980430FFF7C3FB01990882009801
:104B50000430FFF7BDFB000C019948820098083033
:104B6000FFF7B6FB0199087500980C30FFF7B0FB12
:104B70000199886100981030FFF7AAFB0199C8617C
:104B800000981430FFF7A4FB0199086200981830D0
:104B9000FFF79EFB0199486200981C30FFF798FBD5
:104BA0000199886202B080BD80B582B000208DF886
:104BB000070040F2B001C2F20001009140F25850EB
:104BC000C2F2000000682030009A52680C3100F0F8
:104BD0000FF820B1FFE701208DF80700FFE79DF8EF
:104BE000070002B080BD000080B500F0A1F880BDD4
:104BF00080B584B003900291019272B6FFF7C2FBB8
:104C0000FFF71EFBFFE7039802990A1D029209684D
:104C1000FFF7DAFB03980430039001980138019004
:104C2000FFE701980028EED1FFE7FFF709FBFFF748
:104C300041FB62B6039804B080BD000080B582B02D
:104C400040F2B000C2F20000019000208DF8030095
:104C500001210846FFF750FCF8B1FFE742F20000DF
:104C6000C0F6010044F20001C0F6010100F01CFB97
:104C700090B1FFE740F25851C2F2000141F6E070F6
:104C8000C0F60100086040F25D51C2F2000101204F
:104C900008708DF80300FFE7FFE70198007A4008ED
:104CA000C007002840D0FFE70198007AC008C0077D
:104CB000C8B3FFE700208DF80300FFF775FF88B346
:104CC000FFE740F25D50C2F200000078012828D1D1
:104CD000FFE702200121FFF70FFC08B3FFE744F2D2
:104CE0000000C0F6010046F20001C0F6010100F02C
:104CF000DBFAA0B1FFE70199087A00F0F70008722B
:104D00000199087A00F0FD00087240F25D51C2F28C
:104D100000010020087001208DF80300FFE7FFE785
:104D2000FFE7FFE7FFE7FFE79DF8030002B080BD64
:104D300080B582B040F2B000C2F20000019001984C
:104D4000007AC00760B1FFE740F25850C2F200009D
:104D5000016840F2B000C2F20000FFF7E9FEFFE791
:104D600002B080BD81B040F2B000C2F200000090FD
:104D70000098007A4008C007E8B9FFE70098007D76
:104D8000FE2805DCFFE70099087D0130087511E079
:104D90000099002008750098008AFE2805DCFFE7CE
:104DA0000099088A0130088203E0009900200882F7
:104DB000FFE7FFE705E000990020087500990882E9
:104DC000FFE701B07047000080B584B00390029106
:104DD00040F2DC00C2F2000001900398FFF778FA7D
:104DE000019988810398FFF773FA000C0199C88133
:104DF00003980430FFF76CFA0199086103980830B2
:104E00000199486104B080BD80B500F001F880BD13
:104E100080B582B000208DF80700FFE79DF80700FD
:104E200000281EDCFFE740F2DC00C2F20000009028
:104E3000009881790120B0EBD11F0BD1FFE70098DA
:104E400000680021C0F6010108439DF80710FFF734
:104E5000BBFFFFE7FFE79DF8070001308DF8070073
:104E6000DCE702B080BD000040F62001C4F2024140
:104E7000086840F0010008607047000040F6240117
:104E8000C4F20241086820F0010008607047000089
:104E900040F62401C4F20241086840F001000860B5
:104EA0007047000080B582B000208DF80700FFE752
:104EB0009DF80700012849D8FFE79DF8070000EB9F
:104EC000C00140F20000C2F2000000EB810000903F
:104ED00000980068FFF7FCF90099486000980068A6
:104EE0000430FFF7F5F900998860009800680830F1
:104EF000FFF7EEF90099C860009800680C30FFF7E2
:104F0000E7F900990861009800681030FFF7E0F9B0
:104F100000994861009800681430FFF7D9F90099AA
:104F20008861009800681830FFF7D2F90099C861CD
:104F3000009800681C30FFF7CBF900990862FFE782
:104F40009DF8070001308DF80700B1E702B080BD81
:104F500081B04EF68851CEF20001086840F470002E
:104F6000086040F60042C4F202420120106040F6A0
:104F70001C41C4F202410020086040F62041C4F206
:104F80000241086011684EF6E323CFF6E223194090
:104F9000116040F62841C4F20241086040F62C41FD
:104FA000C4F20241086040F63443C4F2024340F2C6
:104FB0008021C0F20111196040F63843C4F2024367
:104FC000186040F63C43C4F20243196040F6404189
:104FD000C4F202410860116821F48021116040F69A
:104FE0005041C4F2024108604EF60851CEF2000171
:104FF00042F20000C0F60000086042F21800C4F25D
:105000000200006800F0604000900098B0F1604F2E
:1050100005D0FFE70098B0F1404F24D1FFE742F2FE
:105020001C00C4F202000068C00778B1FFE742F23A
:105030000C01C4F2020142F63B20C0F619000860E0
:1050400046F67F60C4F65D400860FFE742F21C014F
:10505000C4F20201086840F002000860086840F0ED
:1050600001000860FFE701B07047000080B582B022
:1050700072B644F61C00C4F20000006880060028E6
:105080000DD5FFE744F62400C4F2000000688DF857
:1050900007009DF807100020FDF79EFFFFE762B6AE
:1050A00002B080BD80B582B0FFE70020FEF706F8B1
:1050B00078B1FFE700208DF807000DF10701FDF73B
:1050C0003DFF28B1FFE79DF80700FEF7ADFDFFE7C4
:1050D000EBE702B080BD000081B08DF80300002036
:1050E0008DF8020044F61C00C4F2000000680006BF
:1050F00000281ED5FFE79DF8030044F62801C4F2FE
:1051000000010860FFE744F61C00C4F200000068DC
:105110004006002801D4FFE7F5E744F62001C4F279
:105120000001086840F04000086001208DF802008E
:10513000FFE79DF8020001B07047000080B586B01F
:1051400000200590049003900290019040F69C424C
:10515000C4F202424FF480211160182101910390A2
:105160000D2105910221029104900020C4F2022039
:1051700001A9FFF70DFA06B080BD000080B544F626
:105180000001C4F200014FF00050086044F608022C
:10519000C4F200024FF08840106008680860086898
:1051A00040F40040086044F60C02C4F2000240F2F1
:1051B00053401060086840F00C000860086840F038
:1051C0002000086044F60402C4F20002106820F4D3
:1051D00040501060086840F0010008603C2000F07A
:1051E00083F840F26651C2F200010120087080BDD0
:1051F00080B586B0049040F2B000C2F20000039087
:1052000000208DF80B00FFF7ADFD0498FDF7B4FF0B
:1052100040F25850C2F2000001900068FFF7EEFB28
:10522000019908600398007A4008C00798BBFFE71F
:10523000FFF7BAFC70B3FFE740F25D50C2F2000026
:105240000078012822D1FFE702200121FFF754F95D
:10525000B8B1FFE744F20000C0F6010046F20001D9
:10526000C0F6010100F020F850B1FFE740F25D51B7
:10527000C2F200010020087001208DF80B00FFE74A
:10528000FFE79DF80B008DF8170009E001208DF86D
:105290000B00FFE7FFE79DF80B008DF81700FFE715
:1052A0009DF8170006B080BD84B00290019102986D
:1052B0000090FFE70098019988420DD2FFE700981F
:1052C0000068013020B1FFE700208DF80F0007E0F3
:1052D000009804300090EDE701208DF80F00FFE703
:1052E0009DF80F0004B0704781B0ADF80200BDF921
:1052F000020000280ED4FFE7BDF9021001F01F02E2
:10530000012090404A094EF20011CEF2000141F80E
:105310002200FFE701B0704780B582B0FFF732F896
:10532000FFF7B6FD40F68841C4F2024101910868DA
:1053300040F080500860FFF797FD0199086820F061
:1053400080500860FFF79AFDFEF7B4FF02B080BD01
:1053500080B582B001900091FFF79AFD40F6884138
:10536000C4F20241086840F080500860019800686B
:10537000009A1060086820F080500860FFF77EFDFA
:1053800002B080BD80B582B001900091FFF780FD32
:1053900040F68841C4F20241086840F0805008603D
:1053A0000098019A1060086820F080500860FFF7AC
:1053B00065FD02B080BD000080B582B0FFE701202E
:1053C000FDF77CFE80B1FFE700208DF8070001208B
:1053D0000DF10701FDF7B2FD28B1FFE79DF80700C9
:1053E000FFF77AFEFFE7EAE702B080BD81B0002058
:1053F0000090FFE7009844F23F21C0F20F0188427D
:1054000005D8FFE7FFE7009801300090F2E701B010
:105410007047000080B584B000200390FFF74AFA7F
:10542000FFF78CF840F25E50C2F20000029040F2AA
:105430007011C2F20001009146F20440C4F2030070
:10544000FFF786FF00980068B0F10B3F13D1FFE72C
:1054500040F26F10C2F20000019001990C20087018
:10546000FDF7CEFC46F20440C4F203004FF0FF31DA
:10547000FFF788FFFFE7FFE7FFF7B8FFFFF712FE30
:10548000FCF7C4FFFEF7D0FDFFF7B0FFF4E7F1EE45
:10549000100A4FF6FF71C0F2C03120EA010040F05F
:1054A0004070E1EE100A70474572726F725F6E6F66
:1054B00074000A0030000000D854000800000020EA
:1054C000F800000094220008D0550008F8000020E1
:1054D000A80A0000B02200080060000800000000D8
:1054E00000000000000000000000000000000000BC
:1054F0000000000000000000000000000060010843
:10550000000000000000000000000000000000009B
:10551000000000000000000000000000000000008B
:10552000B3150100000000004D030020AD2D000860
:10553000D3F701000000000063030020E94A0008DF
:10554000B5010001000000005B0400200000000025
:1055500000000000D5F70001000000005C040020FE
:105560000000000000000000312E0008F1230008B8
:105570004E020020FF00FF00680000200200000033
:105580004800002002FF00000000000008000000AA
:1055900001000000A1A1A1A1000000000000000086
:1055A00000000000000000000000000000000000FB
:1055B000000000000000000010008000000000005B
:1055C00000000000000000000000000000000000DB
:040000050800225974
:00000001FF
