:020000040800F2
:1020000050200020F92200080123000803230008C3
:10201000052300080723000809230008000000002A
:102020000000000000000000000000000D23000878
:102030000F230008000000001123000813230008EC
:1020400015230008152300081523000800000000D0
:1020500015230008152300081523000800000000C0
:1020600015230008152300080000000015230008B0
:102070001523000815230008152300081523000860
:102080001523000815230008152300081523000850
:102090001523000815230008152300081523000840
:1020A0001523000815230008152300081523000830
:1020B0001523000815230008152300081523000820
:1020C0001523000815230008152300081523000810
:1020D0000000000015230008152300081523000840
:1020E00015230008152300081523000815230008F0
:1020F0001523000815230008152300080000000020
:10210000000000001523000815230008152300080F
:1021100015230008152300081523000815230008BF
:1021200015230008152300081523000815230008AF
:10213000C957000800000000000000001523000837
:10214000152300080000000000000000000000004F
:10215000000000000000000015230008000000003F
:1021600000000000000000001523000815230008EF
:10217000000000000000000000000000000000005F
:10218000000000000000000000000000000000004F
:10219000000000000000000000000000000000003F
:1021A00000000000000000001523000815230008AF
:1021B000152300081523000815230008152300081F
:1021C000152300081523000800000000000000008F
:1021D00000000000000000000000000015230008BF
:1021E00015230008000000000000000000000000AF
:1021F00000000000000000000000000000000000DF
:10220000000000001523000815230008000000004E
:10221000000000001523000800000000000000007E
:10222000000000000000000000000000152300086E
:10223000152300080000000000000000000000005E
:10224000000000000000000000000000152300084E
:10225000152300081523000800F002F800F03CF8F0
:102260000AA090E8000C82448344AAF10107DA45F1
:1022700001D100F031F8AFF2090EBAE80F0013F007
:10228000010F18BFFB1A43F0010318479C3A0000E6
:10229000BC3A0000103A24BF78C878C1FAD8520777
:1022A00024BF30C830C144BF04680C6070470000D0
:1022B0000023002400250026103A28BF78C1FBD84F
:1022C000520728BF30C148BF0B6070471FB503F0ED
:1022D00015FD1FBD10B510BD00F033F81146FFF716
:1022E000F5FF03F08BFC00F051F803B4FFF7F2FFA9
:1022F00003BC00F059F800000A4880470A4800472C
:10230000FEE7FEE7FEE7FEE7FEE7FEE7FEE7FEE7A5
:10231000FEE7FEE7FEE7000004480549054A064BD4
:1023200070470000AD56000859220008501A0020DE
:1023300050200020501C0020501C00207047704787
:102340007047754600F02CF8AE46050069465346C6
:1023500020F00700854618B020B5FFF7DDFFBDE887
:1023600020404FF000064FF000074FF000084FF0FC
:10237000000BAC46ACE8C009ACE8C009ACE8C00949
:10238000ACE8C00921F007018D46704710B504463E
:10239000AFF300802046BDE81040FFF7A6BF000065
:1023A00000487047E000002001491820ABBEFEE75E
:1023B000260002007047000080B584B00390002022
:1023C00002900190FFE703980068013058B1FFE7E1
:1023D000039802F00BFA0146019808440190039813
:1023E00004300390EFE70198404204B080BD000044
:1023F00080B582B001900091019945F61650C0F663
:10240000000001F0B1FC009945F61E50C0F6000036
:1024100001F0AAFC02B080BD80B58EB040F2401041
:10242000C2F200000D9040F24110C2F200000C9088
:1024300040F25710C2F200000B9040F25610C2F268
:102440000000007801460291042800F2FD82029902
:10245000DFE811F005003A008600E7002E010D9834
:102460000078C00778B3FFE70C980078F5280CD106
:10247000FFE70B990020087040F25611C2F20001EC
:102480000120087000F010FB17E00C980078FE287F
:102490000CD1FFE70D99087840F01000087040F269
:1024A0005611C2F200010420087005E00B990120CA
:1024B000087000F0F9FAFFE7FFE70D99087800F0DF
:1024C000FE000870FFE7BFE20D980078C007002803
:1024D00045D0FFE70C980078FE280CD1FFE70D9956
:1024E000087840F02000087040F25611C2F2000156
:1024F000042008702DE00C980078FB2822D1FFE71B
:102500000D980078C008C00750B9FFE70B9900206C
:10251000087040F25611C2F20001012008700EE06E
:102520000B990020087040F25611C2F200010220FF
:1025300008700D99087800F0F7000870FFE700F0C8
:10254000B3FA05E00B990120087000F0ADFAFFE73F
:10255000FFE70D99087800F0FE000870FFE773E2CE
:102560000D980078C00700285AD0FFE70C98007833
:10257000FD280CD1FFE740F25611C2F20001032002
:1025800008700D99087840F00200087042E00C983D
:102590000078FC282BD1FFE70D9800788008C00751
:1025A00020BBFFE70C98D0F8010000BA0A900A9807
:1025B0004030FFF701FF01900A9800F0F1FB01465F
:1025C0000198884211D1FFE70A9803F0BFF958B18A
:1025D000FFE70B990020087040F25611C2F200018B
:1025E000087000F061FAFFE7FFE7FFE711E00C98E1
:1025F0000078FE2806D1FFE70B990020087000F054
:1026000053FA05E00B990120087000F04DFAFFE73E
:10261000FFE7FFE70D99087800F0FE000870FFE77C
:1026200012E20D9800784008C00700283FD0FFE76D
:102630000020099008900790069005900C98D0F81B
:10264000010000BA09900C98D0F8050005900C988C
:10265000D0F8090006900C98D0F80D0007900C985F
:10266000D0F811000890099805A9042202F09AF800
:102670000999884209D0FFE70B99002008700D994D
:10268000087800F0FD00087003E00B990120087045
:10269000FFE740F25611C2F200010220087000F07C
:1026A00003FA0D99087800F0FE000870FFE7CBE10F
:1026B000002004908DF80F000D9800780009C007E5
:1026C000002800F06781FFE70C98407890BBFFE797
:1026D0000C98807870BBFFE70C99487889780122C4
:1026E00001F0C4FF18B3FFE74FF0006042F20001B1
:1026F000C0F6000103F088F970B1FFE70D99087882
:1027000040F0080008700B990020087040F2561144
:10271000C2F20001087009E00B990120087040F234
:102720005611C2F2000100200870FFE7FFE700F039
:10273000BBF929E10C984078012834D1FFE70C98C7
:10274000807880BBFFE70C9948788978022201F0F5
:102750008DFF28B3FFE742F20000C0F6000046F20A
:102760000001C0F6000103F04FF970B1FFE70D99C9
:10277000087840F0080008700B990020087040F2BB
:102780005611C2F20001087009E00B99012008708F
:1027900040F25611C2F2000100200870FFE7FFE787
:1027A00000F082F9EFE00C984078032833D1FFE77E
:1027B0000C98807878BBFFE70C99487889780522D7
:1027C00001F054FF20B3FFE746F20000C0F600001E
:1027D0000021C0F6010103F017F970B1FFE70D9970
:1027E000087840F0080008700B990020087040F24B
:1027F0005611C2F20001087009E00B99012008701F
:1028000040F25611C2F2000100200870FFE7FFE716
:1028100000F04AF9B6E00C984078A0BBFFE70C98AE
:10282000807801282FD1FFE70C9948788978012218
:1028300001F01CFF20B3FFE70020C0F6010042F2C8
:102840000001C0F6010103F0DFF870B1FFE70D9958
:10285000087840F0080008700B990020087040F2DA
:102860005611C2F20001087009E00B9901200870AE
:1028700040F25611C2F2000100200870FFE7FFE7A6
:1028800000F012F97DE00C98407801283ED1FFE776
:102890000C988078012839D1FFE70C99487889781D
:1028A000022201F0E3FE70B3FFE742F20000C0F63F
:1028B000010046F20001C0F6010103F0A5F8B8B12D
:1028C000FFE70D99087840F0080008700B99002088
:1028D000087040F25611C2F20001087040F2B001D7
:1028E000C2F2000141F6E070C0F60100086009E0A4
:1028F0000B990120087040F25611C2F2000100202D
:102900000870FFE7FFE700F0CFF839E00C98407857
:10291000032834D1FFE70C98807801282FD1FFE7F6
:102920000C9948788978052201F0A0FE20B3FFE7D2
:1029300046F20000C0F601000021C0F6020103F0DB
:1029400063F870B1FFE70D99087840F0080008704F
:102950000B990020087040F25611C2F20001087075
:1029600009E00B990120087040F25611C2F20001F3
:1029700000200870FFE7FFE700F096F8FFE7FFE7A9
:10298000FFE7FFE7FFE7FFE70D99087800F0EF00AA
:102990000870FFE70D9800784009C007002852D062
:1029A000FFE70C98D0F8010000BA0490049846F2B2
:1029B0000001C0F60001884204D1FFE700208DF835
:1029C0000F000CE0049846F20001C0F601018842B5
:1029D00004D1FFE701208DF80F00FFE7FFE704981F
:1029E00046F20001C0F60001884208D0FFE70498D3
:1029F00046F20001C0F6010188421ED1FFE79DF8B2
:102A00000F100320052201F031FE50B1FFE70B99B2
:102A10000020087040F25611C2F200010220087036
:102A200008E00B990120087040F25611C2F2000133
:102A30000870FFE700F038F8FFE70D99087800F01C
:102A4000DF000870FFE7FFE70EB080BD84B08DF8AF
:102A50000F00029140F24010C2F2000001900020ED
:102A60008DF80300FFE79DF803009DF80F108842E2
:102A700012DAFFE70298411C029100789DF80320CA
:102A800040F24111C2F200018854FFE79DF80300B3
:102A900001308DF80300E6E70199087840F0010065
:102AA000087004B07047000080B582B040F2067232
:102AB000C2F20002019240F25710C2F200000090F0
:102AC000009800780199087000210123084600F061
:102AD00045FF02B080BD000080B584B0ADF80E00A7
:102AE000029114208DF8070041F61520C2F2000073
:102AF0000078012848D1FFE741F61620C2F2000015
:102B00000078C007D8BBFFE70020ADF80400FFE75E
:102B1000BDF80400BDF80E1088421FDAFFE70298E6
:102B2000411C0291007802F085FE20B1FFE70020F1
:102B30008DF8070003E013208DF807000EE041F642
:102B40001621C2F20001087840F001000870FFE78A
:102B5000BDF804000130ADF80400D9E79DF8070086
:102B600060B9FFE7002000F0A5FF41F61621C2F290
:102B70000001087800F0FE000870FFE703E0012084
:102B80008DF80700FFE7FFE79DF8070004B080BD60
:102B900080B584B08DF80F0002918DF807200020D9
:102BA0008DF806009DF80F0000F0B2F80090009834
:102BB000B8B1FFE70098006890B9FFE70298009964
:102BC00008609DF80700009908710099002088713D
:102BD000009948710099C87101208DF80600FFE73F
:102BE000FFE79DF8060004B080BD000080B584B00A
:102BF0008DF80F00029100208DF807009DF80F005E
:102C000000F086F800900098C8B3FFE700980068CD
:102C1000A0B3FFE70098407978B3FFE70099086810
:102C20008979405C029908700098016882790020D7
:102C30008854009988790130887100994879013861
:102C40004871009801798079884208D1FFE700989F
:102C5000407920B1FFE7009900208871FFE70098D4
:102C6000407930B9FFE70099002088710099C87158
:102C7000FFE701208DF80700FFE7FFE7FFE79DF87A
:102C8000070004B080BD000080B582B08DF8070059
:102C90008DF8061000208DF805009DF8070000F063
:102CA00037F80090009870B3FFE70098006848B3C9
:102CB000FFE7009801794079884222DAFFE79DF822
:102CC0000600009A1168D27988540099C8790130B9
:102CD000C871009948790130487100980179C0792C
:102CE00088420AD1FFE7009801794079884204DAE6
:102CF000FFE700990020C871FFE701208DF805006B
:102D0000FFE7FFE7FFE79DF8050002B080BD000088
:102D100082B08DF803009DF8030001280ADCFFE76C
:102D20009DF8031040F2C020C2F2000000EBC10089
:102D3000019002E000200190FFE7019802B0704787
:102D400080B540F2C011C2F200010020FF22FFF75F
:102D50001FFF40F25C11C2F2000101206422FFF764
:102D600017FF80BD80B582B08DF8070000208DF878
:102D700006009DF80700FFF7CBFF0090009850B1C8
:102D8000FFE70098006828B1FFE7009840798DF8C8
:102D90000600FFE7FFE79DF8060002B080BD0000D7
:102DA00080B584B00390039846F20001C0F600019C
:102DB00088420ED3FFE703984FF6FF71C0F600017B
:102DC000884206D8FFE700208DF80B0002F018FCBF
:102DD00016E0039846F20001C0F6010188420ED3C6
:102DE000FFE703984FF6FF71C0F60101884206D84D
:102DF000FFE701208DF80B0002F002FCFFE7FFE780
:102E00009DF80B0000EBC00140F20000C2F2000090
:102E100000EB810001900198006904B080BD0000C2
:102E200082B0019040F2B400C2F20000009000981D
:102E3000007A4008C007B8BBFFE7019846F20001DE
:102E4000C0F6000188420FD3FFE701984FF6FF71EB
:102E5000C0F60001884207D8FFE7009941F211103F
:102E6000CAF6AA20C86117E0019846F20001C0F630
:102E7000010188420FD3FFE701984FF6FF71C0F6BA
:102E80000101884207D8FFE7009942F22220CAF6E2
:102E9000AA20C861FFE7FFE7009904204882009953
:102EA000C869404288610DE0009941F21110CAF6EC
:102EB000AA20C8610099042048820099C86940424C
:102EC0008861FFE702B0704781B042F20000C0F6AF
:102ED00001000090FFE7009845F6FF71C0F6010180
:102EE000884211D8FFE700980068B0F1C23F07D1CF
:102EF000FFE7009840F2B001C2F200010860FFE76E
:102F0000009804300090E6E701B0704782B001906D
:102F10008DF8031000208DF802009DF803007B2837
:102F20000AD0FFE79DF803007C2805D0FFE79DF855
:102F300003007D280BD1FFE701999DF802207C203A
:102F400088549DF8020001308DF80200FFE79DF8DB
:102F5000030001999DF8022088549DF80200013079
:102F6000C0B202B07047000080B582B001908DF809
:102F7000031000208DF802009DF803007B280AD082
:102F8000FFE79DF803007C2805D0FFE79DF80300CC
:102F90007D280AD1FFE701987C2100F057FE9DF8BB
:102FA000020002308DF80200FFE701989DF8021040
:102FB00008449DF8031000F049FE9DF8020002301D
:102FC0008DF802009DF8020002B080BD84B003902D
:102FD0008DF80B10002001908DF803008DF8030090
:102FE000FFE79DF803009DF80B1088420EDAFFE71B
:102FF00003989DF80310415C019808440190FFE795
:103000009DF8030001308DF80300EAE70198404283
:103010000190019804B0704780B58CB084460F9839
:10302000DDF838E08DF82FC08DF82E108DF82D20AA
:103030000A93ADF8260000208DF825000890ADF821
:103040001E00ADF81C009DF82F1040F29000C2F257
:10305000000000EB41100690069800699DF82E10C4
:1030600001EB810100EB810005909DF82D008DF8AA
:1030700013009DF82F009DF82E109DF82D2008AB11
:1030800000F054F9ADF81C000698C07B012840F010
:10309000A880FFE7BDF81C00BDF82610884280F22A
:1030A0008880FFE70E98BDF81E1008447B2100F0D1
:1030B000CDFDBDF81E000230ADF81E000E98BDF823
:1030C0001E1008440599097800F0C0FDBDF81E00E7
:1030D0000230ADF81E000E98BDF81E1008449DF891
:1030E000131000F0B3FDBDF81E000230ADF81E0055
:1030F00000208DF81200FFE79DF812009DF82D10BA
:10310000884218DAFFE70E98BDF81E1008440599AA
:1031100089689DF81220895CFFF726FF0146BDF8FB
:103120001E000844ADF81E00FFE79DF812000130B4
:103130008DF81200E0E70598C07801380390FFE7AA
:10314000039800281CD4FFE708980399C900FF22C0
:103150008A401040C8408DF80B000E98BDF81E1034
:1031600008449DF80B10FFF7FFFE0146BDF81E0056
:103170000844ADF81E00FFE7039801380390DFE72D
:103180000E98BDF81E1008447D2100F05FFDBDF8CB
:103190001E000230ADF81E000E99BDF81E20501C16
:1031A000ADF81E0000208854BDF81E000A99088062
:1031B00016E012208DF8250006989DF825100904C8
:1031C0009DF82F2041EA02219DF82E201144BDF8E0
:1031D0001C30BDF8262042EA034200F095F8FFE7D4
:1031E0008DE0BDF81C00BDF8261088426FDAFFE7BD
:1031F0000E99BDF81E20501CADF81E007B2088548F
:10320000059800780E99BDF81E20531CADF81E30AD
:1032100088549DF813000E99BDF81E20531CADF87C
:103220001E30885400208DF80A00FFE79DF80A0040
:103230009DF82D10884218DAFFE70E98BDF81E1091
:103240000844059989689DF80A20895CFFF75EFEAD
:103250000146BDF81E000844ADF81E00FFE79DF8CA
:103260000A0001308DF80A00E0E70598C0780138BF
:103270000190FFE7019800281CD4FFE70898019906
:10328000C900FF228A401040C8408DF803000E9804
:10329000BDF81E1008449DF80310FFF737FE0146E5
:1032A000BDF81E000844ADF81E00FFE70198013884
:1032B0000190DFE70E99BDF81E20501CADF81E00EE
:1032C0007D208854BDF81E000A99088016E012205F
:1032D0008DF8250006989DF8251009049DF82F20EB
:1032E00041EA02219DF82E201144BDF81C30BDF8A2
:1032F000262042EA034200F007F8FFE7FFE79DF8C7
:1033000025000CB080BD000080B584B00390029110
:1033100001920398406830B1FFE703984268029831
:1033200001999047FFE704B080BD000080B58AB0E6
:103330008DF827008DF826108DF8252008930020A1
:1033400007900421ADF81A109DF8272040F2900153
:10335000C2F2000101EB42110591059909699DF83E
:10336000262002EB820201EB820104918DF80F000E
:10337000FFE79DF80F009DF82510884225DAFFE74A
:10338000049880689DF80F10405C8DF80E009DF841
:103390000E200899086810440860BDF81A00013032
:1033A000ADF81A009DF80E0000F0A4F830B1FFE768
:1033B000BDF81A000130ADF81A00FFE7FFE79DF8ED
:1033C0000F0001308DF80F00D3E70498C07800F0AB
:1033D00041F80790089908684042079A1040086031
:1033E0000498C07801380290FFE70298002820D4A2
:1033F000FFE7089800680299C900FF228A40104040
:10340000C8408DF80700BDF81A000130ADF81A0069
:103410009DF8070000F06EF830B1FFE7BDF81A0024
:103420000130ADF81A00FFE7FFE70298013802907B
:10343000DBE70598C07B012807D1FFE7BDF81A003C
:1034400040000130ADF81A00FFE7BDF81A000AB0DD
:1034500080BD000082B08DF80700FF2000909DF82D
:103460000700022804DBFFE701208DF80700FFE7D3
:10347000FFE79DF8070001388DF80700000640B10E
:10348000FFE7009800020090009840F0FF000090D5
:10349000EFE7009802B0704782B001908DF80310FA
:1034A0008DF80220FF208DF8010000208DF800002B
:1034B000FFE79DF800009DF80310884216DAFFE749
:1034C0009DF8020001999DF800201201895C884254
:1034D00005D1FFE79DF800008DF8010006E0FFE749
:1034E0009DF8000001308DF80000E2E79DF8010032
:1034F00002B0704781B08DF802009DF802007B2871
:103500000AD0FFE79DF802007C2805D0FFE79DF870
:1035100002007D2804D1FFE701208DF8030003E0BD
:1035200000208DF80300FFE79DF8030001B070470D
:1035300083B002908DF807100299C87F00F0FE005A
:10354000C8770299C87F00F0FB00C8770298407FD7
:10355000FF2826D0FFE702998869497F00EB011018
:1035600000900099002008719DF807200099C87804
:1035700002F0010200F0FB0040EA8200C8709DF8F2
:103580000700B0FA80F042090099C87800F0FD0009
:1035900040EA4200C8700099C87800F0FE00C87088
:1035A000FFE70299FF20487702990020887703B04F
:1035B0007047000080B58AB08DF827008DF826107E
:1035C00000208DF825009DF82700002800F37B815E
:1035D000FFE79DF8271040F29000C2F2000000EBD8
:1035E000411008900898C07F4008C007002840F0AC
:1035F0005881FFE79DF826007B2820D1FFE7089837
:10360000C07FC00788B1FFE70898407FFF280CD033
:10361000FFE70898417F01F5F6021021FFF774FEDD
:1036200008980121FFF784FF05E00899C87F40F062
:103630000100C877FFE70899FF20487730E1089834
:10364000C07FC007002800F02981FFE79DF8260011
:103650007C280CD1FFE70898C07F8008C00730B1F4
:10366000FFE70899C87F40F00200C87715E19DF890
:1036700026007D2840F08C80FFE708998869497F03
:1036800000EB011007900898807F8DF81B000798C9
:1036900080788DF81A00079800799DF81B109DF826
:1036A0001A20114488425DD1FFE700200590049064
:1036B0009DF81A00012833DBFFE79DF81A00FFF799
:1036C000C9FE0390079880689DF81B10FFF77EFCE9
:1036D00003990840049000208DF80B00FFE79DF847
:1036E0000B009DF81A10884215DAFFE705980002D2
:1036F0000590079880689DF81B109DF80B201144D9
:10370000415C059808430590FFE79DF80B000130E8
:103710008DF80B00E3E70399059808400590FFE753
:1037200005980499884210D1FFE70798C06838B11E
:10373000FFE707988168C2689DF81B009047FFE784
:1037400008980021FFF7F4FE0BE008980121FFF72D
:10375000EFFE0898417F01F57021049AFFF7D4FD30
:10376000FFE714E008980799097909049DF81B20E0
:1037700041EA02219DF81A20114401F1FA42102178
:10378000FFF7C2FD08980121FFF7D2FEFFE783E0B3
:103790000898407FFF281ED1FFE708998869097FB4
:1037A0009DF82620FFF778FE089948770898407F13
:1037B000FF280FD1FFE708980121FFF7B9FE08980D
:1037C0009DF827209DF8261041EA02420D21FFF7BF
:1037D0009BFDFFE75FE00898C07F8008C0070028D6
:1037E00052D1FFE79DF826008DF80A0001208DF8E0
:1037F000090008998869497F00EB01100190019840
:1038000040789DF80A1088420BD0FFE70198407875
:10381000E0B9FFE79DF80A000899897B884215DC2A
:10382000FFE7019880789DF80910884204D0FFE7EF
:103830000198807850B9FFE70899C87F40F00400EC
:10384000C8779DF80A00089988771CE0089801213C
:10385000FFF76EFE08989DF827100906427F41EA9F
:1038600002419DF8262041EA0221019B5A7893F8F3
:1038700002C06FF03F0303EB8C131A430A430E217F
:10388000FFF742FDFFE705E008989DF8261000F0DD
:103890002BF8FFE7FFE7FFE7FFE700E0FFE7FFE7C1
:1038A00010E00898407FFF2806D0FFE708989DF8B1
:1038B000261000F019F8FFE70899C87F00F0FD0016
:1038C000C877FFE7FFE79DF825000AB080BD00003C
:1038D00080B582B08DF807009DF807100020FFF733
:1038E00069FE02B080BD000080B584B003908DF801
:1038F0000B1000208DF80A0003998869497F00EBBE
:10390000011001900198827800790399897F114410
:10391000884213D1FFE710208DF80A0003989DF824
:103920000A10019A13799DF80B2042EA0342FFF72F
:10393000EBFC03980121FFF7FBFD0AE09DF80B006B
:10394000019A9168127988540199087901300871B7
:10395000FFE79DF80A0004B080BD000080B58CB080
:103960008DF82E008DF82D100A928DF827309DF8D5
:103970002E009DF82D100A9A9DF8273000F0E4F8EB
:103980008DF826009DF8260000286ED1FFE79DF8EF
:103990002E1040F29000C2F2000000EB411008909F
:1039A000089800699DF82D1001EB810100EB810062
:1039B000079008988089ADF81A00089880680590EB
:1039C0000020ADF812000898C07F0009C00730B988
:1039D000FFE70899C87F40F01000C87703E0012096
:1039E0008DF82F0061E09DF82E009DF82D109DF8B8
:1039F0002720059BBDF81AE0EC46CCF804E0CCF893
:103A000000300DF11203FFF707FB8DF826009DF83B
:103A1000260098B9FFE708980268BDF812000599DA
:103A200090478DF826009DF8260030B9FFE70799EA
:103A3000087940F010000871FFE700E0FFE79DF80B
:103A4000260088B1FFE70899C87F00F0EF00C8772B
:103A500008989DF826109DF82E309DF82D2042EAFA
:103A60000342FFF751FCFFE71AE09DF82E00002803
:103A700015DCFFE79DF82E1040F29000C2F2000026
:103A800000EB4110039003989DF826109DF82E300E
:103A90009DF82D2042EA0342FFF736FCFFE7FFE7DF
:103AA0009DF826008DF82F00FFE79DF82F000CB041
:103AB00080BD000080B584B08DF80F009DF80F0028
:103AC00000283EDCFFE79DF80F1040F29000C2F2A4
:103AD000000000EB411002900299C87F00F0EF0057
:103AE000C87700208DF80700FFE79DF807000299CE
:103AF000097D884224DAFFE7029800699DF80710E3
:103B000001EB810100EB8100009000980079000931
:103B1000C00770B1FFE70099087900F0EF00087165
:103B20000098C06820B1FFE70098C0688047FFE7B1
:103B3000FFE7FFE79DF8070001308DF80700D4E7A5
:103B4000FFE704B080BD000080B586B08DF8170097
:103B50008DF8161004928DF80F3014208DF80E0099
:103B60009DF81700002869DCFFE79DF8171040F268
:103B70009000C2F2000000EB411002909DF8160088
:103B80000299097D884254DAFFE7029800699DF89E
:103B9000161001EB810100EB810001909DF80F00F0
:103BA0000199497888420FD0FFE701984078D8BB47
:103BB000FFE79DF80F00B8B3FFE79DF80F000299EB
:103BC000897B884230DCFFE7002000900198006983
:103BD00048B1FFE70198026904980DF10F01904781
:103BE0008DF80E0003E000208DF80E00FFE79DF831
:103BF0000E00C0B9FFE700200090FFE700989DF895
:103C00000F1088420BDAFFE70498009A805C019954
:103C100089688854FFE7009801300090EEE70020A3
:103C20008DF80E00FFE703E00E208DF80E00FFE791
:103C300003E010208DF80E00FFE703E011208DF85F
:103C40000E00FFE79DF80E0006B080BD82B0019027
:103C50008DF803109DF803000009303001990870B9
:103C60009DF80300032161F31F100199487002B011
:103C70007047000080B582B00190019800F0A2F872
:103C800002B080BD81B08DF803009DF8030041F6BD
:103C90004C21C2F200010B7841F61A22C2F2000256
:103CA000D05408780130087001B0704780B582B0F8
:103CB0000190FFE70198007840B1FFE70198007894
:103CC000FFF7E0FF019801300190F3E702B080BDFB
:103CD00080B501F007FF80BD80B586B0059000205B
:103CE000CDF80F00039002900190FFE7059858B3BC
:103CF000FFE701980090FFE7009801280BDBFFE742
:103D0000009A02A9881810F8010C8854FFE700985F
:103D100001380090F0E705984CF6CD41CCF6CC4147
:103D2000A0FB0132D20802EB8202A0EB420040F07D
:103D300030008DF808000598A0FB0110C008059020
:103D4000019801300190D1E7019820B1FFE702A866
:103D5000FFF790FF06E045F61C50C0F60000FFF7A5
:103D600089FFFFE706B080BD80B582B00190009169
:103D700000F014F80198FFF799FF3A20FFF782FF4F
:103D800000F032F80098FFF7A7FF45F62650C0F67E
:103D90000000FFF76FFF02B080BD000041F64C212C
:103DA000C2F20001002008707047000080B582B0A8
:103DB0008DF807009DF807100120FEF765FF02B09F
:103DC00080BD000080B582B00190FFE701980078C7
:103DD00038B1FFE70198411C01910078FFF7E6FF39
:103DE000F4E702B080BD000080B582B041F64C20FF
:103DF000C2F200000090027841F61A20C2F20000E0
:103E0000002101918154FFF735FF00990198087056
:103E100002B080BD80B586B000208DF8170041F655
:103E20001410C2F20000049041F62100C2F200001A
:103E3000039040F60800C2F2000002900298007859
:103E40008009C007002840F05281FFE703980078FE
:103E5000000700285DD1FFE7029800788008C007BE
:103E6000002855D1FFE703984078029948800298CE
:103E7000007A41F62101C2F2000101F0DFFE029951
:103E80004888898888423DD1FFE70299C8680A8935
:103E900040F62001C2F2000100F084FC88B3FFE785
:103EA0000020C4F202200221019100F033FF019AA8
:103EB0000499087800F0F00008700499087800F080
:103EC0000F0008700499002048700499887800F069
:103ED000F00088700499887862F31F108870029946
:103EE000087840F02000087041F61410C2F200007B
:103EF000032100F0B9FA0299087840F040000870F8
:103F0000FFE7FFE70299087840F004000870FFE738
:103F1000ECE00398007800F00F00012850D1FFE793
:103F200002980078C008C007002848D1FFE703982E
:103F30000178407801F0F00140EA011002994880D0
:103F40000298007A41F62101C2F2000101F076FEEA
:103F5000029988880989B0EB810F2AD1FFE704997B
:103F6000087800F0F0000330087002984279049954
:103F7000087800F00F0040EA02100870029880886C
:103F8000049948700499887800F0F00088700499CA
:103F9000887800F00F0088700299087840F02000BF
:103FA000087041F61410C2F20000032100F05CFA20
:103FB000FFE70299087840F008000870FFE794E0F6
:103FC0000398007800F00F00022840F08D80FFE792
:103FD000029948888988884247D0FFE7029800788C
:103FE000C007002840D0FFE70020C4F202200221D1
:103FF00000F090FE0298007A41F62101C2F2000121
:1040000001F01CFE50B3FFE70499087800F0F000BF
:1040100003300870029842790499087800F00F0084
:1040200040EA021008700298808804994870049948
:10403000887800F0F00088700499887800F00F000C
:1040400088700299087840F02000087041F614103A
:10405000C2F20000032100F007FAFFE70299087896
:1040600000F0FE000870FFE73DE00299488889886B
:10407000884237D1FFE70299C8680A8940F62001D3
:10408000C2F2000100F08EFB58B3FFE704990878F4
:1040900000F0F000033008700499087800F00F0079
:1040A00008700499002048700499887800F0F000A6
:1040B000887004998878022262F31F108870029930
:1040C000087840F02000087041F61410C2F2000099
:1040D000032100F0C9F90299087840F04000087007
:1040E000FFE7FFE7FFE7FFE7FFE7FFE7FFE70298EC
:1040F00000788009C00730B1FFE700F03FFC0120E5
:104100008DF81700FFE79DF8170006B080BD00008E
:1041100080B588B041F61410C2F20000079041F655
:104120002100C2F20000069040F60800C2F2000032
:10413000059000208DF81300059800788009C007CD
:10414000002840F04B81FFE7059800784008C00741
:10415000D0BBFFE70598C06842F20001C0F601013C
:1041600088420BD1FFE742F20000C0F601004FF495
:10417000804100F0E1FB0599488012E00598C06895
:104180000021C0F6010188420AD1FFE70020C0F6F5
:1041900001004FF4005100F0CFFB05994880FFE784
:1041A000FFE70598408848B1FFE70598418841F648
:1041B0001410C2F2000000F015F9FFE70599087825
:1041C00040F002000870FFE7079800780007002819
:1041D00046D1FFE7059800788008C007A8B1FFE73F
:1041E0000598C168428841F61410C2F2000003909D
:1041F00000F07CF903980599098900F035F90599D3
:10420000087800F0FB000870FFE706980078E128C6
:1042100025D1FFE7069881780220B0EB111F06D167
:10422000FFE70599087840F04000087016E006980E
:1042300081780120B0EB111F01D1FFE70DE0069856
:1042400081780320B0EB111F06D1FFE705990878AC
:1042500040F004000870FFE7FFE7FFE7FFE7B0E08A
:104260000798007800F00F00012808D0FFE70798B2
:10427000007800F00F00022840F0A280FFE70598C8
:104280000078C008C007E8B1FFE70598C168428818
:1042900041F61410C2F20000029000F027F9014626
:1042A0000298059AD1800599098900F0DDF80599F1
:1042B000087840F0100008700599087800F0F700C1
:1042C00008707CE00698007800F00F00032875D194
:1042D000FFE7069881780020B0EB111F3FD1FFE780
:1042E0000598408806990A78497802F0F00241EA78
:1042F0000211401A012832DBFFE7FFE70598C0886A
:10430000012826DBFFE70799087800F0F00002306B
:1043100008700598027D0799087800F00F0040EAC0
:104320000210087005980169C28841F61410C2F2A3
:104330000000019000F0DAF801460198059AD1805A
:104340000599098900F090F80599087D01300875F4
:10435000D4E70599087800F0EF0008702DE0069882
:1043600081780220B0EB111F06D1FFE7059908788C
:1043700040F0400008701FE0069881780020B0EB04
:10438000111F01D1FFE716E0069881780120B0EBFC
:10439000111F01D1FFE70DE0069881780320B0EBF3
:1043A000111F06D1FFE70599087840F00800087052
:1043B000FFE7FFE7FFE7FFE7FFE7FFE7FFE7FFE7CD
:1043C000FFE7059800788009C00730B1FFE700F0EB
:1043D000D5FA01208DF81300FFE7FFE79DF81300E1
:1043E00008B080BD83B00290ADF8061040F608001A
:1043F000C2F200000090BDF8060080083F2818D8DF
:10440000FFE70299087800F0F00008709DF8072097
:104410000299087800F00F0040EA02100870BDF819
:104420000600029948700099087840F0040008706E
:1044300018E00299087800F0F000013008709DF84B
:1044400007200299087800F00F0040EA0210087077
:10445000BDF80600029948700099087840F00800FD
:104460000870FFE703B0704780B586B00590ADF8DF
:10447000121000208DF8110040F60800C2F2000072
:10448000039040F20770C2F2000002900398007897
:104490004009C00728B3FFE700200190FFE701981B
:1044A000BDF8121088420ADAFFE70598019A805C8D
:1044B00002998854FFE7019801300190EFE70399D2
:1044C000087800F0DF00087001218DF811109DF8C8
:1044D000123040F20772C2F200020020FFF73EFAEB
:1044E000FFE79DF8110006B080BD000087B0069080
:1044F0000591ADF8122040F60800C2F200000390CA
:104500000020ADF80A00ADF80800BDF812108908C7
:104510008DF8071003990881FFE7BDF808109DF892
:10452000072000209142009008DAFFE7BDF808104C
:1045300000203F2938BF01200090FFE70098C00706
:10454000002849D0FFE7059800680130E8B3FFE78D
:10455000BDF808009DF80710884236DAFFE7059895
:10456000C0780699BDF80A201144C87005984088A3
:10457000069ABDF80A101144087105980068000AEF
:10458000069ABDF80A101144487105980068069A09
:10459000BDF80A10114488710598043005900399FC
:1045A0000861BDF80A000430ADF80A00BDF8080043
:1045B0000130ADF80800BDF812000438ADF8120063
:1045C000039908890130088105E0BDF80800013031
:1045D000ADF80800FFE7A0E703990889800008818B
:1045E00003990889033008810399087840F0200076
:1045F0000870BDF8120007B07047000080B584B0A5
:104600008DF80F00029140F60800C2F20000019000
:1046100000200090FFE700989DF80F1088420FDA05
:10462000FFE70298411C02910078009A41F62101AF
:10463000C2F200018854FFE7009801300090EAE7D9
:104640000020C4F20220022100F064FB01990878E6
:1046500040F0010008709DF80F00033841F6182162
:10466000C2F20001088004B080BD000080B582B0B5
:104670008DF807008DF806108DF8052000208DF8C4
:10468000040000F003F900F04FF89DF80600F0B9BF
:10469000FFE79DF807008DF80300FFE79DF8050090
:1046A00088B1FFE79DF803009DF8061000F0A4F81C
:1046B0009DF8030001308DF803009DF805000138D6
:1046C0008DF80500EAE701208DF8040023E09DF84D
:1046D000060001281ED1FFE79DF807008DF80200B3
:1046E000FFE79DF8050088B1FFE79DF802009DF8FF
:1046F000061000F081F89DF8020001308DF80200EC
:104700009DF8050001388DF80500EAE701208DF8D5
:104710000400FFE7FFE700F007F800F035F89DF828
:10472000040002B080BD0000FFE742F22000C4F2A6
:104730000200006810F00B0F01D0FFE7F5E742F22E
:104740002000C4F20200006810F4F01F09D0FFE757
:1047500042F23001C4F20201086840F4F01008602F
:10476000FFE742F22000C4F202000068C003002804
:1047700008D5FFE742F23001C4F202014FF4803065
:104780000860FFE77047000042F22800C4F2020010
:10479000016841F0010101600068C00708B9FFE746
:1047A000FFE7704780B584B003900291019272B622
:1047B00000F06CF8FFF7B8FFFFE7019870B1FFE772
:1047C000039802990A1D0292096800F081F8039883
:1047D00004300390019801380190EEE7FFF7A4FF41
:1047E000FFF7D2FF62B6039804B080BD81B000909D
:1047F0000098006801B0704783B08DF80B008DF809
:104800000A109DF80A00D8B9FFE742F22801C4F265
:104810000201019108684EF23F02C7F6FF72104094
:104820000860086840F0040008609DF80B200868E4
:1048300040EA82100860086840F0200008601CE030
:1048400042F22801C4F20201009108684EF23F02D0
:10485000C7F6FF721040086008680422C8F2000220
:10486000104308609DF80B20086840EA8210086039
:10487000086840F020000860FFE742F22801C4F217
:1048800002010020086003B07047000042F22800D7
:10489000C4F202000068C007C0B1FFE742F20401A1
:1048A000C4F2020140F22310C4F26750086048F6D7
:1048B000AB10CCF6EF50086042F22800C4F20200C0
:1048C0000068C00708B1FFE7FFE7FFE77047000097
:1048D00082B00190009142F22801C4F202010868FE
:1048E00040F0020008600098019A1060086820F00B
:1048F0000200086002B0704740F61001C4F20241A5
:10490000086820F030000860FFE740F61400C4F2A9
:10491000024000680007002801D4FFE7F5E742F2F3
:104920000001C4F20201086820F030000860086845
:1049300040F002000860704784B0039002910020AC
:10494000ADF8060003980090FFE7BDF80600029955
:1049500088420FD2FFE700980068013008B9FFE7EE
:1049600008E0009804300090BDF806000430ADF86F
:104970000600EAE7BDF8060004B0704781B040F6D3
:104980000800C2F2000000900099087800F0EF00E3
:1049900008700099087800F0F7000870009908780E
:1049A00000F0FD0008700099087800F0FE00087023
:1049B0000099087800F0FB0008700099087800F072
:1049C000BF0008700099087800F0DF0008700099B7
:1049D0000020C880009908750099488000990861F6
:1049E0000099C860009988800099088101B07047DB
:1049F00080B588B000220192079206920592049237
:104A000003920020C4F2022002900221009100F0E3
:104A100095F9009A01990298039201220492059156
:104A2000069103A900F00EF808B080BD80B540F6ED
:104A30008C41C4F20241086840F00100086000F0B7
:104A40002BFF80BD85B00490039100200090FFE70C
:104A5000039800680099C840002800F05881FFE7DB
:104A600003980068009A0121914008400190019844
:104A7000002800F04881FFE703984068022805D02D
:104A8000FFE703984068122828D1FFE704980099AF
:104A90006FF0030202EA51010844006A0290009894
:104AA00000F0070081000F2000FA01F1029888430E
:104AB00002900398006900F00F00009901F00701CF
:104AC000890000FA01F102980843029002980499C3
:104AD000009B02EA530211440862FFE70498006851
:104AE000029000984100032000FA01F102988843E7
:104AF00002900398406800F003000099490000FA12
:104B000001F1029808430290029804990860039802
:104B1000406801280FD0FFE70398406802280AD0B8
:104B2000FFE703984068112805D0FFE70398406825
:104B300012282FD1FFE70498806802900098410066
:104B4000032000FA01F10298884302900398C0689C
:104B50000099490000FA01F1029808430290029876
:104B6000049988600498406802900099012000FA36
:104B700001F102988843029003984068C0F3001046
:104B8000009900FA01F102980843029002980499F2
:104B90004860FFE703984068032818D0FFE70498AF
:104BA000C068029000984100032000FA01F10298C9
:104BB00088430290039880680099490000FA01F147
:104BC00002980843029002980499C860FFE703988E
:104BD000C079C006002840F19580FFE7009820F0DA
:104BE000030042F26002C4F2024280580290009830
:104BF00000F00300C1000F2000FA01F10298884381
:104C0000029004984FF60041CBF6FD510840800A0F
:104C1000009901F00301C90000FA01F1029808436C
:104C200002900298009921F00301885042F200009E
:104C3000C4F20240006802900199029888430290F1
:104C400003988079C006002805D5FFE701990298EE
:104C500008430290FFE7029842F20001C4F20241C9
:104C6000086042F20400C4F2024000680290019918
:104C7000029888430290039880798006002805D521
:104C8000FFE70199029808430290FFE7029842F279
:104C90000401C4F20241086042F28400C4F20240FE
:104CA00000680290019902988843029003988079E5
:104CB0008007002805D5FFE7019902980843029074
:104CC000FFE7029842F28401C4F20241086042F216
:104CD0008000C4F202400068029001990298884363
:104CE000029003988079C00728B1FFE701990298E4
:104CF00008430290FFE7029842F28001C4F20241A9
:104D00000860FFE7FFE7009801300090A0E605B0DB
:104D10007047000083B00290ADF806100298406919
:104D20000090009ABDF8060002EA0001904340EAB4
:104D300001400299886103B07047000082B0019081
:104D4000ADF802108DF801209DF8010028B1FFE7B1
:104D5000BDF802000199886104E0BDF802000199E4
:104D60008862FFE702B0704780B5FFF7C5FDFEF728
:104D7000ABF8FDF7E5FF00F07FFEFFF757FE00F010
:104D8000ABFD00F033F900F03BFC80BD80B582B094
:104D900040F2B400C2F20000019000208DF8030040
:104DA0000198007A4008C007002849D0FFE700F0CA
:104DB0009FFA002843D0FFE70198007A0009C00756
:104DC000E0B3FFE700F02AFB0020FEF729F800F02F
:104DD000EDF890B3FFE741F61420C2F2000000782E
:104DE000012829D1FFE7022001221146FFF73EFCEE
:104DF00088B1FFE744F20000C0F6010046F200016E
:104E0000C0F6010100F000FE20B1FFE701208DF89F
:104E10000300FFE7FFE741F61421C2F20001002082
:104E200008700199087A00F0EF0008720199087A79
:104E300000F0FD000872FFE7FFE7FFE7FFE7FFE78D
:104E40009DF8030002B080BD80B582B0019040F2B1
:104E5000B400C2F200000090019842F20001C0F6D6
:104E6000010188420FD3FFE7019843F6CF71C0F6E6
:104E70000101884207D8FFE740F2B000C2F200000B
:104E80000068019053E0019843F6D171C0F601012A
:104E9000884212D3FFE7019844F20001C0F60101F5
:104EA00088420AD8FFE740F2B001C2F2000143F69F
:104EB000E070C0F60100086038E0019844F200019B
:104EC000C0F6010188420FD3FFE7019845F68F71C4
:104ED000C0F60101884207D8FFE740F2B000C2F2F5
:104EE00000000068019020E0019845F69071C0F63E
:104EF0000101884218D3FFE7019846F20001C0F68D
:104F00000101884210D8FFE700F0F2F958B1FFE73D
:104F100040F2B001C2F2000141F6E070C0F60100BB
:104F200008600190FFE7FFE7FFE7FFE7FFE7019871
:104F300002B080BD80B582B0019000910098FFF76B
:104F400055FC0199C86000980430FFF74FFC0199A7
:104F5000088200980430FFF749FC000C0199488250
:104F600000980830FFF742FC0199087500980C3052
:104F7000FFF73CFC0199886100981030FFF736FC80
:104F80000199C86100981430FFF730FC019908625C
:104F900000981830FFF72AFC0199486200981C30ED
:104FA000FFF724FC0199886202B080BD80B582B011
:104FB00000208DF8070040F2B401C2F20001009118
:104FC00040F2B000C2F2000000682030009A52683F
:104FD0000C31FFF7E7FB20B1FFE701208DF8070058
:104FE000FFE79DF8070002B080BD000080B500F02B
:104FF000FBF980BD80B586B040F2B400C2F200007B
:10500000059041F62100C2F20000049040F608002D
:10501000C2F20000039040F25710C2F2000002906A
:1050200041F61320C2F200000078014601910828E1
:1050300000F25B810199DFE811F00900C400E00093
:105040002401FC001801300140014C010398007854
:10505000C007002800F0B480FFE70498017841F60B
:105060002000C2F200000170059A117A41F002019D
:1050700011720078E1280DD1FFE741F61321C2F249
:105080000001032008700498D0F8030000BA0399C7
:10509000C8608FE041F62000C2F200000078E228EC
:1050A00007D1FFE741F61321C2F200010120087089
:1050B0007FE041F62000C2F200000078E3280CD126
:1050C000FFE70599087A40F01000087241F61321B5
:1050D000C2F20001022008706AE041F62000C2F22C
:1050E00000000078E42812D1FFE741F61321C2F254
:1050F0000001052008700498D0F8030000BA039955
:10510000C860029900200870FDF7CEFC4FE041F620
:105110002000C2F200000078E5280CD1FFE70599D5
:10512000087A40F00800087241F61321C2F200012B
:10513000042008703AE041F62000C2F20000007836
:10514000D02807D1FFE741F61321C2F20001062063
:1051500008702AE041F62000C2F200000078FA2828
:1051600012D1FFE741F61321C2F2000107200870B7
:105170000498D0F8030000BA0399C860029900208F
:105180000870FDF791FC0FE041F62000C2F200002C
:105190000078D12807D1FFE741F61321C2F20001C0
:1051A00008200870FFE7FFE7FFE7FFE7FFE7FFE7FB
:1051B000FFE7FFE70399087800F0FE000870FFE7BB
:1051C00093E000F05DF958B1FFE702990020087004
:1051D00041F61321C2F200010870FDF765FC0BE0F7
:1051E00041F61321C2F2000100200870029901204B
:1051F0000870FDF759FCFFE777E0FFF7C7FD58B1EE
:10520000FFE702990020087041F61321C2F2000165
:105210000870FDF749FC0BE041F61321C2F20001D2
:1052200000200870029901200870FDF73DFCFFE79F
:105230005BE000F05DF858B1FFE7029900200870CC
:1052400041F61321C2F200010870FDF72DFC0BE0BE
:1052500041F61321C2F200010020087002990120DA
:105260000870FDF721FCFFE73FE0FEF7D3FD38B102
:10527000FFE741F61321C2F2000100200870FFE7AA
:1052800033E0FEF745FF38B1FFE741F61321C2F2E4
:10529000000100200870FFE727E00498D0F8030021
:1052A00000BA00F07BF938B1FFE741F61321C2F2F2
:1052B000000100200870FFE717E0FEF7ABFD38B1F2
:1052C000FFE741F61321C2F2000100200870FFE75A
:1052D0000BE000F035FC38B1FFE741F61321C2F2D4
:1052E000000100200870FFE7FFE706B080BD000066
:1052F00080B582B040F2B400C2F2000001900020FC
:105300008DF80300012210461146FFF7AFF9F8B1FE
:10531000FFE742F20000C0F6010044F20001C0F6CF
:10532000010100F071FB90B1FFE740F2B001C2F261
:10533000000141F6E070C0F60100086041F614215A
:10534000C2F20001012008708DF80300FFE7FFE7BB
:105350000198007A4008C007002841D0FFE7019873
:10536000007AC008C007D0B3FFE700208DF8030023
:10537000FFF71CFE90B3FFE741F61420C2F20000D5
:105380000078012829D1FFE7022001221146FFF70A
:105390006DF908B3FFE744F20000C0F6010046F2E1
:1053A0000001C0F6010100F02FFBA0B1FFE7019959
:1053B000087A00F0F70008720199087A00F0FD0001
:1053C000087241F61421C2F2000100200870012089
:1053D0008DF80300FFE7FFE7FFE7FFE7FFE7FFE7E1
:1053E0009DF8030002B080BD80B582B040F2B400E9
:1053F000C2F2000001900198007AC00760B1FFE797
:1054000040F2B000C2F20000016840F2B400C2F203
:105410000000FFF78FFDFFE702B080BD81B040F2D2
:10542000B400C2F2000000900098007A4008C00763
:10543000E8B9FFE70098007DFE2805DCFFE700994A
:10544000087D0130087511E000990020087500986A
:10545000008AFE2805DCFFE70099088A01300882EF
:1054600003E0009900200882FFE7FFE705E00099CC
:105470000020087500990882FFE701B0704700001E
:1054800080B584B041F61410C2F20000039041F6DA
:105490002101C2F20001029140F60800C2F20000B0
:1054A000019000208DF8030002984078019A508006
:1054B0000198007A00F0C2FB0199488889888842E7
:1054C0003DD1FFE740F2B000C2F20000006820309A
:1054D00001990A8940F62001C2F20001FFF762F942
:1054E00060B3FFE70399087800F0F000023008701D
:1054F000039908780E2262F31F10087003990020A8
:1055000048700399887800F0F000887003998878D3
:10551000022262F31F1088700199087840F0200081
:10552000087041F61410C2F200000321FEF79CFF40
:105530000199087840F040000870FFE7FFE7019804
:1055400000788009C00730B1FFE7002001900120FA
:105550008DF80300FFE79DF8030004B080BD000054
:1055600040F62001C4F20241086840F001000860E2
:105570007047000040F62401C4F20241086820F0A0
:10558000010008607047000040F62401C4F20241A7
:10559000086840F0010008607047000080B586B0E0
:1055A000059000208DF8130040F60800C2F20000BC
:1055B000039041F61410C2F2000001900290029A8A
:1055C000117801F0F0011170029A11780D2363F344
:1055D0001F111170059910311022FEF787FF0198F5
:1055E00003990989FEF740FF30B1FFE701208DF8EC
:1055F0001300FFF7C3F9FFE79DF8130006B080BD65
:1056000080B582B000208DF80700FFE79DF8070005
:10561000012849D8FFE79DF8070000EBC00140F2E0
:105620000000C2F2000000EB8100009000980068CA
:10563000FFF7DCF800994860009800680430FFF735
:10564000D5F800998860009800680830FFF7CEF818
:105650000099C860009800680C30FFF7C7F80099FF
:105660000861009800681030FFF7C0F800994861A1
:10567000009800681430FFF7B9F800998861009825
:1056800000681830FFF7B2F80099C8610098006808
:105690001C30FFF7ABF800990862FFE79DF80700A0
:1056A00001308DF80700B1E702B080BD81B04EF641
:1056B0008851CEF20001086840F47000086040F69E
:1056C0000042C4F202420120106040F61C41C4F2C4
:1056D00002410020086040F62041C4F20241086007
:1056E00011684EF6E323CFF6E2231940116040F62D
:1056F0002841C4F20241086040F62C41C4F2024144
:10570000086040F63443C4F2024340F28021C0F204
:105710000111196040F63843C4F20243186040F6A4
:105720003C43C4F20243196040F64041C4F20241D6
:105730000860116821F48021116040F65041C4F2E4
:10574000024108604EF60851CEF2000142F200001C
:10575000C0F60000086042F21800C4F202000068BF
:1057600000F0604000900098B0F1604F05D0FFE776
:105770000098B0F1404F24D1FFE742F21C00C4F280
:1057800002000068C00778B1FFE742F20C01C4F2E2
:10579000020142F63B20C0F61900086046F67F6021
:1057A000C4F65D400860FFE742F21C01C4F202014A
:1057B000086840F002000860086840F001000860D6
:1057C000FFE701B07047000080B582B072B644F6C2
:1057D0001C00C4F200000068800600280DD5FFE719
:1057E00044F62400C4F2000000688DF807009DF81C
:1057F00007100020FDF748FAFFE762B602B080BD4F
:1058000080B582B0FFE70020FDF7ACFA78B1FFE782
:1058100000208DF807000DF10701FDF7E7F928B129
:10582000FFE79DF80700FEF753F8FFE7EBE702B04C
:1058300080BD000081B08DF8030000208DF80200CB
:1058400044F61C00C4F200000068000600281ED5C3
:10585000FFE79DF8030044F62801C4F20001086048
:10586000FFE744F61C00C4F2000000684006002870
:1058700001D4FFE7F5E744F62001C4F2000108680F
:1058800040F04000086001208DF80200FFE79DF81D
:10589000020001B07047000080B586B0002005907E
:1058A000049003900290019040F69C42C4F20242A0
:1058B0004FF4802111601821019103900D21059171
:1058C0000221029104900020C4F2022001A9FFF7F6
:1058D000B9F806B080BD000080B544F60001C4F2FE
:1058E00000014FF00050086044F60802C4F20002C4
:1058F0004FF08840106008680860086840F4004075
:10590000086044F60C02C4F2000240F253401060FA
:10591000086840F00C000860086840F0200008604B
:1059200044F60402C4F20002106820F440501060F3
:10593000086840F0010008603C2000F085F841F65E
:105940001521C2F200010120087080BD80B586B02B
:10595000049040F2B400C2F20000039000208DF8E1
:105960000B00FFF75BFD0498FDF75AFA40F2B00018
:10597000C2F2000001900068FFF766FA0199086022
:105980000398007A4008C007A0BBFFE7FFF70EFBB3
:1059900078B3FFE741F61420C2F200000078012836
:1059A00023D1FFE7022001221146FEF75FFEB8B1C6
:1059B000FFE744F20000C0F6010046F20001C0F625
:1059C000010100F021F850B1FFE741F61421C2F2C5
:1059D00000010020087001208DF80B00FFE7FFE7B1
:1059E0009DF80B008DF8170009E001208DF80B00E1
:1059F000FFE7FFE79DF80B008DF81700FFE79DF824
:105A0000170006B080BD000084B00290019102989A
:105A10000090FFE70098019988420DD2FFE70098B7
:105A20000068013020B1FFE700208DF80F0007E08B
:105A3000009804300090EDE701208DF80F00FFE79B
:105A40009DF80F0004B0704781B0ADF80200BDF9B9
:105A5000020000280ED4FFE7BDF9021001F01F027A
:105A6000012090404A094EF20011CEF2000141F8A7
:105A70002200FFE701B0704780B582B0FEF706FF55
:105A8000FFF782FD40F68841C4F2024101910868A7
:105A900040F080500860FFF763FD0199086820F02E
:105AA00080500860FFF766FDFEF76EFE02B080BD15
:105AB00080B582B001900091FFF766FD40F6884105
:105AC000C4F20241086840F0805008600198006804
:105AD000009A1060086820F080500860FFF74AFDC7
:105AE00002B080BD80B582B0FFE70120FDF73AF932
:105AF00080B1FFE700208DF8070001200DF10701BC
:105B0000FDF774F828B1FFE79DF80700FFF792FE54
:105B1000FFE7EAE702B080BD81B000200090FFE718
:105B2000009843F2FF41C0F20C01884205D8FFE71C
:105B3000FFE7009801300090F2E701B070470000E5
:105B400080B584B000208DF80F000020C0F6010061
:105B5000029040F60800C2F20000019041F61410D5
:105B6000C2F200000090FFE7029841F6FF71C0F614
:105B7000010188420AD8FFE702980068013008B99D
:105B8000FFE703E0029804300290EDE700990878FF
:105B900000F0F00001300870009908780D2262F3DF
:105BA0001F1008709DF80B000099C870BDF80A001E
:105BB000009908710298000A0099487102980099AA
:105BC00088710199072008810199087840F0200028
:105BD00008700198018941F61410C2F20000FEF726
:105BE00043FC30B1FFE701208DF80F00FEF7C6FE41
:105BF000FFE79DF80F0004B080BD000080B582B0C3
:105C000000200190FFF7B0F8FEF7F2FE40F25811C5
:105C1000C2F2000146F20440C4F20300FFF748FF5D
:105C2000FFE7FFF779FFFFF7EBFDFCF7F5FBFFF769
:105C3000E1F9FEF74DF8FFF76FFFF2E785B08DF859
:105C40001200039100208DF80B0040F60801C2F20B
:105C5000000101919DF812108DF803108DF80200DB
:105C60008DF8010041F61820C2F2000000880228D9
:105C700004DCFFE700208DF813003BE0FFE79DF810
:105C8000020041F61821C2F20001098888421FDA99
:105C9000FFE703989DF802100844D0F8030000BA0B
:105CA0009DF8032040F62001C2F2000141F82200D5
:105CB0009DF8030001308DF803009DF801000130CC
:105CC0008DF801009DF8020004308DF80200D6E73F
:105CD0009DF8022001998888104488809DF8012051
:105CE000019908891044088101208DF80B008DF876
:105CF0001300FFE79DF8130005B07047F1EE100A9E
:105D00004FF6FF71C0F2C03120EA010040F0407050
:105D1000E1EE100A70474465627567203000446503
:105D20006275672031000A00485D0008000000200D
:105D3000E000000094220008285E0008E000002037
:105D4000701F0000B0220008006000080000000082
:105D50000000000000000000000000000000000043
:105D600000000000000000000000000000600108CA
:105D70000000000000000000000000000000000023
:105D80000000000000000000000000000000000013
:105D9000B315010000000000F00500204D2A0008A6
:105DA000D30001000000000006060020FD450008A9
:105DB000B5010001000000000607002000000000FF
:105DC00000000000D50000010000000007070020CF
:105DD0000000000000000000D92A0008F12300089C
:105DE000D00200202003FF00680000200200000015
:105DF0004800002002FF0000E01F01080000000032
:105E00000800000001000000C2C2C2C20000000081
:105E10000000000000000000000000000000000082
:085E200000000000000000007A
:040000050800225974
:00000001FF
