:020000040800F2
:10200000C8090020F9220008012300080323000862
:10201000052300080723000809230008000000002A
:102020000000000000000000000000000D23000878
:102030000F230008000000001123000813230008EC
:1020400015230008152300081523000800000000D0
:1020500015230008152300081523000800000000C0
:1020600015230008152300080000000015230008B0
:102070001523000815230008152300081523000860
:102080001523000815230008152300081523000850
:102090001523000815230008152300081523000840
:1020A0001523000815230008152300081523000830
:1020B0001523000815230008152300081523000820
:1020C0001523000815230008152300081523000810
:1020D0000000000015230008152300081523000840
:1020E00015230008152300081523000815230008F0
:1020F0001523000815230008152300080000000020
:10210000000000001523000815230008152300080F
:1021100015230008152300081523000815230008BF
:1021200015230008152300081523000815230008AF
:10213000214A0008000000000000000015230008EC
:10214000152300080000000000000000000000004F
:10215000000000000000000015230008000000003F
:1021600000000000000000001523000815230008EF
:10217000000000000000000000000000000000005F
:10218000000000000000000000000000000000004F
:10219000000000000000000000000000000000003F
:1021A00000000000000000001523000815230008AF
:1021B000152300081523000815230008152300081F
:1021C000152300081523000800000000000000008F
:1021D00000000000000000000000000015230008BF
:1021E00015230008000000000000000000000000AF
:1021F00000000000000000000000000000000000DF
:10220000000000001523000815230008000000004E
:10221000000000001523000800000000000000007E
:10222000000000000000000000000000152300086E
:10223000152300080000000000000000000000005E
:10224000000000000000000000000000152300084E
:10225000152300081523000800F002F800F03CF8F0
:102260000AA090E8000C82448344AAF10107DA45F1
:1022700001D100F031F8AFF2090EBAE80F0013F007
:10228000010F18BFFB1A43F001031847A02D0000EF
:10229000C02D0000103A24BF78C878C1FAD8520780
:1022A00024BF30C830C144BF04680C6070470000D0
:1022B0000023002400250026103A28BF78C1FBD84F
:1022C000520728BF30C148BF0B6070471FB502F0EE
:1022D0007BFE1FBD10B510BD00F0C9F81146FFF719
:1022E000F5FF02F035FE00F0E7F803B4FFF7F2FF68
:1022F00003BC00F0EFF800000A4880470A48004796
:10230000FEE7FEE7FEE7FEE7FEE7FEE7FEE7FEE7A5
:10231000FEE7FEE7FEE7000004480549054A064BD4
:10232000704700000549000859220008C803002032
:10233000C8090020C8050020C805002010B5431CAE
:1023400002E010F8011B71B18107FAD14FF00132A0
:1023500002C88C1A8C4314EAC211F9D0C01A0A06BA
:1023600003D0C01E10BDC01A10BD0A0401D0801ECB
:1023700010BD0902FCD0401E10BD032A40F230807F
:1023800010F0030C00F0158011F8013BBCF1020FB6
:10239000624498BF11F801CB00F8013B38BF11F837
:1023A000013BA2F1040298BF00F801CB38BF00F84E
:1023B000013B11F0030300F02880083AC0F00880C8
:1023C00051F8043B083A51F804CBA0E80810F5E7AF
:1023D000121D5CBF51F8043B40F8043BAFF3008092
:1023E000D20724BF11F8013B11F801CB48BF11F807
:1023F000012B24BF00F8013B00F801CB48BF00F8D7
:10240000012B704770477047704710B5203AC0F0F5
:102410000B80B1E81850A0E81850B1E81850A0E8B7
:102420001850203ABFF4F5AF5FEA027C24BFB1E850
:102430001850A0E8185044BF18C918C0BDE8104093
:102440005FEA827C24BF51F8043B40F8043B08BF9C
:102450007047D20728BF31F8023B48BF11F8012B63
:1024600028BF20F8023B48BF00F8012B7047754693
:1024700000F02CF8AE4605006946534620F00700F0
:10248000854618B020B5FFF747FFBDE820404FF064
:1024900000064FF000074FF000084FF0000BAC466D
:1024A000ACE8C009ACE8C009ACE8C009ACE8C009B8
:1024B00021F007018D46704710B50446AFF3008048
:1024C0002046BDE81040FFF710BF000000487047ED
:1024D000D000002001491820ABBEFEE72600020014
:1024E0007047000080B582B001900091019944F6D8
:1024F000EA70C0F6000001F047FC02B080BD0000A9
:1025000080B594B040F23110C2F20000139040F256
:102510004710C2F20000129040F24610C2F20000D2
:10252000007801460691042800F293820699DFE8BC
:1025300011F005003900A6006E011D0240F2703155
:10254000C2F2000108680130086044F6F870C0F675
:10255000000001F033FC40F23010C2F200000078BD
:1025600001281ED1FFE713980078F5280CD1FFE76A
:1025700012990020087040F24611C2F200010120B9
:10258000087000F099FA05E012990120087000F037
:1025900093FAFFE740F23011C2F200010020087008
:1025A000FFE756E245F21900C0F6000001F006FC14
:1025B00040F23010C2F20000007801285ED1FFE73F
:1025C00013980078FE280DD1FFE740F23B31C2F2AC
:1025D00000010120087040F24611C2F200010420FF
:1025E000087044E013980078FA2827D1FFE700200C
:1025F000C0F601000068013038B9FFE70020C0F6DE
:1026000001000068013080B9FFE70120059000213A
:10261000049101F075FD04990598129A117040F229
:102620003D31C2F200010870FFE740F24611C2F2EC
:1026300000010220087000F03FFA17E013980078BC
:10264000FB280CD1FFE712990020087040F24611D8
:10265000C2F200010220087000F02EFA05E0129983
:102660000120087000F028FAFFE7FFE7FFE740F2DB
:102670003011C2F2000100200870FFE7E9E145F2E5
:102680001300C0F6000001F099FB40F23010C2F2D6
:1026900000000078012840F0B980FFE71398007827
:1026A000FD2815D1FFE740F23010C2F2000000789B
:1026B00001280DD1FFE740F24611C2F200010320CC
:1026C000087040F23C31C2F200010120087096E02F
:1026D00013980078FC2840F08B80FFE700201190D1
:1026E000109040F23D30C2F20000007800286CD11A
:1026F000FFE71398D0F8010000BA1190119846F244
:102700000001C0F6000188420DD3FFE711984FF693
:10271000FF71C0F60001884205D8FFE70020109045
:1027200002F0AEF815E0119846F20001C0F6010182
:1027300088420DD3FFE711984FF6FF71C0F60101F3
:10274000884205D8FFE70120109002F099F8FFE7D2
:10275000FFE7109800EB400140F20000C2F20000D9
:1027600000EBC1000F9040F26C30C2F20000016833
:102770004942016000680F994969884224D1FFE706
:1027800040F26C30C2F20000016845F22000C0F651
:10279000000001F0F9FA119802F016FA98B1FFE77B
:1027A00045F20C00C0F6000001F008FB1299002071
:1027B0000390087000F080F9039840F24611C2F2CD
:1027C00000010870FFE7FFE711E040F23D31C2F27F
:1027D00000010020029008701299087000F06CF956
:1027E000029840F24611C2F200010870FFE705E0CE
:1027F00012990120087000F05FF9FFE7FFE740F24F
:102800003011C2F2000100200870FFE721E145F21B
:102810000500C0F6000001F0D1FA00200E900D90E6
:102820000C900B900A90099040F23C30C2F20000EC
:102830000078012840F09380FFE71398D0F801005A
:1028400000BA0E9040F23D30C2F20000007801283C
:1028500015D1FFE71398D0F8050000BA0990139836
:10286000D0F8090000BA0A901398D0F80D0000BA09
:102870000B901398D0F8110000BA0C9010E0139848
:10288000D0F8050009901398D0F809000A90139821
:10289000D0F80D000B901398D0F811000C90FFE7C2
:1028A00040F23D30C2F20000007840B9FFE70E98D8
:1028B00046F27F01C0F6000188420FD8FFE740F2E0
:1028C0003D30C2F200000078E0B9FFE70E9844F214
:1028D0008001C0F60101884214D3FFE709A8042152
:1028E00002F0E8FA024640F26C30C2F200000168E1
:1028F00011440160016845F22100C0F6000001F0BA
:1029000043FAFFE713980078FD2809D1FFE70E98F6
:1029100030B1FFE70E9809A901F0D6FD0D90FFE751
:102920000D980E99884213D0FFE71299002001906C
:10293000087000F0C1F8019840F23C31C2F2000189
:10294000087040F24611C2F200010220087005E052
:1029500012990120087000F0AFF8FFE7FFE740F29E
:102960003011C2F200010020087072E044F6FE70DF
:10297000C0F6000001F022FA002008908DF81F0038
:1029800040F23B30C2F200000078012860D1FFE73E
:102990001398D0F8010000BA0890089846F2000198
:1029A000C0F60001884204D1FFE700208DF81F0027
:1029B0000CE0089844F20001C0F60101884204D1FD
:1029C000FFE701208DF81F00FFE7FFE7089846F2B8
:1029D0000001C0F60001884203D1FFE7089858B90A
:1029E000FFE7089844F20001C0F6010188422ED1A9
:1029F000FFE7089858B3FFE79DF81F0001F022FA9F
:102A0000B8B1FFE7089802F0A1F988B1FFE740F2FA
:102A10003B31C2F20001002008701299087000F0EA
:102A20004BF840F24611C2F2000102200870FFE7A5
:102A30000CE0129901200090087000F03DF8009819
:102A400040F24611C2F200010870FFE7FFE7FFE71E
:102A5000FFE714B080BD000080B584B08DF80F0092
:102A6000029100208DF80700FFE79DF807009DF810
:102A70000F10884212DAFFE70298411C0291007899
:102A80009DF8072040F23111C2F200018854FFE79F
:102A90009DF8070001308DF80700E6E740F230119D
:102AA000C2F200010120087044F6F470C0F6000084
:102AB00001F084F904B080BD80B582B040F23A32B2
:102AC000C2F20002019240F24710C2F200000090F0
:102AD000009800780199087000210123084600F051
:102AE0004DFF02B080BD000080B584B0ADF80E008F
:102AF000029114208DF8070040F26A30C2F2000003
:102B00000078012844D1FFE740F26930C2F20000AA
:102B10000078C0BBFFE700208DF80600FFE79DF8B6
:102B20000600BDF80E1088421DDAFFE70298411C2E
:102B30000291007801F0BCFF20B1FFE700208DF882
:102B4000070003E013208DF807000CE040F2693124
:102B5000C2F2000101200870FFE79DF80600013075
:102B60008DF80600DBE79DF8070058B9FFE7002065
:102B7000009000F0AFFF009840F26931C2F200010E
:102B80000870FFE703E001208DF80700FFE7FFE78B
:102B90009DF8070004B080BD80B584B08DF80F00AB
:102BA00000208DF80E009DF80F0000F0EDF8029067
:102BB000029820B3FFE702980068F8B1FFE7002011
:102BC00001900190FFE701980299097988420ADA99
:102BD000FFE702980168019A00208854FFE70198F6
:102BE00001300190EFE70299002048710299887145
:102BF0000299C87101208DF80E00FFE7FFE79DF8EC
:102C00000E0004B080BD000080B584B08DF80F00C8
:102C100002918DF8072000208DF806009DF80F0026
:102C200000F0B2F800900098B8B1FFE70098006893
:102C300090B9FFE70298009908609DF80700009995
:102C40000871009900208871009948710099C87135
:102C500001208DF80600FFE7FFE79DF8060004B0AD
:102C600080BD000080B584B08DF80F000291002077
:102C70008DF807009DF80F0000F086F8009000988E
:102C8000C8B3FFE700980068A0B3FFE70098407959
:102C900078B3FFE7009908688979405C0299087069
:102CA0000098016882790020885400998879013061
:102CB00088710099487901384871009801798079C4
:102CC000884208D1FFE70098407920B1FFE70099DA
:102CD00000208871FFE70098407930B9FFE700993C
:102CE000002088710099C871FFE701208DF8070066
:102CF000FFE7FFE7FFE79DF8070004B080BD000095
:102D000080B582B08DF807008DF8061000208DF890
:102D100005009DF8070000F037F80090009870B3A8
:102D2000FFE70098006848B3FFE700980179407911
:102D3000884222DAFFE79DF80600009A1168D279EE
:102D400088540099C8790130C871009948790130D8
:102D5000487100980179C07988420AD1FFE700984C
:102D600001794079884204DAFFE700990020C871B0
:102D7000FFE701208DF80500FFE7FFE7FFE79DF87B
:102D8000050002B080BD000082B08DF803009DF800
:102D9000030001280ADCFFE79DF8031040F214202D
:102DA000C2F2000000EBC100019002E0002001909F
:102DB000FFE7019802B0704780B582B040F2B011D1
:102DC000C2F20001002064220192FFF71DFF019A68
:102DD00040F24C11C2F200010120FFF715FF02B0D2
:102DE00080BD000080B582B08DF8070000208DF80E
:102DF00006009DF80700FFF7C7FF0090009850B14C
:102E0000FFE70098006828B1FFE7009840798DF847
:102E10000600FFE7FFE79DF8060002B080BD000056
:102E200080B582B000208DF8070042F20000C0F6A5
:102E300001000090FFE7009845F6FB71C0F6010124
:102E4000884217D8FFE7009801F050F9B0F1A13F90
:102E50000CD1FFE79DF8070001308DF807000098BE
:102E600040F24031C2F200010860FFE700980430F0
:102E70000090E0E79DF8070002B080BD82B00190AD
:102E80008DF8031000208DF802009DF803007B28C8
:102E90000AD0FFE79DF803007C2805D0FFE79DF8E6
:102EA00003007D280BD1FFE701999DF802207C20CB
:102EB00088549DF8020001308DF80200FFE79DF86C
:102EC000030001999DF8022088549DF8020001300A
:102ED000C0B202B07047000080B582B001908DF89A
:102EE000031000208DF802009DF803007B280AD013
:102EF000FFE79DF803007C2805D0FFE79DF803005D
:102F00007D280AD1FFE701987C2100F0AFFE9DF8F3
:102F1000020002308DF80200FFE701989DF80210D0
:102F200008449DF8031000F0A1FE9DF80200023055
:102F30008DF802009DF8020002B080BD84B00390BD
:102F40008DF80B10002001908DF803008DF8030020
:102F5000FFE79DF803009DF80B1088420EDAFFE7AB
:102F600003989DF80310415C019808440190FFE725
:102F70009DF8030001308DF80300EAE70198404214
:102F80000190019804B0704780B58CB084460F98CA
:102F9000DDF838E08DF82FC08DF82E108DF82D203B
:102FA0000A93ADF8260000208DF825000890ADF8B2
:102FB0001E00ADF81C009DF82F1040F25400C2F224
:102FC000000000EB41100690069800699DF82E1055
:102FD00001EB810100EB810005909DF82D008DF83B
:102FE00013009DF82F009DF82E109DF82D2008ABA2
:102FF00000F054F9ADF81C000698C07B012840F0A1
:10300000A880FFE7BDF81C00BDF82610884280F2BA
:103010008880FFE70E98BDF81E1008447B2100F061
:1030200025FEBDF81E000230ADF81E000E98BDF85A
:103030001E1008440599097800F018FEBDF81E001E
:103040000230ADF81E000E98BDF81E1008449DF821
:10305000131000F00BFEBDF81E000230ADF81E008C
:1030600000208DF81200FFE79DF812009DF82D104A
:10307000884218DAFFE70E98BDF81E10084405993B
:1030800089689DF81220895CFFF726FF0146BDF88C
:103090001E000844ADF81E00FFE79DF81200013045
:1030A0008DF81200E0E70598C07801380390FFE73B
:1030B000039800281CD4FFE708980399C900FF2251
:1030C0008A401040C8408DF80B000E98BDF81E10C5
:1030D00008449DF80B10FFF7FFFE0146BDF81E00E7
:1030E0000844ADF81E00FFE7039801380390DFE7BE
:1030F0000E98BDF81E1008447D2100F0B7FDBDF804
:103100001E000230ADF81E000E99BDF81E20501CA6
:10311000ADF81E0000208854BDF81E000A990880F2
:1031200016E012208DF8250006989DF82510090458
:103130009DF82F2041EA02219DF82E201144BDF870
:103140001C30BDF8262042EA034200F095F8FFE764
:103150008DE0BDF81C00BDF8261088426FDAFFE74D
:103160000E99BDF81E20501CADF81E007B2088541F
:10317000059800780E99BDF81E20531CADF81E303E
:1031800088549DF813000E99BDF81E20531CADF80D
:103190001E30885400208DF80A00FFE79DF80A00D1
:1031A0009DF82D10884218DAFFE70E98BDF81E1022
:1031B0000844059989689DF80A20895CFFF75EFE3E
:1031C0000146BDF81E000844ADF81E00FFE79DF85B
:1031D0000A0001308DF80A00E0E70598C078013850
:1031E0000190FFE7019800281CD4FFE70898019997
:1031F000C900FF228A401040C8408DF803000E9895
:10320000BDF81E1008449DF80310FFF737FE014675
:10321000BDF81E000844ADF81E00FFE70198013814
:103220000190DFE70E99BDF81E20501CADF81E007E
:103230007D208854BDF81E000A99088016E01220EF
:103240008DF8250006989DF8251009049DF82F207B
:1032500041EA02219DF82E201144BDF81C30BDF832
:10326000262042EA034200F007F8FFE7FFE79DF857
:1032700025000CB080BD000080B584B003900291A1
:1032800001920398406830B1FFE7039842680298C2
:1032900001999047FFE704B080BD000080B58AB077
:1032A0008DF827008DF826108DF825200893002032
:1032B00007900421ADF81A109DF8272040F2540120
:1032C000C2F2000101EB42110591059909699DF8CF
:1032D000262002EB820201EB820104918DF80F009F
:1032E000FFE79DF80F009DF82510884225DAFFE7DB
:1032F000049880689DF80F10405C8DF80E009DF8D2
:103300000E200899086810440860BDF81A000130C2
:10331000ADF81A009DF80E0000F0A4F830B1FFE7F8
:10332000BDF81A000130ADF81A00FFE7FFE79DF87D
:103330000F0001308DF80F00D3E70498C07800F03B
:1033400041F80790089908684042079A10400860C1
:103350000498C07801380290FFE70298002820D432
:10336000FFE7089800680299C900FF228A401040D0
:10337000C8408DF80700BDF81A000130ADF81A00FA
:103380009DF8070000F06EF830B1FFE7BDF81A00B5
:103390000130ADF81A00FFE7FFE70298013802900C
:1033A000DBE70598C07B012807D1FFE7BDF81A00CD
:1033B00040000130ADF81A00FFE7BDF81A000AB06E
:1033C00080BD000082B08DF80700FF2000909DF8BE
:1033D0000700022804DBFFE701208DF80700FFE764
:1033E000FFE79DF8070001388DF80700000640B19F
:1033F000FFE7009800020090009840F0FF00009066
:10340000EFE7009802B0704782B001908DF803108A
:103410008DF80220FF208DF8010000208DF80000BB
:10342000FFE79DF800009DF80310884216DAFFE7D9
:103430009DF8020001999DF800201201895C8842E4
:1034400005D1FFE79DF800008DF8010006E0FFE7D9
:103450009DF8000001308DF80000E2E79DF80100C2
:1034600002B0704781B08DF802009DF802007B2801
:103470000AD0FFE79DF802007C2805D0FFE79DF801
:1034800002007D2804D1FFE701208DF8030003E04E
:1034900000208DF80300FFE79DF8030001B070479E
:1034A00083B002908DF807100299C87F00F0FE00EB
:1034B000C8770299C87F00F0FB00C8770298407F68
:1034C000FF2826D0FFE702998869497F00EB0110A9
:1034D00000900099002008719DF807200099C87895
:1034E00002F0010200F0FB0040EA8200C8709DF883
:1034F0000700B0FA80F042090099C87800F0FD009A
:1035000040EA4200C8700099C87800F0FE00C87018
:10351000FFE70299FF20487702990020887703B0DF
:103520007047000080B58AB08DF827008DF826100E
:1035300000208DF825009DF82700002800F37B81EE
:10354000FFE79DF8271040F25400C2F2000000EBA4
:10355000411008900898C07F4008C007002840F03C
:103560005881FFE79DF826007B2820D1FFE70898C7
:10357000C07FC00788B1FFE70898407FFF280CD0C4
:10358000FFE70898417F01F5F6021021FFF774FE6E
:1035900008980121FFF784FF05E00899C87F40F0F3
:1035A0000100C877FFE70899FF20487730E10898C5
:1035B000C07FC007002800F02981FFE79DF82600A2
:1035C0007C280CD1FFE70898C07F8008C00730B185
:1035D000FFE70899C87F40F00200C87715E19DF821
:1035E00026007D2840F08C80FFE708998869497F94
:1035F00000EB011007900898807F8DF81B0007985A
:1036000080788DF81A00079800799DF81B109DF8B6
:103610001A20114488425DD1FFE7002005900490F4
:103620009DF81A00012833DBFFE79DF81A00FFF729
:10363000C9FE0390079880689DF81B10FFF77EFC79
:1036400003990840049000208DF80B00FFE79DF8D7
:103650000B009DF81A10884215DAFFE70598000262
:103660000590079880689DF81B109DF80B20114469
:10367000415C059808430590FFE79DF80B00013079
:103680008DF80B00E3E70399059808400590FFE7E4
:1036900005980499884210D1FFE70798C06838B1AF
:1036A000FFE707988168C2689DF81B009047FFE715
:1036B00008980021FFF7F4FE0BE008980121FFF7BE
:1036C000EFFE0898417F01F57021049AFFF7D4FDC1
:1036D000FFE714E008980799097909049DF81B2071
:1036E00041EA02219DF81A20114401F1FA42102109
:1036F000FFF7C2FD08980121FFF7D2FEFFE783E044
:103700000898407FFF281ED1FFE708998869097F44
:103710009DF82620FFF778FE089948770898407FA3
:10372000FF280FD1FFE708980121FFF7B9FE08989D
:103730009DF827209DF8261041EA02420D21FFF74F
:103740009BFDFFE75FE00898C07F8008C007002866
:1037500052D1FFE79DF826008DF80A0001208DF870
:10376000090008998869497F00EB011001900198D0
:1037700040789DF80A1088420BD0FFE70198407806
:10378000E0B9FFE79DF80A000899897B884215DCBB
:10379000FFE7019880789DF80910884204D0FFE780
:1037A0000198807850B9FFE70899C87F40F004007D
:1037B000C8779DF80A00089988771CE008980121CD
:1037C000FFF76EFE08989DF827100906427F41EA30
:1037D00002419DF8262041EA0221019B5A7893F884
:1037E00002C06FF03F0303EB8C131A430A430E2110
:1037F000FFF742FDFFE705E008989DF8261000F06E
:1038000083F8FFE7FFE7FFE7FFE700E0FFE7FFE7F9
:1038100010E00898407FFF2806D0FFE708989DF841
:10382000261000F071F8FFE70899C87F00F0FD004E
:10383000C877FFE7FFE79DF825000AB080BD0000CC
:1038400080B584B08DF80F000291ADF806200020FD
:103850008DF805008DF80400BDF80600C007E0BB38
:10386000FFE7FFE7BDF80600012835DBFFE7029818
:10387000027841784FF60050CFF6FF7000EB02104F
:10388000303908438DF804009DF80F009DF80410AE
:10389000FFF748FE8DF80500029802300290BDF84F
:1038A00006000238ADF806000298407898B9FFE7A4
:1038B000029801784FF60050CFF6FF7000EB011030
:1038C0008DF804009DF80F009DF80410FFF72AFE04
:1038D0008DF8050000E0C5E703E00B208DF805003A
:1038E000FFE79DF8050004B080BD000080B582B000
:1038F0000190ADF802100199BDF802200020FFF7F9
:103900009FFF02B080BD000080B584B003908DF8A9
:103910000B1000208DF80A0003998869497F00EB9D
:10392000011001900198827800790399897F1144F0
:10393000884213D1FFE710208DF80A0003989DF804
:103940000A10019A13799DF80B2042EA0342FFF70F
:1039500093FC03980121FFF7A3FD0AE09DF80B00FB
:10396000019A916812798854019908790130087197
:10397000FFE79DF80A0004B080BD000080B58CB060
:103980008DF82E008DF82D100A928DF827309DF8B5
:103990002E009DF82D100A9A9DF8273000F0E4F8CB
:1039A0008DF826009DF8260000286ED1FFE79DF8CF
:1039B0002E1040F25400C2F2000000EB41100890BB
:1039C000089800699DF82D1001EB810100EB810042
:1039D000079008988089ADF81A00089880680590CB
:1039E0000020ADF812000898C07F0009C00730B968
:1039F000FFE70899C87F40F01000C87703E0012076
:103A00008DF82F0061E09DF82E009DF82D109DF897
:103A10002720059BBDF81AE0EC46CCF804E0CCF872
:103A200000300DF11203FFF7AFFA8DF826009DF874
:103A3000260098B9FFE708980268BDF812000599BA
:103A400090478DF826009DF8260030B9FFE70799CA
:103A5000087940F010000871FFE700E0FFE79DF8EB
:103A6000260088B1FFE70899C87F00F0EF00C8770B
:103A700008989DF826109DF82E309DF82D2042EADA
:103A80000342FFF7F9FBFFE71AE09DF82E0000283C
:103A900015DCFFE79DF82E1040F25400C2F2000042
:103AA00000EB4110039003989DF826109DF82E30EE
:103AB0009DF82D2042EA0342FFF7DEFBFFE7FFE718
:103AC0009DF826008DF82F00FFE79DF82F000CB021
:103AD00080BD000080B584B08DF80F009DF80F0008
:103AE00000283EDCFFE79DF80F1040F25400C2F2C0
:103AF000000000EB411002900299C87F00F0EF0037
:103B0000C87700208DF80700FFE79DF807000299AD
:103B1000097D884224DAFFE7029800699DF80710C2
:103B200001EB810100EB8100009000980079000911
:103B3000C00770B1FFE70099087900F0EF00087145
:103B40000098C06820B1FFE70098C0688047FFE791
:103B5000FFE7FFE79DF8070001308DF80700D4E785
:103B6000FFE704B080BD000080B586B08DF8170077
:103B70008DF8161004928DF80F3014208DF80E0079
:103B80009DF81700002869DCFFE79DF8171040F248
:103B90005400C2F2000000EB411002909DF81600A4
:103BA0000299097D884254DAFFE7029800699DF87E
:103BB000161001EB810100EB810001909DF80F00D0
:103BC0000199497888420FD0FFE701984078D8BB27
:103BD000FFE79DF80F00B8B3FFE79DF80F000299CB
:103BE000897B884230DCFFE7002000900198006963
:103BF00048B1FFE70198026904980DF10F01904761
:103C00008DF80E0003E000208DF80E00FFE79DF810
:103C10000E00C0B9FFE700200090FFE700989DF874
:103C20000F1088420BDAFFE70498009A805C019934
:103C300089688854FFE7009801300090EEE7002083
:103C40008DF80E00FFE703E00E208DF80E00FFE771
:103C500003E010208DF80E00FFE703E011208DF83F
:103C60000E00FFE79DF80E0006B080BD82B0019007
:103C70008DF803109DF80300000930300199087099
:103C80009DF80300032161F31F100199487002B0F1
:103C90007047000080B582B00190019800F0AAF84A
:103CA00002B080BD81B08DF803009DF8030040F2A2
:103CB000BF31C2F200010B7840F28D32C2F2000235
:103CC000D05408780130087001B0704780B582B0D8
:103CD0000190FFE70198007840B1FFE70198007874
:103CE000FFF7E0FF019801300190F3E702B080BDDB
:103CF00080B501F0FFF880BD80B586B0059000204A
:103D0000CDF80F00039002900190FFE7059858B39B
:103D1000FFE701980090FFE7009801280BDBFFE721
:103D2000009A02A9881810F8010C8854FFE700983F
:103D300001380090F0E705984CF6CD41CCF6CC4127
:103D4000A0FB0132D20802EB8202A0EB420040F05D
:103D500030008DF808000598A0FB0110C008059000
:103D6000019801300190D1E7019820B1FFE702A846
:103D7000FFF790FF06E045F22700C0F60000FFF7CE
:103D800089FFFFE706B080BD80B582B00190009149
:103D900000F01CF80198FFF799FF3A20FFF782FF27
:103DA00000F03AF80098FFF7A7FF45F21E00C0F6B2
:103DB0000000FFF76FFF02B080BD000080B582B049
:103DC00001900198FFF766FF02B080BD40F2BF315D
:103DD000C2F20001002008707047000080B582B078
:103DE0008DF807009DF807100120FEF789FF02B04B
:103DF00080BD000080B582B00190FFE70198007897
:103E000038B1FFE70198411C01910078FFF7E6FF08
:103E1000F4E702B080BD000080B582B040F2BF3050
:103E2000C2F200000090027840F28D30C2F2000031
:103E3000002101918154FFF72DFF0099019808702E
:103E400002B080BD80B582B08DF8070000208DF8EB
:103E5000060000F0BBF800F00FF99DF8070018BB52
:103E6000FFE703208DF80500FFE79DF80500072810
:103E70000DDCFFE79DF805009DF8071000F054F8F1
:103E8000FFE79DF8050001308DF80500EDE746F2EB
:103E90000000C0F6000000F059FF20B1FFE701204C
:103EA0008DF80600FFE728E09DF80700012823D1E0
:103EB000FFE70A208DF80400FFE79DF804000F28B3
:103EC0000DDCFFE79DF804009DF8071000F02CF8CA
:103ED000FFE79DF8040001308DF80400EDE744F29F
:103EE0000000C0F6010000F031FF20B1FFE7012023
:103EF0008DF80600FFE7FFE7FFE700F0BDF800F0F0
:103F000005F89DF8060002B080BD000042F22800CE
:103F1000C4F20200016841F0010101600068C007BD
:103F200008B9FFE7FFE7704783B08DF80B008DF805
:103F30000A1000208DF809009DF80A00F0B9FFE78B
:103F400042F22801C4F20201019108684EF23F02D8
:103F5000C7F6FF7210400860086840F0040008606F
:103F60009DF80B20086840EA82100860086840F05D
:103F70002000086001208DF809001CE042F22801B1
:103F8000C4F202010091086820F4FE50086008683D
:103F90000422C8F20002104308609DF80B20086854
:103FA00040EA82100860086840F0200008600120A4
:103FB0008DF80900FFE742F22801C4F20201002057
:103FC00008609DF8090003B07047000042F2280025
:103FD000C4F202000068C007C0B1FFE742F204016A
:103FE000C4F2020140F22310C4F26750086048F6A0
:103FF000AB10CCF6EF50086042F22800C4F2020089
:104000000068C00708B1FFE7FFE7FFE7704700005F
:1040100082B00190009142F22801C4F202010868C6
:1040200040F0020008600098019A1060086820F0D3
:104030000200086002B0704740F61001C4F202416D
:10404000086820F030000860FFE740F61400C4F272
:10405000024000680007002801D4FFE7F5E742F2BC
:104060000001C4F20201086840F01000086008680E
:1040700040F003000860704781B000208DF8030015
:10408000FFE742F22000C4F20200006810F00B0FBC
:1040900001D0FFE7F5E742F22000C4F20200006819
:1040A00010F4F01F09D0FFE742F23001C4F2020120
:1040B000086840F4F0100860FFE742F22000C4F204
:1040C00002000068C003002808D5FFE742F2300173
:1040D000C4F202014FF480300860FFE701208DF840
:1040E00003009DF8030001B07047000082B001900A
:1040F00000200090019800680090009802B070477E
:1041000080B582B08DF807008DF8061000208DF87C
:104110000500FFF75BFFFFF7AFFF9DF807009DF875
:104120000610FFF701FF20B1FFE701208DF8050021
:10413000FFE7FFF7A1FFFFF7E9FE9DF8050002B0DA
:1041400080BD000080B540F68C41C4F20241086891
:1041500040F00100086000F0DDFC80BD85B00490F7
:10416000039100200090FFE7039800680099C84081
:10417000002800F05881FFE703980068009A0121A9
:104180009140084001900198002800F04881FFE725
:1041900003984068022805D0FFE70398406812287A
:1041A00028D1FFE7049800996FF0030202EA510159
:1041B0000844006A0290009800F0070081000F2078
:1041C00000FA01F10298884302900398006900F018
:1041D0000F00009901F00701890000FA01F102982F
:1041E0000843029002980499009B02EA530211448A
:1041F0000862FFE7049800680290009841000320DD
:1042000000FA01F10298884302900398406800F098
:1042100003000099490000FA01F102980843029056
:104220000298049908600398406801280FD0FFE7BE
:104230000398406802280AD0FFE7039840681128D5
:1042400005D0FFE70398406812282FD1FFE70498B4
:104250008068029000984100032000FA01F1029862
:10426000884302900398C0680099490000FA01F160
:104270000298084302900298049988600498406864
:1042800002900099012000FA01F1029888430290FF
:1042900003984068C0F30010009900FA01F10298F9
:1042A00008430290029804994860FFE70398406829
:1042B000032818D0FFE70498C068029000984100D6
:1042C000032000FA01F10298884302900398806865
:1042D0000099490000FA01F10298084302900298FF
:1042E0000499C860FFE70398C079C006002840F130
:1042F0009580FFE7009820F0030042F26002C4F2CC
:10430000024280580290009800F00300C1000F2084
:1043100000FA01F102988843029004984FF6004198
:10432000CBF6FD510840800A009901F00301C90055
:1043300000FA01F10298084302900298009921F0D6
:104340000301885042F20000C4F20240006802906B
:10435000019902988843029003988079C00600284A
:1043600005D5FFE70199029808430290FFE70298FC
:1043700042F20001C4F20241086042F20400C4F2B9
:1043800002400068029001990298884302900398C5
:1043900080798006002805D5FFE701990298084337
:1043A0000290FFE7029842F20401C4F20241086061
:1043B00042F28400C4F2024000680290019902981F
:1043C00088430290039880798007002805D5FFE78D
:1043D0000199029808430290FFE7029842F2840193
:1043E000C4F20241086042F28000C4F20240006858
:1043F0000290019902988843029003988079C0073F
:1044000028B1FFE70199029808430290FFE702985C
:1044100042F28001C4F202410860FFE7FFE7009822
:1044200001300090A0E605B07047000080B586B06E
:1044300000208DF81700ADF814000490039040F2AE
:104440004830C2F20000029040F24030C2F2000058
:104450000068049002998888C9880844ADF814005F
:10446000BDF8140001900498103000F045F90146A1
:1044700001980844404203900298C068039988421A
:1044800004D1FFE701208DF81700FFE79DF8170022
:1044900006B080BD80B5FFF7CFFDFEF78DFC00F0C4
:1044A000B9FCFEF7BDFC40F26831C2F200010870B1
:1044B000FFF748FE00F04EFB00F08AF900F0C0F86C
:1044C00000F0DEF980BD000080B586B00490039155
:1044D00000200290019072B6FFF778FDFFF7CCFD47
:1044E000FFE70198032810D8FFE7049803990A1DF5
:1044F00003920968FFF78CFD049804300490049837
:104500000290019801300190EBE7FFF7B5FDFFF74E
:10451000FDFC62B6029818B1FFE70298059002E030
:1045200000200590FFE7059806B080BD80B584B0F7
:10453000039040F24830C2F2000002900020019047
:1045400040F24030C2F200000068019040F23E307C
:10455000C2F200000078012844D1FFE70198FFF77C
:10456000C5FD0299086001980430FFF7BFFD02996C
:10457000888001980430FFF7B9FD000C0299C880CB
:1045800001980830FFF7B2FD0299087201980C30CB
:10459000FFF7ACFD0299C86001981030019000202F
:1045A0008DF80300FFE79DF80300032813DCFFE705
:1045B0000198FFF79BFD02999DF8032001EB820112
:1045C0000861019804300190FFE79DF80300013075
:1045D0008DF80300E7E740F23E31C2F2000100200F
:1045E0000870FFE704B080BD80B584B000208DF86E
:1045F0000F0040F27400C2F20000029040F2483016
:10460000C2F200000190FFF711FF012813D1FFE76C
:1046100040F24030C2F200000068203002994A683F
:1046200040F27401C2F200010C3100F013F80120D5
:104630008DF80F00FFE79DF80F0004B080BD00006B
:1046400080B540F24431C2F200010120087000F050
:104650002BF880BD80B586B00590049103920020B0
:104660000290019072B6FFF7B1FCFFF705FDFFE77E
:1046700001980399884210D2FFE7059804990A1D12
:1046800004920968FFF7C4FC05980430059005986A
:104690000290019801300190EAE7FFF7EDFCFFF787
:1046A00035FC62B606B080BD80B582B040F27400C1
:1046B000C2F2000000900098007A012814D1FFE7B0
:1046C00040F23E31C2F200010120087040F2443055
:1046D000C2F200000078012805D1FFE79DF807002D
:1046E000FFF724FFFFE7FFE740F24431C2F2000189
:1046F0000020087002B080BD80B584B00390002017
:104700008DF80B00019040F2C031C2F20001087038
:10471000FFE79DF80B00032823DCFFE70398FFF772
:10472000E5FC0130A0B1FFE70398FFF7DFFC78B1AB
:10473000FFE70398FFF7DAFC01460198084401906F
:1047400040F2C031C2F20001087801300870FFE782
:104750000398043003909DF80B0001308DF80B0096
:10476000D7E7019804B080BD80B584B00390029172
:10477000029800EB400140F2A000C2F2000000EB02
:10478000C100019040F23F30C2F2000000780128E1
:104790001CD1FFE70398FFF7A9FC01994881039812
:1047A000FFF7A4FC000C0199888103980430FFF7FF
:1047B0009DFC01990861039808300199486140F215
:1047C0003F31C2F2000100200870FFE704B080BD55
:1047D00080B500F001F880BD80B582B000208DF872
:1047E0000700FFE79DF80700012829DCFFE79DF897
:1047F000070000EB400140F2A000C2F2000000EB15
:10480000C100009040F23F31C2F200010120087067
:104810000099097AB0EBD11F0BD1FFE7009800682F
:104820000021C0F6010108439DF80710FFF79CFF27
:10483000FFE7FFE79DF8070001308DF80700D1E79B
:1048400002B080BD40F62001C4F20241086840F089
:10485000010008607047000040F62401C4F20241E4
:10486000086820F0010008607047000040F624014D
:10487000C4F20241086840F001000860704700007F
:1048800080B582B000208DF80700FFE79DF8070093
:10489000012834DCFFE79DF8070000EB400140F2FF
:1048A0000000C2F2000000EBC10000900098006818
:1048B000FFF71CFC00994860009800680430FFF77F
:1048C00015FC00998860009800680830FFF70EFC1E
:1048D0000099C860009800680C30FFF707FC009949
:1048E0000861009800681030FFF700FC00994861EB
:1048F000FFE79DF8070001308DF80700C6E702B01A
:1049000080BD000081B04EF68851CEF200010868EB
:1049100040F47000086040F60042C4F202420120F8
:10492000106040F61C41C4F202410020086040F6CD
:104930002041C4F20241086011684EF6E323CFF62D
:10494000E2231940116040F62841C4F20241086098
:1049500040F62C41C4F20241086040F63443C4F2F0
:10496000024340F28021C0F20111196040F6384341
:10497000C4F20243186040F63C43C4F2024319609B
:1049800040F64041C4F202410860116821F48021E0
:10499000116040F65041C4F2024108604EF60851E1
:1049A000CEF2000142F20000C0F60000086042F2C0
:1049B0001800C4F20200006800F060400090009807
:1049C000B0F1604F05D0FFE70098B0F1404F24D11F
:1049D000FFE742F21C00C4F202000068C00778B191
:1049E000FFE742F20C01C4F2020142F63B20C0F69E
:1049F0001900086046F67F60C4F65D400860FFE776
:104A000042F21C01C4F20201086840F00200086092
:104A1000086840F001000860FFE701B0704700003F
:104A200080B582B072B644F61C00C4F20000006883
:104A3000800600280DD5FFE744F62400C4F20000EC
:104A400000688DF807009DF807100020FEF758F960
:104A5000FFE762B602B080BD80B584B0002002904E
:104A6000FEF792F9039003980168427940F274309E
:104A7000C2F200000190FDF780FC0198FDF75EFC9A
:104A80000146019889B2FEF731FF01990298087634
:104A900048610861C86088604860086003980068E1
:104AA00020B1FFE70020FEF777F8FFE704B080BDF4
:104AB00081B08DF8030000208DF8020044F61C0040
:104AC000C4F200000068000600281ED5FFE79DF82C
:104AD000030044F62801C4F200010860FFE744F631
:104AE0001C00C4F2000000684006002801D4FFE763
:104AF000F5E744F62001C4F20001086840F04000E8
:104B0000086001208DF80200FFE79DF8020001B067
:104B10007047000080B586B0002005900490039097
:104B20000290019040F69C42C4F202424FF4802170
:104B300011601821019103900D210591022102912C
:104B400004900020C4F2022001A9FFF707FB06B081
:104B500080BD000080B544F60001C4F200014FF0B2
:104B60000050086044F60802C4F200024FF088408A
:104B7000106008680860086840F40040086044F667
:104B80000C02C4F2000240F253401060086840F08A
:104B90000C000860086840F02000086044F6040239
:104BA000C4F20002106820F440501060086840F021
:104BB000010008603C2000F015F940F26A31C2F2B1
:104BC00000010120087080BD80B588B0079040F2D8
:104BD0007400C2F20000069040F24830C2F20000B9
:104BE000059000208DF81300039002900190009032
:104BF00040F24030C2F2000000680390039843F690
:104C0000F571C0F60101884207D8FFE740F2403055
:104C1000C2F200000068039024E0039843F6CF71CD
:104C2000C0F60101884212D3FFE7039844F2000165
:104C3000C0F6010188420AD8FFE740F24031C2F2D3
:104C4000000143F6E070C0F60100086009E0039837
:104C500046F20101C0F60101884201D3FFE7FFE7F8
:104C6000FFE7FFE7059800680699C8600598007A95
:104C7000FE280ADCFFE70598007A013006990875DE
:104C8000059880880699088212E006990020087528
:104C900005988088FE2806DCFFE7059880880130AB
:104CA0000699088203E0069900200882FFE7FFE7E3
:104CB000079846F20001C0F6000188420FD3FFE7D3
:104CC00007984FF6FF71C0F60001884207D8FFE74A
:104CD000069941F21110CAF6AA20C86117E0079898
:104CE00046F20001C0F6010188420FD3FFE70798A2
:104CF0004FF6FF71C0F60101884207D8FFE7069919
:104D000042F22220CAF6AA20C861FFE7FFE706990F
:104D1000042048820699088A498A0844019001982B
:104D20000699C9690844019001984042029002988E
:104D300006998861FFF758FC20B1FFE701208DF844
:104D40001300FFE79DF8130008B080BD86B0049003
:104D5000049846F20001C0F60001884219D1FFE72D
:104D600004980390049800F520400290FFE7039810
:104D7000029988420CD2FFE703980068013018B10D
:104D8000FFE70020059029E0039804300390EEE748
:104D900021E0049844F20001C0F60101884219D1D3
:104DA000FFE704980190049800F540400090FFE769
:104DB0000198009988420CD2FFE701980068013001
:104DC00018B1FFE70020059008E001980430019039
:104DD000EEE7FFE7FFE701200590FFE7059806B043
:104DE0007047000081B0ADF80200BDF90200002854
:104DF0000ED4FFE7BDF9021001F01F020120904020
:104E00004A094EF20011CEF2000141F82200FFE7FC
:104E100001B0704780B582B0FFF7D8F8FFF726FDE4
:104E200040F68841C4F202410191086840F0805088
:104E30000860FFF707FD0199086820F080500860BE
:104E4000FFF70AFDFFF762F802B080BD80B582B0BF
:104E500001900091FFF70AFD40F68841C4F202413B
:104E6000086840F08050086001980068009A10605F
:104E7000086820F080500860FFF7EEFC02B080BDAB
:104E800080B582B001900091FFF7F0FC40F68841B8
:104E9000C4F20241086840F0805008600098019A0E
:104EA0001060086820F080500860FFF7D5FC02B061
:104EB00080BD000084B003900291002001908DF825
:104EC0000300FFE79DF80300029988420FD2FFE735
:104ED000019803999DF8032051F82210084401908D
:104EE000FFE79DF8030001308DF80300EAE7019821
:104EF00004B0704780B582B0FFE70120FDF772FF74
:104F000080B1FFE700208DF8070001200DF10701B7
:104F1000FDF7A8FE28B1FFE79DF80700FFF7C8FDE1
:104F2000FFE7EAE702B080BD81B000200090FFE714
:104F3000009843F2FF41C0F20C01884205D8FFE718
:104F4000FFE7009801300090F2E701B070470000E1
:104F500080B584B000200390FFF79CFA40F248111E
:104F6000C2F20001019146F20440C4F20300FFF7CF
:104F70006DFF01980068B0F10B3F19D1FFE744F6CF
:104F8000E270C0F60000FEF719FF40F24710C2F2CF
:104F90000000029002990C200870FDF78DFD46F28A
:104FA0000440C4F203004FF0FF31FFF769FFFFE751
:104FB000FFE7FFF7B9FFFFF74FFDFDF7A1FAFEF797
:104FC00097FEFFF7B1FFF4E7F1EE100A4FF6FF711D
:104FD000C0F2C03120EA010040F04070E1EE100A5A
:104FE00070477666795F626B70004572726F725FB0
:104FF0006E6F74004F4B0A0049646C650A0045727D
:105000006173650A00466C6173680A00545F636FE0
:105010006D0A00576169740A0053746172740A0062
:1050200046436B53756D003000000000505000087F
:1050300000000020D0000000942200082051000849
:10504000D0000020F8080000B02200080000000096
:1050500000600008000000000000000000000000E8
:1050600000000000000000000060010800000000D7
:105070000000000000000000000000000000000030
:10508000B31501000000000024030020592A000885
:10509000B5010001000000003A03002000000000FC
:1050A00000000000E92A0008E5240008240200208E
:1050B0000001FF014000002001000000300000203E
:1050C00001FF0000000000000800000001000000D7
:1050D000A1A1A1A10000000000000000000000004C
:1050E00000000000000000000000000000000000C0
:1050F0000000000010000000800000000000000020
:10510000000000000000000040000000240000003B
:10511000800001000000000000000000000000000E
:040000050800225974
:00000001FF
