:020000040800F2
:1000000010070020F902000801030008030300089C
:1000100005030008070300080903000800000000AA
:100020000000000000000000000000000D030008B8
:100030000F0300080000000011030008130300086C
:100040001503000815030008150300080000000050
:100050001503000815030008150300080000000040
:100060001503000815030008000000001503000830
:100070001503000815030008150300081503000800
:1000800015030008150300081503000815030008F0
:1000900015030008150300081503000815030008E0
:1000A00015030008150300081503000815030008D0
:1000B00015030008150300081503000815030008C0
:1000C00015030008150300081503000815030008B0
:1000D00000000000150300081503000815030008C0
:1000E0001503000815030008150300081503000890
:1000F00015030008150300081503000800000000A0
:10010000000000001503000815030008150300088F
:10011000150300081503000815030008150300085F
:10012000150300081503000815030008150300084F
:10013000150300080000000000000000150300087F
:10014000150300080000000000000000000000008F
:10015000000000000000000015030008000000007F
:10016000000000000000000015030008150300084F
:10017000000000000000000000000000000000007F
:10018000000000000000000000000000000000006F
:10019000000000000000000000000000000000005F
:1001A000000000000000000015030008150300080F
:1001B00015030008150300081503000815030008BF
:1001C00015030008150300080000000000000000EF
:1001D00000000000000000000000000015030008FF
:1001E00015030008000000000000000000000000EF
:1001F00000000000000000000000000000000000FF
:1002000000000000150300081503000800000000AE
:1002100000000000150300080000000000000000BE
:1002200000000000000000000000000015030008AE
:10023000150300080000000000000000000000009E
:10024000000000000000000000000000150300088E
:10025000150300081503000800F002F800F03CF850
:100260000AA090E8000C82448344AAF10107DA4511
:1002700001D100F031F8AFF2090EBAE80F0013F027
:10028000010F18BFFB1A43F0010318472C1200009E
:100290004C120000103A24BF78C878C1FAD852072F
:1002A00024BF30C830C144BF04680C6070470000F0
:1002B0000023002400250026103A28BF78C1FBD86F
:1002C000520728BF30C148BF0B6070471FB501F00F
:1002D000E6F81FBD10B510BD00F033F81146FFF76A
:1002E000F5FF00F0A3FF00F051F803B4FFF7F2FFB1
:1002F00003BC00F059F800000A4880470A4800474C
:10030000FEE7FEE7FEE7FEE7FEE7FEE7FEE7FEE7C5
:10031000FEE7FEE7FEE7000004480549054A064BF4
:1003200070470000390F0008590200081001002032
:1003300010070020100300201003002070477047B2
:100340007047754600F02CF8AE46050069465346E6
:1003500020F00700854618B020B5FFF7DDFFBDE8A7
:1003600020404FF000064FF000074FF000084FF01C
:10037000000BAC46ACE8C009ACE8C009ACE8C00969
:10038000ACE8C00921F007018D46704710B504465E
:10039000AFF300802046BDE81040FFF7A6BF000085
:1003A000004870479000002001491820ABBEFEE7CE
:1003B000260002007047000080B584B00390002042
:1003C00002900190FFE703980068013058B1FFE701
:1003D000039800F0C5F8014601980844019003987D
:1003E00004300390EFE70198404204B080BD000064
:1003F00081B040F24800C2F20000009040F2F000EC
:10040000C2F20000006846F20001C0F60001884216
:1004100013D3FFE740F2F000C2F2000000684FF68D
:10042000FF71C0F60001884207D8FFE7009941F24A
:100430001110CAF6AA20C8611FE040F2F000C2F213
:100440000000006846F20001C0F60101884213D3A3
:10045000FFE740F2F000C2F2000000684FF6FF71C3
:10046000C0F60101884207D8FFE7009942F2222036
:10047000CAF6AA20C861FFE7FFE700990420488276
:100480000099C8694042886101B0704781B042F26A
:100490000000C0F601000090FFE7009845F6FF71EC
:1004A000C0F60101884211D8FFE700980068B0F15A
:1004B000A13F07D1FFE7009840F20011C2F200010E
:1004C0000860FFE7009804300090E6E701B070474D
:1004D00081B000208DF80300FFE742F22000C4F253
:1004E0000200006810F00B0F01D0FFE7F5E742F2C1
:1004F0002000C4F20200006810F4F01F09D0FFE7EA
:1005000042F23001C4F20201086840F4F0100860C1
:10051000FFE742F22000C4F202000068C003002896
:1005200008D5FFE742F23001C4F202014FF48030F7
:100530000860FFE701208DF803009DF8030001B07B
:100540007047000042F22800C4F20200016841F046
:10055000010101600068C00708B9FFE7FFE77047C5
:1005600081B000900098006801B0704783B08DF8AA
:100570000B008DF80A1000208DF809009DF80A0084
:10058000F0B9FFE742F22801C4F2020101910868C4
:100590004EF23F02C7F6FF7210400860086840F054
:1005A000040008609DF80B20086840EA821008608B
:1005B000086840F02000086001208DF809001FE065
:1005C00042F22801C4F20201009108684EF23F0293
:1005D000C7F6FF721040086008680422C8F20002E3
:1005E000104308609DF80B20086840EA82100860FC
:1005F000086840F02000086001208DF80900FFE73E
:1006000042F22801C4F20201002008609DF80900AE
:1006100003B0704742F22800C4F202000068C0072D
:10062000C0B1FFE742F20401C4F2020140F223101C
:10063000C4F26750086048F6AB10CCF6EF50086083
:1006400042F22800C4F202000068C00708B1FFE7C8
:10065000FFE7FFE77047000082B00190009142F28F
:100660002801C4F20201086840F002000860009806
:10067000019A1060086820F00200086002B070471C
:1006800080B582B08DF807008DF8061000208DF837
:100690000500FFF7BFFFFFF71BFF9DF807009DF860
:1006A0000610FFF763FF20B1FFE701208DF805007A
:1006B000FFE7FFF70DFFFFF745FF9DF8050002B0CC
:1006C00080BD000080B500F029FDFFF7DFFE00F0DF
:1006D00049FA00F08DF900F06DFB80BD80B584B063
:1006E00040F20000C2F20000039000208DF80B00E1
:1006F0000399886809690191FFF75EFE0146019838
:10070000884204D1FFE701208DF80B00FFE79DF838
:100710000B0004B080BD000080B584B040F2000042
:10072000C2F20000029000200190029880684068A8
:100730000190019840F2F401C2F2000100910860BA
:1007400072B600F05DFA00F08BFB009802998968A0
:100750004EF60852CEF20002116062B60299896824
:1007600009680391039981F308880068804704B001
:1007700080BD000080B584B040F20000C2F20000ED
:100780002430029000200190029880684068019017
:10079000019840F2F801C2F200010091086072B6BF
:1007A00000F02EFA00F05CFB0098029989684EF682
:1007B0000852CEF20002116062B602998968096897
:1007C0000391039981F308880068804704B080BDD5
:1007D00080B584B00020029042F20400C0F6000010
:1007E00000680290029840F2FC01C2F200010191FF
:1007F000086072B600F004FA00F032FB01984EF681
:100800000852CEF2000242F20001C0F6000111606F
:1008100062B609680391039981F3088800688047EC
:1008200004B080BD80B582B0019040F24800C2F2B1
:1008300000000090019842F20001C0F601018842D8
:100840000FD3FFE7019843F6CF71C0F6010188424C
:1008500007D8FFE740F20010C2F2000000680190E4
:1008600053E0019843F6D171C0F60101884212D3DA
:10087000FFE7019844F20001C0F6010188420AD85E
:10088000FFE740F20011C2F2000143F6E070C0F64B
:100890000100086038E0019844F20001C0F601014F
:1008A00088420FD3FFE7019845F68F71C0F601012A
:1008B000884207D8FFE740F20010C2F2000000684B
:1008C000019020E0019845F69071C0F60101884240
:1008D00018D3FFE7019846F20001C0F601018842F3
:1008E00010D8FFE700F0B4F858B1FFE740F200116C
:1008F000C2F2000141F6E070C0F60100086001900C
:10090000FFE7FFE7FFE7FFE7FFE7019802B080BDE1
:1009100080B584B040F24800C2F20000039000208D
:100920000090029040F20010C2F2000000680290B5
:100930000298FFF715FE0399C86002980430FFF78C
:100940000FFE0399088202980430FFF709FE000C9D
:100950000399488202980830FFF702FE0399087550
:1009600002980C30FFF7FCFD01460098039A916154
:100970000299103102918DF80700FFE79DF80700FA
:10098000032813D8FFE70298FFF7EAFD03999DF8C3
:10099000072001EB8201C861029804300290FFE752
:1009A0009DF8070001308DF80700E7E704B080BD2F
:1009B00080B582B000208DF8070040F24801C2F2F5
:1009C0000001009140F20010C2F2000000682030E7
:1009D000009A52680C3100F00FF820B1FFE70120B7
:1009E0008DF80700FFE79DF8070002B080BD00000A
:1009F00080B500F061F880BD80B584B003900291AD
:100A0000019200208DF803008DF8020072B6FFF706
:100A100001FEFFF75DFDFFE7039802990A1D0292B0
:100A20000968FFF719FE0398043003900198013814
:100A30000190FFE701980028EED1FFE7FFF748FD9E
:100A4000FFF780FD62B601208DF8030004B080BD81
:100A500080B582B040F24800C2F200000190002050
:100A60008DF8030001210846FFF70AFEF8B1FFE701
:100A700042F20000C0F6010044F20001C0F601019C
:100A800000F02CFB90B1FFE740F20011C2F2000130
:100A900041F6E070C0F60100086040F20411C2F2B5
:100AA0000001012008708DF80300FFE7FFE79DF8C3
:100AB000030002B080BD000080B582B040F2480063
:100AC000C2F2000001900198007AC00718B1FFE758
:100AD000FFF71EFFFFE702B080BD000081B040F2CB
:100AE0004800C2F2000000900098007DFE2805DC5E
:100AF000FFE70099087D0130087511E0009900209A
:100B000008750098008AFE2805DCFFE70099088A2E
:100B10000130088203E0009900200882FFE7FFE728
:100B200001B0704780B584B00390029140F2740028
:100B3000C2F2000001900398FFF712FD019988812D
:100B40000398FFF70DFD000C0199C881039804304C
:100B5000FFF706FD01990861039808300199486183
:100B600004B080BD80B500F001F880BD80B582B0D2
:100B700000208DF80700FFE79DF8070000281EDC25
:100B8000FFE740F27400C2F2000000900098817903
:100B90000120B0EBD11F0BD1FFE7009800680021C6
:100BA000C0F6010108439DF80710FFF7BBFFFFE700
:100BB000FFE79DF8070001308DF80700DCE702B081
:100BC00080BD000040F62001C4F20241086840F0F8
:100BD000010008607047000040F62401C4F20241A1
:100BE000086820F0010008607047000040F624010A
:100BF000C4F20241086840F001000860704700003C
:100C000042F20000C4F20200006800F00F00022867
:100C10000AD8FFE742F20001C4F202010868032289
:100C200062F303000860FFE740F60041C4F20241AE
:100C3000086840F001000860FFE740F60040C4F299
:100C4000024000688007002801D4FFE7F5E740F67E
:100C50000041C4F20241086820F01800086040F624
:100C60001041C4F202414FF48000086040F61C417C
:100C7000C4F202410020086040F62041C4F2024163
:100C80000860FFE740F61C40C4F20240006810F024
:100C9000180F01D0FFE7F5E740F60041C4F202412A
:100CA00008684EF6FB22CFF6F6721040086008681E
:100CB00020F480100860086820F080700860FFE76A
:100CC00040F60040C4F2024000688001002801D5CF
:100CD000FFE7F5E740F60041C4F20241086820F062
:100CE00080600860FFE740F60040C4F20240006800
:100CF0000001002801D5FFE7F5E740F62841C4F2DE
:100D000002410020086040F63442C4F2024240F240
:100D10008021C0F20111116040F63842C4F2024253
:100D2000106040F62C42C4F20242106040F63C4291
:100D3000C4F20242116040F64041C4F20241086030
:100D400040F60042C4F20242116821F48021116091
:100D500040F65041C4F20241086040F65841C4F2E6
:100D600002414FF0FF30086040F6F441C4F2024106
:100D7000086840F40000086040F28C01C2F20001F3
:100D800049F20000C0F2D030086042F20000C4F224
:100D90000200006800F00F0004280AD3FFE742F2C7
:100DA0000001C4F202010868032262F30300086034
:100DB000FFE7704780B582B000208DF80700FFE79D
:100DC0009DF80700012849D8FFE79DF8070000EBD0
:100DD000C00140F20000C2F2000000EB8100009070
:100DE00000980068FFF7BCFB009948600098006815
:100DF0000430FFF7B5FB0099886000980068083060
:100E0000FFF7AEFB0099C860009800680C30FFF750
:100E1000A7FB00990861009800681030FFF7A0FB5D
:100E200000994861009800681430FFF799FB009919
:100E30008861009800681830FFF792FB0099C8613C
:100E4000009800681C30FFF78BFB00990862FFE7F1
:100E50009DF8070001308DF80700B1E702B080BDB2
:100E600080B582B000F0AAF94EF21001CEF2000176
:100E7000002008604EF60451CEF20001086840F0F0
:100E80000070086040F68C41C4F20241019108688C
:100E900020F001000860086820F00200086008687F
:100EA00020F004000860086820F008000860086866
:100EB00020F080000860FFE740F67441C4F2024170
:100EC0004CF2FF10CDF6FE70086040F67841C4F297
:100ED000024140F22B60C4F280000860FFE740F658
:100EE0007C41C4F2024147F60000C0F27F10086066
:100EF00040F68041C4F2024140F6E000C0F210002A
:100F00000860FFE740F67441C4F202410020086027
:100F100040F67841C4F202410860FFE740F67C41A8
:100F2000C4F202410020086040F68041C4F2024150
:100F3000086002B080BD000081B04EF68851CEF24C
:100F40000001086840F47000086040F60042C4F2F6
:100F500002420120106040F61C41C4F20241002010
:100F6000086040F62041C4F20241086011684EF664
:100F7000E323CFF6E2231940116040F62841C4F282
:100F80000241086040F62C41C4F20241086040F67C
:100F90003443C4F2024340F28021C0F201111960CF
:100FA00040F63843C4F20243186040F63C43C4F2B2
:100FB0000243196040F64041C4F2024108601168E2
:100FC00021F48021116040F65041C4F202410860D2
:100FD0004EF60851CEF200014FF00060086042F278
:100FE0001800C4F20200006800F060400090009811
:100FF000B0F1604F05D0FFE70098B0F1404F24D129
:10100000FFE742F21C00C4F202000068C00778B19A
:10101000FFE742F20C01C4F2020142F63B20C0F6A7
:101020001900086046F67F60C4F65D400860FFE77F
:1010300042F21C01C4F20201086840F0020008609C
:10104000086840F001000860FFE701B07047000049
:1010500080B584B040F24800C2F200000290002047
:101060008DF80700FFF73AFDFFF7C2F940F20010D4
:10107000C2F2000000900068FFF7D4FB00990860FE
:10108000FFF796FC08B3FFE740F20410C2F200003D
:101090000078012815D1FFE702200121FFF7F0FABF
:1010A00020B1FFE701208DF80700FFE740F20411AF
:1010B000C2F20001002008709DF807008DF80F00B3
:1010C00008E001208DF80700FFE79DF807008DF884
:1010D0000F00FFE79DF80F0004B080BD84B00290C0
:1010E000019102980090FFE70098019988420DD283
:1010F000FFE700980068013020B1FFE700208DF87D
:101100000F0007E0009804300090EDE701208DF813
:101110000F00FFE79DF80F0004B0704780B582B064
:10112000FFF778FAFFF762FD40F68841C4F202410A
:101130000191086840F080500860FFF743FD019975
:10114000086820F080500860FFF746FDFFF7FAF9C5
:1011500002B080BD80B582B001900091FFF746FDDE
:1011600040F68841C4F20241086840F080500860AF
:1011700001980068009A1060086820F080500860AC
:10118000FFF72AFD02B080BD80B582B001900091CA
:10119000FFF72CFD40F68841C4F20241086840F098
:1011A000805008600098019A1060086820F0805014
:1011B0000860FFF711FD02B080BD000081B0002083
:1011C0008DF80300FFE79DF803000F2811DCFFE70F
:1011D0009DF803204EF28011CEF200014FF0FF3057
:1011E00041F82200FFE79DF8030001308DF803006D
:1011F000E9E700208DF80300FFE79DF803000F28C2
:1012000011DCFFE79DF803204EF28021CEF20001B1
:101210004FF0FF3041F82200FFE79DF80300013056
:101220008DF80300E9E701B07047000080B58CB08D
:1012300000200B90FFF746FA40F20000C2F20000D7
:101240000A902430099040F24800C2F20000089051
:1012500040F20811C2F20001079146F20040C4F2C8
:101260000300FFF777FF07980068B0F1AA3F40D16D
:10127000FFE70A990868096906914030FFF79CF872
:101280000146069888420BD1FFE746F20440C4F2BB
:1012900003004FF00A31FFF777FFFFF73DFA27E031
:1012A00009990868096905914030FFF785F80146FA
:1012B000059888420BD1FFE746F20440C4F20300D0
:1012C0004FF00A31FFF760FFFFF754FA0FE0FFF726
:1012D00005FA58B1FFE746F20440C4F203004FF0AC
:1012E0000B31FFF751FFFFF773FAFFE7FFE7FFE767
:1012F000D3E040F20810C2F200000068B0F1BB3F3A
:1013000010D1FFE7FFF7EAF958B1FFE746F20440D2
:10131000C4F203004FF00B31FFF736FFFFF758FA26
:10132000FFE7B9E040F20810C2F200000068B0F137
:10133000FF3F00F2B080FFE740F20810C2F2000069
:1013400000680028C0F0A780FFE70898C06941F254
:101350001111CAF6AA21884249D1FFE70A99086803
:10136000096904914030FFF727F801460498884244
:101370000BD1FFE746F20440C4F203004FF00A31FC
:10138000FFF702FFFFF7C8F930E00999086809691B
:1013900003914030FFF710F801460398884219D1B5
:1013A000FFE740F2F001C2F2000146F20000C0F691
:1013B00001000860FFF74CFE58B1FFE746F2044019
:1013C000C4F203004FF00A31FFF7DEFEFFF7D2F957
:1013D000FFE70AE046F20440C4F203004FF00B318D
:1013E000FFF7D2FEFFF7F4F9FFE7FFE752E00898B6
:1013F000C06942F22221CAF6AA21884249D1FFE7F8
:1014000009990868096902914030FEF7D5FF014645
:10141000029888420BD1FFE746F20440C4F2030071
:101420004FF00A31FFF7B0FEFFF7A4F930E00A9958
:101430000868096901914030FEF7BEFF0146019836
:10144000884219D1FFE740F2F001C2F2000146F2F2
:101450000000C0F600000860FFF7FAFD58B1FFE792
:1014600046F20440C4F203004FF00A31FFF78CFE4D
:10147000FFF752F9FFE70AE046F20440C4F2030026
:101480004FF00B31FFF780FEFFF7A2F9FFE7FFE710
:10149000FFE7FFE7FFE7FFE7FFE7FFE7FEE7F1EE24
:1014A000100A4FF6FF71C0F2C03120EA010040F08F
:1014B0004070E1EE100A7047D814000800000020C8
:1014C00090000000940200086815000890000020B9
:1014D00080060000B0020008006000080000000064
:1014E00000000000000000000000000000000000FC
:1014F0000000000000000000000000000060010883
:1015000000000000000000000000000000000000DB
:1015100000000000000000000000000000000000CB
:10152000000000000800000001000000A1A1A1A12E
:1015300000000000000000000000000000000000AB
:10154000000000000000000000000000000000009B
:1015500010008000000000000000000000000000FB
:08156000000000000090D00320
:040000050800025994
:00000001FF
