:020000040800F2
:10000000F8060020F90200080103000803030008B5
:1000100005030008070300080903000800000000AA
:100020000000000000000000000000000D030008B8
:100030000F0300080000000011030008130300086C
:100040001503000815030008150300080000000050
:100050001503000815030008150300080000000040
:100060001503000815030008000000001503000830
:100070001503000815030008150300081503000800
:1000800015030008150300081503000815030008F0
:1000900015030008150300081503000815030008E0
:1000A00015030008150300081503000815030008D0
:1000B00015030008150300081503000815030008C0
:1000C00015030008150300081503000815030008B0
:1000D00000000000150300081503000815030008C0
:1000E0001503000815030008150300081503000890
:1000F00015030008150300081503000800000000A0
:10010000000000001503000815030008150300088F
:10011000150300081503000815030008150300085F
:10012000150300081503000815030008150300084F
:10013000150300080000000000000000150300087F
:10014000150300080000000000000000000000008F
:10015000000000000000000015030008000000007F
:10016000000000000000000015030008150300084F
:10017000000000000000000000000000000000007F
:10018000000000000000000000000000000000006F
:10019000000000000000000000000000000000005F
:1001A000000000000000000015030008150300080F
:1001B00015030008150300081503000815030008BF
:1001C00015030008150300080000000000000000EF
:1001D00000000000000000000000000015030008FF
:1001E00015030008000000000000000000000000EF
:1001F00000000000000000000000000000000000FF
:1002000000000000150300081503000800000000AE
:1002100000000000150300080000000000000000BE
:1002200000000000000000000000000015030008AE
:10023000150300080000000000000000000000009E
:10024000000000000000000000000000150300088E
:10025000150300081503000800F002F800F03CF850
:100260000AA090E8000C82448344AAF10107DA4511
:1002700001D100F031F8AFF2090EBAE80F0013F027
:10028000010F18BFFB1A43F001031847C411000007
:10029000E4110000103A24BF78C878C1FAD8520798
:1002A00024BF30C830C144BF04680C6070470000F0
:1002B0000023002400250026103A28BF78C1FBD86F
:1002C000520728BF30C148BF0B6070471FB501F00F
:1002D000B1F81FBD10B510BD00F033F81146FFF79F
:1002E000F5FF00F063FF00F051F803B4FFF7F2FFF1
:1002F00003BC00F059F800000A4880470A4800474C
:10030000FEE7FEE7FEE7FEE7FEE7FEE7FEE7FEE7C5
:10031000FEE7FEE7FEE7000004480549054A064BF4
:1003200070470000B90E000859020008F8000020CC
:10033000F8060020F8020020F802002070477047FD
:100340007047754600F02CF8AE46050069465346E6
:1003500020F00700854618B020B5FFF7DDFFBDE8A7
:1003600020404FF000064FF000074FF000084FF01C
:10037000000BAC46ACE8C009ACE8C009ACE8C00969
:10038000ACE8C00921F007018D46704710B504465E
:10039000AFF300802046BDE81040FFF7A6BF000085
:1003A000004870478000002001491820ABBEFEE7DE
:1003B000260002007047000080B584B00390002042
:1003C00002900190FFE703980068013058B1FFE701
:1003D000039800F0C5F8014601980844019003987D
:1003E00004300390EFE70198404204B080BD000064
:1003F00081B040F24C00C2F20000009040F2E000F8
:10040000C2F20000006846F20001C0F60001884216
:1004100013D3FFE740F2E000C2F2000000684FF69D
:10042000FF71C0F60001884207D8FFE7009941F24A
:100430001110CAF6AA20C8611FE040F2E000C2F223
:100440000000006846F20001C0F60101884213D3A3
:10045000FFE740F2E000C2F2000000684FF6FF71D3
:10046000C0F60101884207D8FFE7009942F2222036
:10047000CAF6AA20C861FFE7FFE700990420488276
:100480000099C8694042886101B0704781B042F26A
:100490000000C0F601000090FFE7009845F6FF71EC
:1004A000C0F60101884211D8FFE700980068B0F15A
:1004B000C23F07D1FFE7009840F24801C2F20001B5
:1004C0000860FFE7009804300090E6E701B070474D
:1004D00081B000208DF80300FFE742F22000C4F253
:1004E0000200006810F00B0F01D0FFE7F5E742F2C1
:1004F0002000C4F20200006810F4F01F09D0FFE7EA
:1005000042F23001C4F20201086840F4F0100860C1
:10051000FFE742F22000C4F202000068C003002896
:1005200008D5FFE742F23001C4F202014FF48030F7
:100530000860FFE701208DF803009DF8030001B07B
:100540007047000042F22800C4F20200016841F046
:10055000010101600068C00708B9FFE7FFE77047C5
:1005600081B000900098006801B0704783B08DF8AA
:100570000B008DF80A1000208DF809009DF80A0084
:10058000F0B9FFE742F22801C4F2020101910868C4
:100590004EF23F02C7F6FF7210400860086840F054
:1005A000040008609DF80B20086840EA821008608B
:1005B000086840F02000086001208DF809001FE065
:1005C00042F22801C4F20201009108684EF23F0293
:1005D000C7F6FF721040086008680422C8F20002E3
:1005E000104308609DF80B20086840EA82100860FC
:1005F000086840F02000086001208DF80900FFE73E
:1006000042F22801C4F20201002008609DF80900AE
:1006100003B0704742F22800C4F202000068C0072D
:10062000C0B1FFE742F20401C4F2020140F223101C
:10063000C4F26750086048F6AB10CCF6EF50086083
:1006400042F22800C4F202000068C00708B1FFE7C8
:10065000FFE7FFE77047000082B00190009142F28F
:100660002801C4F20201086840F002000860009806
:10067000019A1060086820F00200086002B070471C
:1006800080B582B08DF807008DF8061000208DF837
:100690000500FFF7BFFFFFF71BFF9DF807009DF860
:1006A0000610FFF763FF20B1FFE701208DF805007A
:1006B000FFE7FFF70DFFFFF745FF9DF8050002B0CC
:1006C00080BD000080B500F0E9FCFFF7DFFE00F020
:1006D0009FF900F02FFB80BD80B584B040F2000090
:1006E000C2F20000039000208DF80B000399886887
:1006F00009690191FFF760FE01460198884204D123
:10070000FFE701208DF80B00FFE79DF80B0004B018
:1007100080BD000080B584B040F20000C2F200004D
:100720000290002001900298806840680190019832
:1007300040F2E401C2F200010091086072B600F0DC
:100740001FFA00F04DFB0098029989684EF6085296
:10075000CEF20002116062B60299896809680391BD
:10076000039981F308880068804704B080BD0000C9
:1007700080B584B040F20000C2F200002430029044
:10078000002001900298806840680190019840F232
:10079000E801C2F200010091086072B600F0F0F9C1
:1007A00000F01EFB0098029989684EF60852CEF2BE
:1007B0000002116062B60299896809680391039981
:1007C00081F308880068804704B080BD80B584B09C
:1007D0000020029042F20400C0F60000006802907F
:1007E000029840F2EC01C2F200010191086072B679
:1007F00000F0C6F900F0F4FA01984EF60852CEF275
:10080000000242F20001C0F60001116062B6096800
:100810000391039981F308880068804704B080BD84
:1008200080B582B0019040F24C00C2F2000000900E
:10083000019842F20001C0F6010188420FD3FFE7A0
:10084000019843F6CF71C0F60101884207D8FFE74F
:1008500040F24800C2F200000068019053E00198A5
:1008600043F6D171C0F60101884212D3FFE7019827
:1008700044F20001C0F6010188420AD8FFE740F2C5
:100880004801C2F2000143F6E070C0F601000860C2
:1008900038E0019844F20001C0F6010188420FD30C
:1008A000FFE7019845F68F71C0F60101884207D82D
:1008B000FFE740F24800C2F200000068019020E02B
:1008C000019845F69071C0F60101884218D3FFE700
:1008D000019846F20001C0F60101884210D8FFE7F6
:1008E00000F0C6F858B1FFE740F24801C2F200013B
:1008F00041F6E070C0F6010008600190FFE7FFE7F5
:10090000FFE7FFE7FFE7019802B080BD80B584B044
:1009100040F24C00C2F2000003900020029040F22E
:100920004800C2F20000006841F6E071C0F6010123
:10093000884206D1FFE742F20000C0F601000290B3
:1009400006E040F24800C2F2000000680290FFE7B3
:100950000298FFF705FE0399C86002980430FFF77C
:10096000FFFD0399088202980430FFF7F9FD000C9F
:100970000399488202980830FFF7F2FD0399087541
:1009800002980C30FFF7ECFD039988610298103053
:10099000029000208DF80700FFE79DF8070003286C
:1009A00013D8FFE70298FFF7DBFD03999DF80720B6
:1009B00001EB8201C861029804300290FFE79DF8C4
:1009C000070001308DF80700E7E704B080BD0000A4
:1009D00080B582B000208DF8070040F24C01C2F2D1
:1009E0000001009140F24800C2F20000006820308F
:1009F000009A52680C3100F00FF820B1FFE7012097
:100A00008DF80700FFE79DF8070002B080BD0000E9
:100A100080B500F061F880BD80B584B0039002918C
:100A2000019200208DF803008DF8020072B6FFF7E6
:100A3000F1FDFFF74DFDFFE7039802990A1D0292B1
:100A40000968FFF709FE0398043003900198013804
:100A50000190FFE701980028EED1FFE7FFF738FD8E
:100A6000FFF770FD62B601208DF8030004B080BD71
:100A700080B582B040F24C00C2F20000019000202C
:100A80008DF8030001210846FFF7FAFDF8B1FFE7F2
:100A900042F20000C0F6010044F20001C0F601017C
:100AA00000F0DCFA90B1FFE740F24801C2F2000129
:100AB00041F6E070C0F60100086040F2F001C2F2B9
:100AC0000001012008708DF80300FFE7FFE79DF8A3
:100AD000030002B080BD000080B582B040F24C003F
:100AE000C2F2000001900198007AC00718B1FFE738
:100AF000FFF70CFFFFE702B080BD000081B040F2BD
:100B00004C00C2F2000000900098007DFE2805DC39
:100B1000FFE70099087D0130087511E00099002079
:100B200008750098008AFE2805DCFFE70099088A0E
:100B30000130088203E0009900200882FFE7FFE708
:100B400001B0704740F62001C4F20241086840F04D
:100B5000010008607047000040F62401C4F2024121
:100B6000086820F0010008607047000040F624018A
:100B7000C4F20241086840F00100086070470000BC
:100B800042F20000C4F20200006800F00F000228E8
:100B90000AD8FFE742F20001C4F20201086803220A
:100BA00062F303000860FFE740F60041C4F202412F
:100BB000086840F001000860FFE740F60040C4F21A
:100BC000024000688007002801D4FFE7F5E740F6FF
:100BD0000041C4F20241086820F01800086040F6A5
:100BE0001041C4F202414FF48000086040F61C41FD
:100BF000C4F202410020086040F62041C4F20241E4
:100C00000860FFE740F61C40C4F20240006810F0A4
:100C1000180F01D0FFE7F5E740F60041C4F20241AA
:100C200008684EF6FB22CFF6F6721040086008689E
:100C300020F480100860086820F080700860FFE7EA
:100C400040F60040C4F2024000688001002801D54F
:100C5000FFE7F5E740F60041C4F20241086820F0E2
:100C600080600860FFE740F60040C4F20240006880
:100C70000001002801D5FFE7F5E740F62841C4F25E
:100C800002410020086040F63442C4F2024240F2C1
:100C90008021C0F20111116040F63842C4F20242D4
:100CA000106040F62C42C4F20242106040F63C4212
:100CB000C4F20242116040F64041C4F202410860B1
:100CC00040F60042C4F20242116821F48021116012
:100CD00040F65041C4F20241086040F65841C4F267
:100CE00002414FF0FF30086040F6F441C4F2024187
:100CF000086840F40000086040F27801C2F2000188
:100D000049F20000C0F2D030086042F20000C4F2A4
:100D10000200006800F00F0004280AD3FFE742F247
:100D20000001C4F202010868032262F303000860B4
:100D3000FFE7704780B582B000208DF80700FFE71D
:100D40009DF80700012849D8FFE79DF8070000EB50
:100D5000C00140F20000C2F2000000EB81000090F0
:100D600000980068FFF7FCFB009948600098006855
:100D70000430FFF7F5FB00998860009800680830A0
:100D8000FFF7EEFB0099C860009800680C30FFF791
:100D9000E7FB00990861009800681030FFF7E0FB5E
:100DA00000994861009800681430FFF7D9FB00995A
:100DB0008861009800681830FFF7D2FB0099C8617D
:100DC000009800681C30FFF7CBFB00990862FFE732
:100DD0009DF8070001308DF80700B1E702B080BD33
:100DE00080B582B000F0AAF94EF21001CEF20001F7
:100DF000002008604EF60451CEF20001086840F071
:100E00000070086040F68C41C4F20241019108680C
:100E100020F001000860086820F0020008600868FF
:100E200020F004000860086820F0080008600868E6
:100E300020F080000860FFE740F67441C4F20241F0
:100E40004CF2FF10CDF6FE70086040F67841C4F217
:100E5000024140F22B60C4F280000860FFE740F6D8
:100E60007C41C4F2024147F60000C0F27F100860E6
:100E700040F68041C4F2024140F6E000C0F21000AA
:100E80000860FFE740F67441C4F2024100200860A8
:100E900040F67841C4F202410860FFE740F67C4129
:100EA000C4F202410020086040F68041C4F20241D1
:100EB000086002B080BD000081B04EF68851CEF2CD
:100EC0000001086840F47000086040F60042C4F277
:100ED00002420120106040F61C41C4F20241002091
:100EE000086040F62041C4F20241086011684EF6E5
:100EF000E323CFF6E2231940116040F62841C4F203
:100F00000241086040F62C41C4F20241086040F6FC
:100F10003443C4F2024340F28021C0F2011119604F
:100F200040F63843C4F20243186040F63C43C4F232
:100F30000243196040F64041C4F202410860116862
:100F400021F48021116040F65041C4F20241086052
:100F50004EF60851CEF200014FF00060086042F2F8
:100F60001800C4F20200006800F060400090009891
:100F7000B0F1604F05D0FFE70098B0F1404F24D1A9
:100F8000FFE742F21C00C4F202000068C00778B11B
:100F9000FFE742F20C01C4F2020142F63B20C0F628
:100FA0001900086046F67F60C4F65D400860FFE700
:100FB00042F21C01C4F20201086840F0020008601D
:100FC000086840F001000860FFE701B070470000CA
:100FD00080B584B040F24C00C2F2000002900020C4
:100FE0008DF80700FFF78AFDFFF702FA40F248008C
:100FF000C2F2000000900068FFF712FC0099086040
:10100000FFF7E6FC08B3FFE740F2F000C2F2000091
:101010000078012815D1FFE702200121FFF730FBFE
:1010200020B1FFE701208DF80700FFE740F2F00153
:10103000C2F20001002008709DF807008DF80F0033
:1010400008E001208DF80700FFE79DF807008DF804
:101050000F00FFE79DF80F0004B080BD84B0029040
:10106000019102980090FFE70098019988420DD203
:10107000FFE700980068013020B1FFE700208DF8FD
:101080000F0007E0009804300090EDE701208DF894
:101090000F00FFE79DF80F0004B0704780B582B0E5
:1010A000FFF7B8FAFFF762FD40F68841C4F202414B
:1010B0000191086840F080500860FFF743FD0199F6
:1010C000086820F080500860FFF746FDFFF73AFA05
:1010D00002B080BD80B582B001900091FFF746FD5F
:1010E00040F68841C4F20241086840F08050086030
:1010F00001980068009A1060086820F0805008602D
:10110000FFF72AFD02B080BD80B582B0019000914A
:10111000FFF72CFD40F68841C4F20241086840F018
:10112000805008600098019A1060086820F0805094
:101130000860FFF711FD02B080BD000081B0002003
:101140008DF80300FFE79DF803000F2811DCFFE78F
:101150009DF803204EF28011CEF200014FF0FF30D7
:1011600041F82200FFE79DF8030001308DF80300ED
:10117000E9E700208DF80300FFE79DF803000F2842
:1011800011DCFFE79DF803204EF28021CEF2000132
:101190004FF0FF3041F82200FFE79DF803000130D7
:1011A0008DF80300E9E701B07047000080B58CB00E
:1011B00000200B90FFF786FA40F20000C2F2000018
:1011C0000A902430099040F24C00C2F200000890CE
:1011D00040F2F401C2F20001079146F20040C4F26D
:1011E0000300FFF777FF07980068B0F1AA3F40D1EE
:1011F000FFE70A990868096906914030FFF7DCF8B3
:101200000146069888420BD1FFE746F20440C4F23B
:1012100003004FF00A31FFF777FFFFF77BFA27E073
:1012200009990868096905914030FFF7C5F801463A
:10123000059888420BD1FFE746F20440C4F2030050
:101240004FF00A31FFF760FFFFF792FA0FE0FFF768
:1012500043FA58B1FFE746F20440C4F203004FF0EE
:101260000B31FFF751FFFFF7B1FAFFE7FFE7FFE7A9
:10127000DEE040F2F400C2F200000068B0F1BB3FD3
:1012800010D1FFE7FFF728FA58B1FFE746F2044014
:10129000C4F203004FF00B31FFF736FFFFF796FA69
:1012A000FFE7C4E040F2F400C2F200000068B0F1D1
:1012B000FF3F00F2BB80FFE740F2F400C2F2000003
:1012C00000680028C0F0B280FFE70898C06941F2CA
:1012D0001111CAF6AA21884249D1FFE70A99086884
:1012E000096904914030FFF767F801460498884285
:1012F0000BD1FFE746F20440C4F203004FF00A317D
:10130000FFF702FFFFF706FA30E00999086809695C
:1013100003914030FFF750F801460398884219D1F5
:10132000FFE740F2E001C2F2000146F20000C0F621
:1013300001000860FFF74CFE58B1FFE746F2044099
:10134000C4F203004FF00A31FFF7DEFEFFF710FA98
:10135000FFE70AE046F20440C4F203004FF00B310D
:10136000FFF7D2FEFFF732FAFFE7FFE75DE00898EC
:10137000C06942F22221CAF6AA21884249D1FFE778
:1013800009990868096902914030FFF715F801468C
:10139000029888420BD1FFE746F20440C4F20300F2
:1013A0004FF00A31FFF7B0FEFFF7E2F930E00A999B
:1013B0000868096901914030FEF7FEFF0146019877
:1013C000884219D1FFE740F2E001C2F2000146F283
:1013D0000000C0F600000860FFF7FAFD58B1FFE713
:1013E00046F20440C4F203004FF00A31FFF78CFECE
:1013F000FFF790F9FFE70AE046F20440C4F2030069
:101400004FF00B31FFF780FEFFF7E0F9FFE7FFE752
:101410000AE046F20440C4F203004FF00B31FFF73C
:1014200073FEFFF7D3F9FFE7FFE7FFE7FFE7FFE70B
:10143000FFE7FEE7F1EE100A4FF6FF71C0F2C03190
:1014400020EA010040F04070E1EE100A7047000011
:1014500070140008000000208000000094020008C2
:10146000F01400088000002078060000B002000898
:101470000060000800000000000000000000000004
:10148000000000000000000000000000000000005C
:1014900000000000006001080000000000000000E3
:1014A000000000000000000000000000000000003C
:1014B0000000000000000000E01F01080000000024
:1014C0000800000001000000C2C2C2C2000000000B
:1014D000000000000000000000000000000000000C
:1014E00000000000000000000090D0030000000099
:040000050800025994
:00000001FF
