:020000040800F2
:1000000030070020F902000801030008030300087C
:1000100005030008070300080903000800000000AA
:100020000000000000000000000000000D030008B8
:100030000F0300080000000011030008130300086C
:100040001503000815030008150300080000000050
:100050001503000815030008150300080000000040
:100060001503000815030008000000001503000830
:100070001503000815030008150300081503000800
:1000800015030008150300081503000815030008F0
:1000900015030008150300081503000815030008E0
:1000A00015030008150300081503000815030008D0
:1000B00015030008150300081503000815030008C0
:1000C00015030008150300081503000815030008B0
:1000D00000000000150300081503000815030008C0
:1000E0001503000815030008150300081503000890
:1000F00015030008150300081503000800000000A0
:10010000000000001503000815030008150300088F
:10011000150300081503000815030008150300085F
:10012000150300081503000815030008150300084F
:10013000150300080000000000000000150300087F
:10014000150300080000000000000000000000008F
:10015000000000000000000015030008000000007F
:10016000000000000000000015030008150300084F
:10017000000000000000000000000000000000007F
:10018000000000000000000000000000000000006F
:10019000000000000000000000000000000000005F
:1001A000000000000000000015030008150300080F
:1001B00015030008150300081503000815030008BF
:1001C00015030008150300080000000000000000EF
:1001D00000000000000000000000000015030008FF
:1001E00015030008000000000000000000000000EF
:1001F00000000000000000000000000000000000FF
:1002000000000000150300081503000800000000AE
:1002100000000000150300080000000000000000BE
:1002200000000000000000000000000015030008AE
:10023000150300080000000000000000000000009E
:10024000000000000000000000000000150300088E
:10025000150300081503000800F002F800F03CF850
:100260000AA090E8000C82448344AAF10107DA4511
:1002700001D100F031F8AFF2090EBAE80F0013F027
:10028000010F18BFFB1A43F00103184704120000C6
:1002900024120000103A24BF78C878C1FAD8520757
:1002A00024BF30C830C144BF04680C6070470000F0
:1002B0000023002400250026103A28BF78C1FBD86F
:1002C000520728BF30C148BF0B6070471FB501F00F
:1002D000D2F81FBD10B510BD00F033F81146FFF77E
:1002E000F5FF00F08FFF00F051F803B4FFF7F2FFC5
:1002F00003BC00F059F800000A4880470A4800474C
:10030000FEE7FEE7FEE7FEE7FEE7FEE7FEE7FEE7C5
:10031000FEE7FEE7FEE7000004480549054A064BF4
:1003200070470000590E00085902000830010020F3
:100330003007002030030020300300207047704752
:100340007047754600F02CF8AE46050069465346E6
:1003500020F00700854618B020B5FFF7DDFFBDE8A7
:1003600020404FF000064FF000074FF000084FF01C
:10037000000BAC46ACE8C009ACE8C009ACE8C00969
:10038000ACE8C00921F007018D46704710B504465E
:10039000AFF300802046BDE81040FFF7A6BF000085
:1003A000004870479000002001491820ABBEFEE7CE
:1003B000260002007047000080B584B00390002042
:1003C00002900190FFE7039800F0BEF8013058B1A9
:1003D000FFE7039800F0B8F801460198084401903F
:1003E000039804300390EEE70198404204B080BDCA
:1003F00080B582B000208DF8070042F20000C0F600
:1004000001000090FFE7009845F6FB71C0F601017E
:10041000884217D8FFE7009800F096F8B0F1A13FA6
:100420000CD1FFE79DF8070001308DF80700009818
:1004300040F20011C2F200010860FFE700980430AA
:100440000090E0E79DF8070002B080BD42F228006E
:10045000C4F20200016841F0010101600068C007B8
:1004600008B9FFE7FFE7704742F22800C4F2020034
:100470000068C007C0B1FFE742F20401C4F2020104
:1004800040F22310C4F26750086048F6AB10CCF677
:10049000EF50086042F22800C4F202000068C00772
:1004A00008B1FFE7FFE7FFE77047000082B0019067
:1004B000009142F22801C4F20201086840F00200F3
:1004C00008600098019A1060086820F00200086037
:1004D00002B0704781B000208DF80300FFE742F2C0
:1004E0002000C4F20200006810F00B0F01D0FFE7FB
:1004F000F5E742F22000C4F20200006810F4F01F99
:1005000009D0FFE742F23001C4F20201086840F46A
:10051000F0100860FFE742F22000C4F20200006819
:10052000C003002808D5FFE742F23001C4F20201FF
:100530004FF480300860FFE701208DF803009DF83C
:10054000030001B07047000082B0019000200090CD
:10055000019800680090009802B0704780B586B09E
:1005600000208DF81700ADF814000490039040F2BD
:100570000810C2F20000029040F20010C2F2000027
:100580000068049002998888C9880844ADF814006E
:10059000BDF8140001900498103000F0D5F9014620
:1005A00001980844404203900298C0680399884229
:1005B00004D1FFE701208DF81700FFE79DF8170031
:1005C00006B080BD80B500F095FDFFF711FF40F249
:1005D0002E11C2F20001087000F05EFA00F058F926
:1005E00000F08CFB80BD000080B586B040F25C005E
:1005F000C2F200001830059000208DF81300ADF80D
:100600001000ADF80E0002900190059800680021DE
:10061000C0F60101084302900298FFF795FFADF87C
:1006200010000298FFF790FF000CADF80E00029842
:100630000830059949680239C9B200F0BDF9019046
:10064000BDF81000BDF80E1008440199084440425E
:100650000190059800690199884204D1FFE70120C3
:100660008DF81300FFE79DF8130006B080BD000071
:1006700080B584B040F20000C2F200000290002079
:1006800001900298806840680190019840F2F4015E
:10069000C2F200010091086072B600F055FA00F055
:1006A0006FFB0098029989684EF60852CEF200025C
:1006B000116062B60299896809680391039981F310
:1006C00008880068804704B080BD000080B584B011
:1006D00040F20000C2F200001830029000200190A9
:1006E0000298806840680190019840F2F801C2F2D7
:1006F00000010091086072B600F026FA00F040FB9D
:100700000098029989684EF60852CEF200021160F4
:1007100062B60299896809680391039981F3088890
:100720000068804704B080BD80B584B0002002908E
:1007300042F20400C0F6000000680290029840F205
:10074000FC01C2F200010191086072B600F0FCF9F0
:1007500000F016FB01984EF60852CEF2000242F26B
:100760000001C0F60001116062B6096803910399A7
:1007700081F308880068804704B080BD80B584B0EC
:10078000039040F20810C2F2000002900020019095
:1007900040F20010C2F200000068019040F2F00048
:1007A000C2F200000078012844D1FFE70198FFF76A
:1007B000CBFE0299086001980430FFF7C5FE02994C
:1007C000888001980430FFF7BFFE000C0299C880B2
:1007D00001980830FFF7B8FE0299087201980C30B2
:1007E000FFF7B2FE0299C860019810300190002016
:1007F0008DF80300FFE79DF80300032813DCFFE7F3
:100800000198FFF7A1FE02999DF8032001EB8201F8
:100810000861019804300190FFE79DF80300013062
:100820008DF80300E7E740F2F001C2F2000100207A
:100830000870FFE704B080BD80B584B000208DF85B
:100840000F0040F23000C2F20000029040F20810A7
:10085000C2F200000190FFF781FE012813D1FFE7EB
:1008600040F20010C2F200000068203002994A688D
:1008700040F23001C2F200010C3100F013F8012007
:100880008DF80F00FFE79DF80F0004B080BD000059
:1008900080B540F20411C2F200010120087000F09E
:1008A0002BF880BD80B586B005900491039200209E
:1008B0000290019072B6FFF7D7FDFFF70BFEFFE73E
:1008C00001980399884210D2FFE7059804990A1D00
:1008D00004920968FFF7EAFD059804300590059831
:1008E0000290019801300190EAE7FFF7F3FDFFF76E
:1008F000ADFD62B606B080BD80B582B040F230007A
:10090000C2F2000000900098007A012814D1FFE79D
:1009100040F2F001C2F200010120087040F2041020
:10092000C2F200000078012805D1FFE79DF807001A
:10093000FFF724FFFFE7FFE740F20411C2F20001D6
:100940000020087002B080BD80B584B00390002004
:100950008DF80B00019040F22C11C2F200010870DA
:10096000FFE79DF80B00032823DCFFE70398FFF760
:10097000EBFD0130A0B1FFE70398FFF7E5FD78B18B
:10098000FFE70398FFF7E0FD014601980844019056
:1009900040F22C11C2F20001087801300870FFE724
:1009A0000398043003909DF80B0001308DF80B0084
:1009B000D7E7019804B080BD80B584B003908DF86E
:1009C0000B1000208DF80A00019040F22D11C2F2A8
:1009D00000010870FFE79DF80A009DF80B1088429F
:1009E00023DAFFE70398FFF7AFFD0130A0B1FFE77F
:1009F0000398FFF7A9FD78B1FFE70398FFF7A4FD7F
:100A0000014601980844019040F22D11C2F2000104
:100A1000087801300870FFE70398043003909DF8D0
:100A20000A0001308DF80A00D5E7019804B080BDB6
:100A300080B584B003900291029800EB400140F22F
:100A40005C00C2F2000000EBC100019040F2F10036
:100A5000C2F20000007801281CD1FFE70398FFF7DD
:100A600073FD019948810398FFF76EFD000C019911
:100A7000888103980430FFF767FD019908610398A6
:100A800008300199486140F2F101C2F200010020F2
:100A90000870FFE704B080BD80B500F001F880BDAC
:100AA00080B582B000208DF80700FFE79DF80700B1
:100AB000012829DCFFE79DF8070000EB400140F228
:100AC0005C00C2F2000000EBC100009040F2F101B6
:100AD000C2F20001012008700099097AB0EBD11F21
:100AE0000BD1FFE7009800680021C0F60101084320
:100AF0009DF80710FFF79CFFFFE7FFE79DF8070051
:100B000001308DF80700D1E702B080BD40F620012A
:100B1000C4F20241086840F001000860704700001C
:100B200040F62401C4F20241086820F00100086088
:100B30007047000040F62401C4F20241086840F00A
:100B4000010008607047000042F20000C4F2020099
:100B5000006800F00F0002280AD8FFE742F2000107
:100B6000C4F202010868032262F303000860FFE791
:100B700040F60041C4F20241086840F001000860FC
:100B8000FFE740F60040C4F20240006880070028FA
:100B900001D4FFE7F5E740F60041C4F202410868DE
:100BA00020F01800086040F61041C4F202414FF4F2
:100BB0008000086040F61C41C4F202410020086039
:100BC00040F62041C4F202410860FFE740F61C40B5
:100BD000C4F20240006810F0180F01D0FFE7F5E7FB
:100BE00040F60041C4F2024108684EF6FB22CFF6FF
:100BF000F67210400860086820F4801008600868E9
:100C000020F080700860FFE740F60040C4F2024028
:100C100000688001002801D5FFE7F5E740F60041B4
:100C2000C4F20241086820F080600860FFE740F6E7
:100C30000040C4F2024000680001002801D5FFE72F
:100C4000F5E740F62841C4F202410020086040F672
:100C50003442C4F2024240F28021C0F2011111601C
:100C600040F63842C4F20242106040F62C42C4F210
:100C70000242106040F63C42C4F20242116040F66B
:100C80004041C4F20241086040F60042C4F2024210
:100C9000116821F48021116040F65041C4F20241F4
:100CA000086040F65841C4F202414FF0FF3008603E
:100CB00040F6F441C4F20241086840F400000860C4
:100CC00040F28C01C2F2000149F20000C0F2D030C3
:100CD000086042F20000C4F20200006800F00F0059
:100CE00004280AD3FFE742F20001C4F202010868B7
:100CF000032262F303000860FFE7704780B582B00B
:100D000000208DF80700FFE79DF80700012834DC7C
:100D1000FFE79DF8070000EB400140F20000C2F23F
:100D2000000000EBC100009000980068FFF70CFC89
:100D300000994860009800680430FFF705FC0099AE
:100D40008860009800680830FFF7FEFB0099C860D3
:100D5000009800680C30FFF7F7FB009908610098D5
:100D600000681030FFF7F0FB00994861FFE79DF83D
:100D7000070001308DF80700C6E702B080BD000013
:100D800080B582B000F006FA4EF21001CEF20001FA
:100D9000002008604EF60451CEF20001086840F0D1
:100DA0000070086040F68C41C4F20241019108686D
:100DB00020F001000860086820F002000860086860
:100DC00020F004000860086820F008000860086847
:100DD00020F080000860FFE740F67441C4F2024151
:100DE0004CF2FF10CDF6FE70086040F67841C4F278
:100DF000024140F22B60C4F280000860FFE740F639
:100E00007C41C4F2024147F60000C0F27F10086046
:100E100040F68041C4F2024140F6E000C0F210000A
:100E20000860FFE740F67441C4F202410020086008
:100E300040F67841C4F202410860FFE740F67C4189
:100E4000C4F202410020086040F68041C4F2024131
:100E5000086002B080BD000081B04EF68851CEF22D
:100E60000001086840F47000086040F60042C4F2D7
:100E700002420120106040F61C41C4F202410020F1
:100E8000086040F62041C4F20241086011684EF645
:100E9000E323CFF6E2231940116040F62841C4F263
:100EA0000241086040F62C41C4F20241086040F65D
:100EB0003443C4F2024340F28021C0F201111960B0
:100EC00040F63843C4F20243186040F63C43C4F293
:100ED0000243196040F64041C4F2024108601168C3
:100EE00021F48021116040F65041C4F202410860B3
:100EF0004EF60851CEF200014FF00060086042F259
:100F00001800C4F20200006800F0604000900098F1
:100F1000B0F1604F05D0FFE70098B0F1404F24D109
:100F2000FFE742F21C00C4F202000068C00778B17B
:100F3000FFE742F20C01C4F2020142F63B20C0F688
:100F40001900086046F67F60C4F65D400860FFE760
:100F500042F21C01C4F20201086840F0020008607D
:100F6000086840F001000860FFE701B0704700002A
:100F700080B588B0079040F23000C2F200000690C1
:100F800040F20810C2F20000059000208DF8130016
:100F9000039002900190009040F20010C2F2000015
:100FA00000680390039843F6F571C0F6010188428A
:100FB00007D8FFE740F20010C2F20000006803907B
:100FC00024E0039843F6CF71C0F60101884212D3A2
:100FD000FFE7039844F20001C0F6010188420AD8F5
:100FE000FFE740F20011C2F2000143F6E070C0F6E4
:100FF0000100086009E0039846F20101C0F6010112
:10100000884201D3FFE7FFE7FFE7FFE705980068A5
:101010000699C8600598007AFE280ADCFFE7059863
:10102000007A01300699087505988088069908822B
:1010300012E006990020087505988088FE2806DCD5
:10104000FFE70598808801300699088203E0069939
:1010500000200882FFE7FFE7079846F20001C0F68C
:10106000000188420FD3FFE707984FF6FF71C0F6E3
:101070000001884207D8FFE7069941F21110CAF62D
:10108000AA20C86117E0079846F20001C0F60101E6
:1010900088420FD3FFE707984FF6FF71C0F60101B2
:1010A000884207D8FFE7069942F22220CAF6AA2012
:1010B000C861FFE7FFE70699042048820699088A7D
:1010C000498A0844019001980699C9690844019029
:1010D000019840420290029806998861FFF7ACFBA4
:1010E00020B1FFE701208DF81300FFE79DF8130002
:1010F00008B080BD80B582B0FFF7B6F9FFF71AFDE2
:1011000040F68841C4F202410191086840F08050E5
:101110000860FFF7FBFC0199086820F08050086028
:10112000FFF7FEFCFFF792F902B080BD80B582B0F8
:1011300001900091FFF7FEFC40F68841C4F20241A5
:10114000086840F08050086001980068009A1060BC
:10115000086820F080500860FFF7E2FC02B080BD14
:1011600080B582B001900091FFF7E4FC40F6884121
:10117000C4F20241086840F0805008600098019A6B
:101180001060086820F080500860FFF7C9FC02B0CA
:1011900080BD000081B000208DF80300FFE79DF8BE
:1011A00003000F2811DCFFE79DF803204EF28011A9
:1011B000CEF200014FF0FF3041F82200FFE79DF82A
:1011C000030001308DF80300E9E700208DF80300EB
:1011D000FFE79DF803000F2811DCFFE79DF80320CF
:1011E0004EF28021CEF200014FF0FF3041F8220094
:1011F000FFE79DF8030001308DF80300E9E701B037
:101200007047000080B58CB000200B90FFF7DAF932
:1012100040F20000C2F200000A901830099040F23B
:101220000810C2F20000089040F22811C2F200013A
:10123000079146F20040C4F20300FFF777FF0798DA
:101240000068B0F1AA3F40D1FFE70A9908684969F0
:1012500006918030FFF7B0F80146069888420BD11E
:10126000FFE746F20440C4F203004FF00A31FFF7F3
:1012700077FFFFF7FDF927E00999086849690591AB
:101280008030FFF799F80146059888420BD1FFE7B7
:1012900046F20440C4F203004FF00A31FFF760FF4A
:1012A000FFF714FA0FE0FFF79FF958B1FFE746F296
:1012B0000440C4F203004FF00B31FFF751FFFFF77A
:1012C00033FAFFE7FFE7FFE7D3E040F22810C2F26E
:1012D00000000068B0F1BB3F10D1FFE7FFF784F9D1
:1012E00058B1FFE746F20440C4F203004FF00B315F
:1012F000FFF736FFFFF718FAFFE7B9E040F22810D2
:10130000C2F200000068B0F1FF3F00F2B080FFE7DA
:1013100040F22810C2F2000000680028C0F0A78048
:10132000FFE70898006941F21111CAF6AA21884224
:1013300049D1FFE70A990868496904918030FFF7AD
:101340003BF80146049888420BD1FFE746F204407F
:10135000C4F203004FF00A31FFF702FFFFF788F9EC
:1013600030E009990868496903918030FFF724F853
:1013700001460398884214D1FFE746F20000C0F608
:101380000100FFF7F5FD58B1FFE746F20440C4F253
:1013900003004FF00A31FFF7E3FEFFF797F9FFE78D
:1013A0000FE0FFF721F958B1FFE746F20440C4F21D
:1013B00003004FF00B31FFF7D3FEFFF7B5F9FFE75E
:1013C000FFE7FFE752E00898006942F22221CAF6DF
:1013D000AA21884249D1FFE7099908684969029121
:1013E0008030FEF7E9FF0146029888420BD1FFE703
:1013F00046F20440C4F203004FF00A31FFF7B0FE9A
:10140000FFF764F930E00A99086849690191803072
:10141000FEF7D2FF01460198884214D1FFE746F259
:101420000000C0F60000FFF7A3FD58B1FFE746F249
:101430000440C4F203004FF00A31FFF791FEFFF7BA
:1014400017F9FFE70FE0FFF7CFF858B1FFE746F2D3
:101450000440C4F203004FF00B31FFF781FEFFF7A9
:1014600063F9FFE7FFE7FFE7FFE7FFE7FFE7FFE7D6
:10147000FFE7FFE7FEE7F1EE100A4FF6FF71C0F25B
:10148000C03120EA010040F04070E1EE100A7047E0
:10149000B014000800000020900000009402000832
:1014A0004015000890000020A0060000B0020008CF
:1014B00000600008000000000000000000000000C4
:1014C00000000000000000000060010800000000B3
:1014D000000000000000000000000000000000000C
:1014E000000000000800000001000000A1A1A1A16F
:1014F00000000000000000000000000000000000EC
:1015000000000000000000000000000000000000DB
:10151000100000008000000000000000000000003B
:1015200000000000400000002400000080000100D6
:101530000000000000000000000000000090D00348
:040000050800025994
:00000001FF
